:020000022000DC
:1060000000000120D1620200F9620200FB6202007E
:10601000FD620200FF620200016302000000000056
:106020000000000000000000000000000363020008
:10603000056302000000000007630200096302001C
:10604000557A02000B630200458302000B630200D5
:106050000B6302000B630200517E02000B6302001F
:106060000B6302000B6302000B6302000B63020070
:106070000B6302000B6302000B6302000B63020060
:106080000B630200596602000B6302000B630200FF
:10609000F96602000B630200D9AA02000B6302003A
:1060A0000B6302000B6302000B6302000B63020030
:1060B0000B6302000B630200000000000000000000
:1060C0000B6302000B6302000B6302000B63020010
:1060D0000B6302000B6302000B6302000000000070
:1060E00000000000000000000000000000000000B0
:1060F00000000000000000000000000000000000A0
:10610000000000000000000000000000000000008F
:10611000000000000000000000000000000000007F
:10612000000000000000000000000000000000006F
:10613000000000000000000000000000000000005F
:10614000000000000000000000000000000000004F
:10615000000000000000000000000000000000003F
:10616000000000000000000000000000000000002F
:10617000000000000000000000000000000000001F
:10618000000000000000000000000000000000000F
:1061900000000000000000000000000000000000FF
:1061A00000000000000000000000000000000000EF
:1061B00000000000000000000000000000000000DF
:1061C00000000000000000000000000000000000CF
:1061D00000000000000000000000000000000000BF
:1061E00000000000000000000000000000000000AF
:1061F000000000000000000000000000000000009F
:1062000010B5054C237833B9044B13B10448AFF3F0
:1062100000800123237010BDD05B0020000000002F
:1062200068E50200084B10B51BB108490848AFF3F8
:1062300000800848036803B910BD074B002BFBD052
:10624000BDE81040184700BF00000000D45B0020EC
:1062500068E50200C85B002000000000154B002B21
:1062600008BF134B9D46A3F5803A00218B460F468D
:106270001348144A121A06F055FC0F4B002B00D09D
:1062800098470E4B002B00D09847002000210400B7
:106290000D000D48002802D00C48AFF3008006F036
:1062A000D9FB2000290002F0D5FE06F0BFFB00BF9D
:1062B00000000800000001200000000000000000B5
:1062C000D05B0020A4690020000000000000000056
:1062D0000649074A074B9B1A03DD043BC858D050B8
:1062E000FBDC06F0BDF9FFF7B9FF0000E0E60200B5
:1062F00068430020D05B0020FEE7FEE7FEE7FEE7F4
:10630000FEE7FEE7FEE7FEE7FEE7FEE7424B197811
:1063100000297FD02DE9F04F002487B001258E465B
:1063200003E00134E4B2744561D23C4B27B21E68ED
:1063300016F83700A0F1200305FA03F9384BC0F135
:106340002001D3E9002325FA01F149EA010905FA00
:1063500000F808EA020A09EA030B5AEA0B0C06EBFA
:10636000C701DED005912E4922EA080223EA09037B
:10637000C1E9002301F062FD16F83760A6F12002A2
:1063800005FA02F201920199C6F120035FFA80FA40
:1063900025FA03F3A6F1200219430AFA02F3039344
:1063A000019105FA06F10091C6F1200703991D4BF2
:1063B0002AFA07F73943D3E9002303910AFA06F1D1
:1063C000DDE900AB02910AEA020A0BEA030B52462E
:1063D0005B46DDE902AB5B4508BF5245059909D034
:1063E0000D4B013493F800E0E4B274459DD307B03F
:1063F000BDE8F08F4B68002BF2D04978A1F1010184
:10640000B1FA81F14909091AB1FA81F14909304615
:106410009847E5E7704700BFF45B0020F05B002081
:10642000205C0020185C00202DE9F8430646204837
:1064300000F0EEFBD0B91F4F0123A6F1200103FAB3
:1064400001F5C6F12002D7E9000123FA02F2154353
:1064500003FA06F404EA000205EA0103134307D035
:1064600020EA040421EA0505C7E90045BDE8F883F0
:10647000304601F0E3FC104ED6E9008998B148EAB5
:10648000040849EA0509D7E9002314431D43C6E976
:106490000089C7E90045094B054819680022BDE895
:1064A000F84300F05FBB28EA040829EA0509EAE797
:1064B000F85B0020205C0020185C0020EC5B0020D2
:1064C000042A01D807207047F0B583B00F4605466F
:1064D000164601F03DFB002831D01B4C1B4A1C4BDB
:1064E0001C481D49256017707C1E00221E60002379
:1064F000C0E90023C1E90023E4B2D7B10027032695
:1065000002E0DBB2ACB11C4623B205EBC30215F8C6
:1065100033009378114A8DF8053001A98DF8067083
:106520008DF8046001F01EFB631E0028E9D003B063
:10653000F0BD0B4A0B48002100F002FBF7E701F029
:10654000B9FA0028C9D0F2E7F05B0020F45B002024
:10655000EC5B0020185C0020205C00202964020015
:106560000D63020090CB020070B5084D2B785BB133
:10657000074E00243368012113F8340001F0CCFBEE
:106580002B780134A342F5D8002070BDF45B0020C5
:10659000F05B002070B5094D2B7853B1084E0024F4
:1065A000336813F8340001F019FC2B780134A3424E
:1065B000F6D80448BDE8704000F02ABBF45B002028
:1065C000F05B0020F85B002000B585B0002303904D
:1065D000194601AA44F201000193029300F004F865
:1065E00005B05DF804FB00BF10B572B605F042F9C6
:1065F00004F0C8FD0028FBD1104B114C11491C1BA5
:10660000E408240444F0010004F004FF0E4B1B686E
:10661000DB0700D500BE44F002000C4904F0FAFE8E
:10662000BFF34F8F0A490B4BCA6802F4E062134371
:10663000CB60BFF34F8F00BFFDE700BF44E6020011
:106640001CE6020094CB0200F0ED00E0A0CB0200BB
:1066500000ED00E00400FA05F8B5204A204B0025C3
:10666000C2F84051C2F84451C2F84851C2F84C51E6
:10667000C2F80051C2F804511B6813B31949D2F88B
:1066800004250C68141B1A6824F07F44A2422F468C
:1066900009D8197CDE69A41A154499B91EB133468C
:1066A0001A68A242F5D9104B10491A780B789A4211
:1066B0000DD00F490F4A41F823504FF48013C2F810
:1066C0000031F8BD1F745A6998699047E6E7531C7A
:1066D000DBB2022B08BF00230B70EAE70010014079
:1066E0002C5C0020285C0020305C0020315C002005
:1066F000405D002000E100E02DE9F04FAB4AAC49DD
:1067000013780978994287B036D00133DBB2022B77
:1067100008BF0023A7481370A74A076852F8231040
:10672000DFF8B0A27A18DAF80030002422F07F42B5
:10673000026026462046A646ABB11A688A4200F29D
:106740006581DC68C3F800E0891A1044DA6934B165
:106750003D1825F07F45DE619C605D601E46134656
:106760000124002BE9D1002C40F084810023029306
:1067700001230393029D07E0DFF858A2DAF8003006
:106780000293002603961D468C4BDFF83892DFF803
:1067900048B243F001030493002301934EB37068A1
:1067A000B3683446F669834A854F1168421A22F06D
:1067B0007F42BA423AD8134423600022012162602A
:1067C000A260E2612174002D62D02968994245D20D
:1067D000284603E01168994230D21046C2695B1A1C
:1067E000002AF7D12360E2612B46C4611D46002ECA
:1067F000D5D199F8003099F8012072499A427DD09C
:106800005A1C8878D2B2904203EB43030A7008BF47
:106810000E7009EBC3010B798C68022B49D0032B56
:106820003BD0012B22D02B461D46E0E7091A21F070
:106830007F41994209D25B1A2360BEE7C91A1160F1
:106840002360E2612B46C461D0E70023012223606C
:106850006360A360E3612274D5B12968CAF800407F
:10686000CB1A2B602346E5611D46C0E7227C002A37
:10687000D9D1C86860600B69A3604F69E7609BF875
:1068800000708969A161002F8DD0626010468AE78F
:106890002346CAF800401D46A9E700220DB9C2E709
:1068A0001D46EB692A74002BFAD1CAF800301D4648
:1068B0009DE75DB1AC4200F09180A84602E09442B1
:1068C00009D09046D8F81C20002AF8D12B46002287
:1068D00022741D468BE7444500F08280E169206800
:1068E000C8F81C102B460029F0D00A6802440A6040
:1068F000019A9D4218BF01220192E8E7019B13B95A
:10690000029B9D4279D0002D00F09880294B2E48A3
:106910001C68D0F804652D4FD5F800903B78351BE6
:1069200025F07F450335BBB9294B24494FF480320C
:10693000C0F844234FF00108C0F804234FF400329C
:10694000C3F8802141F001011A60C0F800804FF4C3
:106950003C60884787F80080A9452CBF4C446419E7
:10696000194824F07F43C0F84035D0F80415891B3E
:106970009B1B21F07F4123F07F43033199420ED9C5
:106980000E4BD0F80415C0F8401543F001034FF446
:106990003C6098470E4B4FF40031C3F800110023C0
:1069A0008BF8003007B0BDE8F08F00BF305C0020EE
:1069B000315C0020285C0020405D0020B0CB02004C
:1069C000FEFF7F00345C002000100140485D002085
:1069D00000E100E02C5C0020325C00202A46A84642
:1069E000EB69CAF80030264FCBB1D1691068C8F8FE
:1069F0001C1000293FF47CAF77E7039B002B82D16A
:106A000000238BF8003007B0BDE8F08F002C34D1A4
:106A1000521A02931A6001230393029DB4E6059271
:106A2000184A1949012090608BF800000B604FF460
:106A30003C60049B98473B68059AD6E7114E134982
:106A4000134C4FF4803301274FF40030C1F880001D
:106A50003C43C6F848334FF43C60C6F808337760CF
:106A6000A047094BB7604FF43C601D60A047094B3D
:106A70001D7094E7CAF8003078E6CAF80030C7E71E
:106A80002C5C002000100140285C002000E100E0A8
:106A9000B0CB0200485D00202DE9F8431F4D204E89
:106AA000204FDFF898804FF480334FF400324FF0DE
:106AB00001090024C6F8802047EA0907C5F84833D1
:106AC0004FF43C60C5F80833C5F80490B847C5F8E2
:106AD00008904FF43C60C8F80040B847124B134888
:106AE0001349144A1C70144B04600C7014704FF45A
:106AF0008011E0220B2098701C705C70C6F8801129
:106B000086F814233160C5F8084586F81123D5F8B6
:106B10000435C8F800302046BDE8F8830010014075
:106B200000E100E0B0CB0200485D00202C5C0020BA
:106B3000305C0020315C0020345C0020285C0020A8
:106B4000074B9B780BB9082070473AB130B1036806
:106B5000187C0028F7D159745A6170470720704794
:106B6000345C00202DE9F043264CA37883B01BB998
:106B7000082003B0BDE8F0830028F9D0042903D829
:106B8000072003B0BDE8F0834369002BF0D0064630
:106B900002A8737C0025012B00F8015D0CBF89461B
:106BA000A94690460F4600F06FF86378A0782178E8
:106BB0005A1CD2B2904208BF2A4691421BD003EB26
:106BC000430304EBC30301200F4918719E60D1F801
:106BD00004159DF80700D9601F61C3F81490C3F82D
:106BE0001880627000F078F8084B4FF48012284645
:106BF000C3F80021BDE79DF8070000F06DF8042000
:106C0000B7E700BF345C00200010014000E100E065
:106C100070B51B4CA37882B013B9082002B070BDC8
:106C20000028FAD04369002BF7D0064602A80025B9
:106C300000F8015D357400F027F86278A0782178BB
:106C4000531CDBB2984208BF2B46994212D002EB8C
:106C5000420204EBC20202219DF807009660117106
:106C6000637000F039F8074B4FF480122846C3F8E0
:106C70000021D3E79DF8070000F02EF80420CDE7AF
:106C8000345C002000E100E0F0B4EFF3108472B651
:106C90000E4B9A68B2B90E4901259D60D1F88070FB
:106CA0000C4D2E463D401D60C1F88060D1F88450E7
:106CB0005D604FF0FF33C1F88430027004B962B6F2
:106CC000F0BC704701230370F8E700BF946900200F
:106CD00000E100E0FC06FFBD094B9A6872B168B99B
:106CE00010B4EFF3108272B606491C680C605C6841
:106CF0004C60986002B962B65DF8044B704700BF03
:106D00009469002000E100E001F01F024B0901211D
:106D100000EB8300914000F025B800BF10B40122C1
:106D200001F01F044B0902FA04F100EB8300C94390
:106D30005DF8044B00F024B84B0901F01F0150F836
:106D40002300C84000F00100704700BF00B550E8C4
:106D5000002F0B4640E8003E9EF0000FF7D1104692
:106D60005DF804FB00B550E8003F43EA010240E84B
:106D7000002E9EF0000FF6D110465DF804FB00BF18
:106D800000B550E8003F03EA010240E8002E9EF003
:106D9000000FF6D110465DF804FB00BF00B550E8C7
:106DA000003F03EB010240E8002E9EF0000FF6D1F9
:106DB00010465DF804FB00BF00B550E8003FA3EBB0
:106DC000010240E8002E9EF0000FF6D110465DF85B
:106DD00004FB00BF00B5012350E8002F42EA030E78
:106DE00040E800E191F0000FF6D170465DF804FB39
:106DF00000B5002350E800EF0EEA030240E800214E
:106E000091F0000FF6D170465DF804FBB8B130B4D4
:106E1000416882680468521AD2B2531E2160DBB204
:106E200042B101680A685C1E551C0D601370E3B224
:106E3000FF2BF6D103680020187130BC70470E207C
:106E4000704700BF70B582B002AB002503F8015D4A
:106E500004461846FFF718FF236861681A688A42DB
:106E600010D9511E19602168A3680E680879258A17
:106E700012F8012CE4689B1BDBB2984205FB02452B
:106E800038BF0B719DF80700FFF726FF284602B0B8
:106E900070BD00BF30B583B002AB002203F8012DF6
:106EA000054618460C46FFF7EFFE2A681368591C82
:106EB0001160E9682A8A641AB4FBF2F41C709DF828
:106EC0000700FFF709FF03B030BD00BF826802B9B9
:106ED000704710B50446436901680069984700236C
:106EE000A36010BD0EB400B582B0039929B102AA07
:106EF00004AB42F8043D00F095F802B05DF804EBF5
:106F000003B070472DE9F84F1746B9428846064648
:106F10001D46DDF828B00B9A7DD30B464FF00109D2
:106F2000B3FBF7F39F4209F10109F9D9A94538BF2D
:106F3000A94612F0010A02D1BBF1000F49D1B26893
:106F4000012402E0013D07FB04F4012DFAD8B8FB4F
:106F5000F4F18F42F7D9324D05E0B4FBF7F4A4B158
:106F6000B8FBF4F1B268685C531CB36033689854A2
:106F7000B26873689A4201FB1488EED33046FFF77B
:106F8000A5FFB4FBF7F4002CEAD1BAF1000F16D03C
:106F9000BBF1000F33D0CB4588BF20243ED9B36866
:106FA0003268591CB160D454B26873689A420BF1CC
:106FB000FF3B06D2BBF1000F09D0D945EFD3BDE8A6
:106FC000F88F3046FFF782FFBBF1000FF5D1BDE827
:106FD000F88F93071AD42024D945B0D2B268336809
:106FE000511CB1609C54B26873689A420BF1FF3B2C
:106FF00007D2BBF1000FA3D0D945F0D3A0E7BDE87D
:10700000F88F3046FFF762FFB268F2E7002D0CBF41
:1070100030242024E0E74FF0010987E7BDE8F88F2E
:10702000B8CB0200002900F061822DE9F04F06463E
:1070300085B091460C460B78DFF8ECA40DE0B26801
:107040003168501CB0608B54B26873689A4280F00B
:10705000D3802378002B00F0BA800134002B00F09D
:10706000B680252BEBD14FF00008214614F8013BE8
:107070002D2B00F0BB80302B00F0BB802B2B00F0C1
:10708000AD802A2B00F0BC80A3F13005EAB2092ABA
:1070900098BF013102D9A6E1A2F130050C4611F8E2
:1070A000013BA3F1300005EB8502092803EB420206
:1070B000F2D91A462E2A00F0AF80002701E014F81A
:1070C000012F02F0FB03682BF9D0253A532A79D817
:1070D000DFE812F076017800780078007800780018
:1070E00078007800780078007800780078007800E0
:1070F00078007800780078007800780078007800D0
:1071000078007800780078007800780078007800BF
:1071100078007800780078007800780078007800AF
:10712000780078007800780078007800780078009F
:1071300078007800780078007800660178007800A0
:10714000780078007800780078007800780078007F
:107150005101F9007800780078007800F900780093
:107160007800780078007800780054007800780083
:10717000C9007800B900780078006601D9F80020CD
:10718000131DC9F80030B36831681568581C3022E7
:10719000B060CA54B3687268934280F0AE813268BE
:1071A000581C7821B060D154B26873689A4280F05C
:1071B000A081002208230192294600931022304624
:1071C000FFF7A0FE01342378002B7FF446AF337B1A
:1071D000002B40F0028105B0BDE8F08F214614F885
:1071E000013B2D2B48F004087FF445AF48F001081F
:1071F0003BE748F0020838E73046FFF767FE28E72C
:10720000D9F800301A1DC9F800204A781D682E2AC6
:1072100001F101047FF451AF6278A2F13003092B30
:1072200004F101044FF000073FF64BAF07EB87076F
:1072300002EB470714F8012FA2F13003092BA7F145
:107240003007F3D93DE7D9F800301A1DC9F80020FE
:107250001968CDF804803B4600950A223046FFF7B6
:1072600051FE0134AFE7D9F800301A1DC9F80020EB
:1072700018F0010F1F6840F0BD80002F00F0528110
:10728000384605F061FC8046454540F2FB80002D04
:1072900000F0F8804FF0200B05E0454540F2F28009
:1072A000002D00F0EF80B2683368511CB16003F824
:1072B00002B0B26873689A4205F1FF35EDD33046EB
:1072C000FFF704FEE9E7D9F800301A1DC9F80020DD
:1072D000D3F800B08BEAEB73A3EBEB73092B4FF001
:1072E000010108DD8AFB0302DB17C3EBA203092BB4
:1072F00001F10101F6DCB94238BF394635B1BBF1C5
:10730000000F02DB18F0040F00D0013D18F0020F4F
:107310006DD118F0010F17D1002D00F0E8808D42DB
:1073200088BF202310D9B268501CB06030688354E5
:10733000B2687068824205F1FF3580F08A80002DC6
:1073400000F0D5808D42EED8BBF1000FC0F2DA809C
:1073500018F0040F40F0858008F00303022B00F0C2
:10736000A4808DE820013B4659460A223046FFF7AB
:10737000C9FD013427E7D9F80020131DC9F80030F2
:10738000B36831681278581CB060CA54B268736828
:107390009A42FFF417AF3046FFF798FD013412E729
:1073A000D9F800301A1DC9F800201968CDF80480FA
:1073B0003B46009510223046FFF7A4FD013402E75A
:1073C000B3683268591CB1604FF02501D154B268DE
:1073D00073689A42DFD20134F5E6304605B0BDE865
:1073E000F04FFFF773BD1A460C46002562E6002FEA
:1073F000AAD08EE7B846C7EB080B18F8012B8AB164
:10740000B1683368481CB0605A54B26873689A42D5
:10741000F1D33046FFF75AFDC7EB080B18F8012BE4
:10742000002AEDD15D457FF6CDAE202702E05D4517
:107430007FF6C8AEB2683368511CB1609F54B26821
:1074400073689A4205F1FF35F1D33046FFF73EFDF0
:10745000EDE7304603930291FFF738FD039B029955
:107460006DE7B268531CB36033682B209854B26840
:1074700073689A42FFF470AF30460291FFF726FD21
:10748000029969E7013F17F8013F002B3FF49AAEDC
:10749000B2683168501CB0608B54B26873689A420D
:1074A000F1D33046FFF712FDEDE7002F7FF459AF1F
:1074B000002D35D08D4288BF30237FF652AFB268A1
:1074C000501CB06030688354B2687068824205F125
:1074D000FF3503D225B38D42F1D842E730460393FE
:1074E0000291FFF7F3FC039B0299F3E77047002535
:1074F0002AE73046FFF7EAFC5BE63046FFF7E6FC9A
:10750000B3684CE6B268531CB36033682D209854BE
:10751000B26873689A42CBF1000BFFF41DAFABE782
:1075200000251EE7B846AFE667666666FFF76EBCE5
:107530002DE9F041B0F81080A8F104084144CF1CB7
:107540000646B7FBF8F7FFF77DFC80B3FFB20025D6
:107550000123013F0446A0F80680066005714371CF
:1075600028D0804609E06379AF4203F101036371DB
:10757000C8F80000066080461CD03046FFF762FC69
:1075800001350028EFD16679721E234603D0013001
:1075900082421B68FBD81F684EB100252368214634
:1075A000013538461C46FFF775FCAE42F6D1002087
:1075B000BDE8F0812046BDE8F08100BF0430012124
:1075C000FFF7ECBBF8B5012104460430FFF7F4FBEC
:1075D000C0B200B1F8BD6679721E234603D00130F7
:1075E00082421B68FBD81F68002EF3D00025236859
:1075F0002146013538461C46FFF74CFCAE42F6D119
:10760000F8BD00BF2DE9F843C788467907FB06F6A9
:10761000D518043EAE42044603F10400884638BF44
:10762000F51AB0FBF7F128BF154607FB110011B1A1
:1076300001392468FCD13E1AAE4228BF2E469DB1C6
:107640004FF000092044AD1B324608EB090104301D
:1076500005F05DFAAF42B14424683E464FF00000A9
:1076600028BF2E46002DEDD1BDE8F8832DE9F84363
:10767000C78890F805E007FB0EFED518AEF1040EA2
:10768000AE45044603F104008846B0FBF7F638BF68
:10769000C3EB0E0507FB160128BF154616B1013EC8
:1076A0002468FCD17E1AAE4228BF2E469DB14FF011
:1076B00000092144AD1B0431324608EB090005F0F6
:1076C00026FAAF42B14424683E464FF0000128BF7D
:1076D0002E46002DEDD1BDE8F88300BF41DF704795
:1076E000064A074B10B5002414701C60BFF35F8F6F
:1076F0000449054800F040F8204610BD495D0020CF
:107700004C5D0020D4CB0200505D002000B583B05A
:1077100002A8002300F8013DFFF7B6FAF1EE103A97
:1077200023F09F03E1EE103ABFF35F8F0A4B402234
:10773000C3F884219DF80700FFF7CEFA03F0C6F9DD
:1077400028B920BF40BF20BF03B05DF804FBFFF79E
:10775000C5FF03B05DF804FB00E100E08268002390
:10776000936082681361826853618268D360826823
:10777000536082681360704701600B6843604A6819
:10778000934204BF00234360704700BF426842B188
:1077900001688B68134443604A68934204BF002326
:1077A0004360704730B4184DA5F59472AB1ADB10E6
:1077B00003EBD3735B1002EBC30152F833309842F2
:1077C00028BF0C4605D311E052F8333098420CD252
:1077D00021468B1ADB1003EBD3735B10914202EB53
:1077E000C304F1D8094830BC70470D46984204D90B
:1077F00004F10802AA42D9D3F4E76068034B0028D9
:1078000008BF1846EFE700BFF4D00200F4D0020032
:1078100010B568B101280AD10C4C2369A07033B1AE
:107820000CCB0120226198472369002BF8D110BDB1
:10783000064CA36801226270002BF8D00CCB00200C
:10784000A2609847A368002BF8D110BD585D0020B6
:1078500068B910B5064CA3680122627033B10CCB35
:107860000020A2609847A368002BF8D110BD704794
:10787000585D002030B5012883B01CD015D30328F3
:1078800011D100F0C7F802A800231E4C00F8013DFA
:10789000FFF7FAF9E368013BE360E5685DB39DF843
:1078A0000700FFF719FA03B030BD174B0122C3F8E8
:1078B000802003B030BD02A80023124C00F8013D27
:1078C000FFF7E2F923785BB910486360A360236196
:1078D000E36000F091F803F0F9F880B10123237020
:1078E000E3689DF8070001330122E360A270FFF70F
:1078F000F3F903B030BD00F0A1F8A570CFE700F0B8
:1079000089F8EBE7585D002000E100E01178020003
:1079100070B50A4A0A4B06784568047AC06853F87D
:10792000213052F8211084B003908DF80060019549
:107930008DF808406846984704B070BD705D00201F
:107940006C5D002070B50A4A0A4B06784568846869
:10795000C06853F8213052F8211084B003908DF89C
:10796000006001958DF808406846984704B070BDE6
:10797000705D00206C5D0020F0B507460678194D5B
:107980001948DFF870E00C694B7F45F826400EF887
:10799000063040F826200C4694460FCC89B06D4640
:1079A0000FC594E80F003C781EF8044085E80F00EE
:1079B00004965CB9BCF1000F0C4A694607F10C0053
:1079C00008BF002200F0DAFD09B0F0BDBCF1000FE5
:1079D000074A694607F1040008BF002200F0FEFFD5
:1079E00009B0F0BD705D00206C5D0020457902009B
:1079F00011790200A0690020054A13790BB1852096
:107A0000704701211060537118461171704700BF13
:107A1000745D0020084B1A68D20706D40122E021C9
:107A200083F80013C3F880211A604FF080430122CD
:107A3000C3F81825704700BF00E100E0044B0122A5
:107A40001A604FF08042D2F81834DB03FBD4704741
:107A50000C00004010B5144B1A6882B062B10021CE
:107A6000124A19601B68507900934FF0804101233E
:107A7000009CC1F8083390B10D4B1A686AB100221E
:107A80001A601B6801934FF080420221074B019856
:107A9000C2F808131B680120984702B010BD116896
:107AA00053718847E8E700BF00010040745D002083
:107AB0000401004070B5224C94F8585082B015B1C2
:107AC000082002B070BD4FF0FF332946FF26042284
:107AD00004F1540023636363A363E3632364636477
:107AE000A364E36423606360A360E3602361636174
:107AF000A361E361236284F850306362A36284F877
:107B00005230E36284F8533084F8516005F00AF88B
:107B10000C4B0D4A0D4E15604021E02083F8060302
:107B2000C3F8801119601368019301994FF0004365
:107B30000122284684F85820C6F8043302B070BDEC
:107B40007C5D002000E100E07C61004000600040BE
:107B5000034B93F85800003018BF0120704700BF56
:107B60007C5D0020F0B56A4C231893F93050002D4D
:107B700001DB0820F0BD91F802E0CEF3400E944600
:107B8000BEF1000F56D02568013500F0B2800826FE
:107B900000256B1C5E4F54F82320013251D0AB1CE2
:107BA000B34245D257F8232001324AD0EB1CB342EE
:107BB0003ED257F82320013243D02B1DB34237D297
:107BC00057F8232001323CD06B1DB34230D257F816
:107BD0002370013735D0AB1DB34229D254F823208E
:107BE0004B4F01322DD0EB1DB34221D257F8232049
:107BF000013226D005F10803B34219D257F82320E9
:107C000001321ED005F10903B34211D257F82320E7
:107C1000013216D005F10A03B34209D257F8237096
:107C200001370ED00B35B54202D2E36A013307D0DB
:107C30000420F0BD256A013561D00C260825A8E78F
:107C40000B2326185DB244F823C086F83050BEF1ED
:107C5000000F02D1234483F848008B785A0715D4CB
:107C6000DE073DD5830003F1A043D3F8002722F0BF
:107C70000202C3F80027274FC60800F0070EBA5DBE
:107C8000012303FA0EF31343BB558B78C3F3400370
:107C900053B9083D2C44097894F8502042EA8112E7
:107CA00084F850201846F0BDAD0005F1804505F57B
:107CB000C0450B78D5F8102522F4473222F44072E3
:107CC000C5F810251B04000203F44032D5F8101546
:107CD00000F4F85313430B43C5F810350020F0BDF2
:107CE0004A784FF0A04600F5E073920046F8232052
:107CF000C1E70025C4F800C083F83050ADE708267E
:107D000083F830603546C4F820C03346A2E700BF90
:107D10007C5D0020D05D0020F0B42E4D2E1882B086
:107D200096F93030072B1CDD2B4493F848309B0923
:107D3000032B41D0012B14BF4FF440334FF40033D9
:107D4000800000F1A040D0F8002722F44032C0F8B3
:107D50000027D0F800271343C0F8003702B0F0BC6A
:107D60007047DAB2072AF9D8980000F1804000F590
:107D7000C04003F140029200D0F8104592B202F1E7
:107D80008042002744F0010402F5C042C0F81045CB
:107D90000197019817600029E0D096F9302055F836
:107DA0002220002ADAD001220B4902FA03F3C1F89B
:107DB000043302B0F0BC70474FF0A043D3F8103545
:107DC000C34013F0010F0CBF4FF400334FF44033A6
:107DD000B6E700BF7C5D002000600040154B034407
:107DE00093F93030072B17DCDAB2072A13D810B416
:107DF0009A0002F1804202F5C0420F4CD2F8100501
:107E0000012120F0010001FA03F3C2F81005C4F8C3
:107E100008335DF8044B7047800000F1A040D0F8B3
:107E2000003723F44033C0F80037D0F80037C0F8EB
:107E3000003770477C5D0020006000404FF0A04399
:107E4000D3F8103523FA00F000F00100704700BFAE
:107E50002DE9F04387B00026C94B01961A68012A24
:107E600000F00482C74B1A68012A00F0F181C64B6A
:107E70001A68012A00F0DE81C44B1A68012A00F05A
:107E8000CB81C34B1A68012A00F0B881C14B1A6834
:107E9000012A00F0A581C04B1A68012A00F09281E6
:107EA000BE4B1A68012A00F07F81BD4B1A68012A77
:107EB00000F0598116F0FF0F1AD0BA4F01250024A7
:107EC000A30003F180432E4203F5C0434FEA45056A
:107ED0000BD0D3F8100557F82420D3F81015C0F3B1
:107EE0000420C1F3014102B190470134082CE7D1CD
:107EF000002E02DB07B0BDE8F083AA4C00224FF051
:107F0000FF3327460292039301260DF1080894F9E6
:107F100050104D1C2DD0C9B221F0C00006AB4FEA65
:107F2000D00E03EB0E0201F0070312F80CCC06FA98
:107F300003F31CEA030F1CD03D18890995F9305052
:107F400057F82590B9F1000F00F0E880032900F000
:107F5000E8804FEA800E0EF1A04E12F8145CDEF8B5
:107F600000271D40C2F3014240F0B580032A00F013
:107F7000A281002594F95110481C2FD0C9B221F0DC
:107F8000C00006AB4FEAD00E03EB0E0201F0070370
:107F900012F80CCC06FA03F31CEA030F1ED007EB11
:107FA000000C89099CF930C057F82C90B9F1000FEA
:107FB00000F0C680032900F0C6804FEA800E0EF163
:107FC000A04E12F814CCDEF800271CEA030FC2F30F
:107FD000014240F08D80032A00F0928194F9521002
:107FE0004A1C2ED0C9B221F0C00006AB4FEAD00E19
:107FF00003EB0E0201F0070312F80CCC06FA03F3B0
:108000001CEA030F1DD007EB000C89099CF930C056
:1080100057F82C90B9F1000F00F08980032900F087
:1080200088804FEA800E0EF1A04E12F814CCDEF8D4
:1080300000271CEA030FC2F3014265D1032A00F0B6
:108040004C8194F953104B1C2CD0C9B221F0C000C4
:1080500006AB4FEAD00E03EB0E0201F0070312F855
:108060000CCC06FA03F31CEA030F1BD007EB000C41
:1080700089099CF930C057F82C90B9F1000F69D0EC
:10808000032969D04FEA800E0EF1A04E12F814CCED
:10809000DEF800271CEA030FC2F3014211D1032AC4
:1080A00000F0F080002D3FF425AF4FF0A043019A7F
:1080B000D3F8103593423FF41DAF029A0193039217
:1080C00025E7022AEED1032900F02D81B9F1000F36
:1080D000E8D0C847E6E7022A7FF44BAF032900F057
:1080E0002B810025B9F1000F3FF444AFC84741E7A9
:1080F000022A7FF473AF032900F01881B9F1000F51
:108100003FF46CAFC84769E7022A9AD1032900F00F
:108110001081B9F1000F94D0C84792E703297FF48A
:1081200028AF18F80E501D4308F80E5011E7032928
:1081300087D118F80EC04CEA030C08F80EC070E79F
:1081400003297FF44BAF18F80EC04CEA030C08F873
:108150000EC032E70329A5D118F80EC04CEA030C73
:1081600008F80EC08EE700221A601B6805934FF0D6
:10817000A043059AD3F81035019346F0004699E6DE
:108180000061004004610040086100400C61004053
:108190001061004014610040186100401C61004003
:1081A0007C6100407C5D0020654AD2F804231706FC
:1081B0007FF57BAE00221A601B680493049B46F097
:1081C000800672E65E4AD2F8042352067FF568AE56
:1081D00000221A601B680493049B46F040065FE689
:1081E000574AD2F8042391067FF555AE00221A6053
:1081F0001B680493049B46F020064CE6504AD2F8D4
:108200000423D0067FF542AE00221A601B68049357
:10821000049B46F0100639E6494AD2F804231407B5
:108220007FF52FAE00221A601B680493049B46F072
:10823000080626E6424AD2F8042355077FF51CAE0D
:1082400000221A601B680493049B46F0040613E6A0
:108250003B4AD2F8042397077FF509AE00221A6043
:108260001B680493049B46F0020600E63449D1F8EB
:10827000041311F001011CD01E601B680493049BC1
:108280001646EFE503297FF421AF4FF40033DEF803
:10829000002722F44032CEF80027DEF8002701350F
:1082A0001343EDB2CEF80037B9F1000F7FF411AFF0
:1082B000FBE60E46D6E503297FF414AF4FF40033F6
:1082C000DEF8002722F44032CEF80027DEF800273F
:1082D0001343CEF80037012504E703297FF419AFD3
:1082E0004FF40033DEF8002722F44032CEF80027A6
:1082F000DEF8002701351343EDB2CEF8003708E76A
:1083000003297FF4FBAE4FF40033DEF8002722F49C
:108310004032CEF80027DEF8002701351343EDB2D6
:10832000CEF80037EAE64FF44033B0E74FF440337D
:10833000EBE74FF44033D5E74FF44033C0E700BFDD
:1083400000600040014B1B68184700BFD85D00204B
:10835000104B984201D00020704730B583B002A87E
:10836000002300F8013D0D46FEF78EFC0A4B1C79F8
:1083700034B19DF80700FEF7AFFC112003B030BD0B
:1083800001229DF807001D601A71FEF7A5FC20462A
:1083900003B030BD00200040D85D0020034B984260
:1083A00003D1034B00221A601A717047002000406D
:1083B000D85D002030B56F4AD2F8043399058BB0F0
:1083C0005CD5D2F82431002B58D00023C2F82431D8
:1083D000D2F8243103934FF40171674B0398C2F82C
:1083E000081393F8291009B901215160614902224B
:1083F0008DF81820D1F88024C1F880249869D968B4
:1084000009920022089007919A6193E81200DA61BC
:1084100006A8A047574AD2F81C31C3B1564B186A78
:108420005969884267D293F8280000F0FF040028B9
:1084300061D1C2F81C41D2F81C11029102999C68CA
:10844000186A196A205C01311962C2F81C05494A90
:10845000D2F8443183B10021474BC2F84411D2F81D
:10846000440193F829100090009809B1012111608E
:108470009A69414B002A53D10BB030BD3D4AD2F826
:1084800004335B07C6D5D2F80831002BC2D03A4B73
:108490009969002953D00021C2F80811D2F80811B7
:1084A00004910499D868596AD2F8182542545A6A36
:1084B000996901325A62586A2F4A8842AAD1D16911
:1084C000002945D192F8292012B92A4A0121516088
:1084D000284A4FF40171C2F80813596ADA68089102
:1084E0000024012007928DF8180093E806009C6193
:1084F00006A890478EE71F4A0020C2F81C01D2F858
:108500001C210192019A0029A1D09A688DF81800C7
:1085100008915861079206A893E80600904796E7ED
:108520000022586AD9689A610122089007918DF853
:10853000182006A893E8060090470BB030BDC2F89B
:108540000811D2F8080105900598D2F81825B2E76D
:10855000D568546A1069916100230121D060D3610C
:1085600053628DF818100795089492E80A0006A83F
:1085700098474FE700200040E05D00202DE9F041E2
:10858000604E05792C2303FB056382B093F82A30F3
:108590001BB1082002B0BDE8F0810F4604465A49DD
:1085A00000689046FFF7D4FE18B1112002B0BDE874
:1085B000F0813A68511C0BD04FF0A0410123934049
:1085C000C1F808353B6803F5E073032241F8232026
:1085D0007B685A1C06D003F5E0734FF0A0420021DF
:1085E00042F823102368BA69C3F82425797D3B7DBE
:1085F00022680B43C2F86C3597E806002368C3F87D
:108600001425C3F80C153B7D012B51D02C2303FB03
:1086100005F3F218C2F804803A69F250B8F1000F7D
:1086200035D023683A7F394F0021C3F81C11D3F8A5
:108630001C3100932368DDF800E0C3F84411D3F83F
:108640004411236801910199C3F804732168090B4F
:108650004BB2002B4EDB03F1604303F56143520143
:10866000D2B283F800232268120B42F3C40323F032
:10867000604323F0030303F1604303F5614302F019
:108680001F02012101FA02F2C3F880211A602C2393
:10869000246803FB0563002204250121C4F800556A
:1086A00083F82A109A61DA6183F829205A6171E708
:1086B000BB68591C06D003F5E0734FF0A0420021BF
:1086C00042F82310FB685A1C0DD001224FF0A04144
:1086D00002FA03F3C1F80835FB6803F5E0730322DF
:1086E00041F82320FB682268B968C2F80835C2F84F
:1086F00010158BE7064B01F00F0152010B44D2B26B
:108700001A76B0E7E05D0020B58302008000020029
:10871000FCEC00E0F8B52F4D047902682C2303FB34
:10872000045300215B68C2F8001583B103682A4A2C
:10873000C3F808230368294E1B0B5AB25209203292
:1087400003F01F03012101FA03F346F82230036806
:108750004FF0FF32D3F80CE5D3F81475D3F80815B1
:10876000D3F81065C3F81425C3F80C2503689645A3
:10877000C3F80825C3F8102506D00EF5E07E4FF0AB
:10878000A043022243F82E207B1C06D007F5E07799
:108790004FF0A043022243F82720721C06D006F5B2
:1087A000E0764FF0A043022243F826204B1C06D06F
:1087B00001F5E0714FF0A043022243F82120006848
:1087C000FFF7ECFD2C2303FB0454002384F82A302C
:1087D0006360F8BDE05D00208402020000E100E07B
:1087E000F0B5304E05792C2303FB056385B05C6939
:1087F00014B1112005B0F0BD1C62996083F82840C7
:108800005A610268C2F81C41D2F81C110268029138
:108810000121029F91600268D3F808E0C2F81C4170
:10882000D2F81C1101910199D3F820C0196A5F6830
:108830001EF80CC001311962C2F81CC517B12046E0
:1088400005B0F0BD1A6A5C690168944203D819E06A
:1088500093F82820F2B9D1F81C21002AF8D0C1F8E9
:108860001C71D1F81C210392039AD3F820C01A6A14
:108870001EF80CC001321A62C1F81CC51A6AA24265
:10888000E9D30168D1F81C31002BFBD00123CB6068
:10889000002000E00F202C2303FB056300225A6117
:1088A000A8E700BFE05D002070B54A4BD3F8242153
:1088B00088B0002A55D1D3F81011F1B9454BD3F83F
:1088C000442152B10020444AC3F84401D3F8444142
:1088D00091690194019C002960D13E4BD3F820217D
:1088E0004AB100213C4AC3F82011D3F82041506915
:1088F0000094009C30BB08B070BDC3F81021D3F8C1
:1089000010113548039103998169D3F83C458C4295
:10891000D4D1C569002D50D0D3F80012C668856146
:1089200021F02001C3F800120369C261012201682D
:10893000C3608DF81840436805968DF8102004A890
:108940009847BBE7D3F84C0593688DF818008DF86D
:1089500010105161059304A892E80A00984708B0E6
:1089600070BD0021C3F82411D3F824210292022201
:108970008DF81020029AD3F88004174AC3F88004B7
:108980000790D3F83C05D3688DF818009161D16148
:1089900005931168536804A898478FE7D3F83C45BE
:1089A0008DF81840D36890610124059311685368CD
:1089B0008DF8104004A898478FE7C3680168856167
:1089C000012205938DF8184043688DF8102004A803
:1089D000984773E7002000400C5E00202DE9F0432B
:1089E0000479704EE7003B1906EB830385B093F8DA
:1089F00020301BB1082005B0BDE8F083894605464C
:108A0000694900689046FFF7A3FC18B1112005B032
:108A1000BDE8F083D9F80020511C0CD04FF0A041E4
:108A200001239340C1F80835D9F8003003F5E0730D
:108A3000032241F82320D9F804305A1C06D003F54C
:108A4000E0734FF0A042002142F823102B68D9F8C0
:108A50001820C3F8242599F8151099F814202B68CC
:108A60000A43C3F86C252A68D9F80030D9F80410F5
:108A7000C2F80C35C2F8141599F81430012B61D0E6
:108A80003A199200B318C3F80480D9F81030B350E3
:108A9000B8F1000F47D0296899F81C20DFF810E1E1
:108AA0000023C1F81031D1F8101100912968DDF8C8
:108AB00000C0C1F82031D1F8201101912968DDF8FA
:108AC00004C0C1F82431D1F8241102912968DDF8DD
:108AD00008C0C1F84431D1F844112B6803910399BF
:108AE000C3F804E32968090B4BB2002B51DB03F1F7
:108AF000604303F561435201D2B283F800232A6830
:108B0000120B42F3C40323F0604323F0030303F189
:108B1000604303F5614302F01F02012101FA02F2F2
:108B2000C3F880211A603C442A6806EB84040023C1
:108B30000125082184F82050C2F80015A361E361E3
:108B4000636158E7D9F80830591C06D003F5E07383
:108B50004FF0A042002142F82310D9F80C305A1CE3
:108B60000FD001224FF0A04102FA03F3C1F80835FB
:108B7000D9F80C3003F5E073032241F82320D9F82B
:108B80000C302A68D9F80810C2F80835C2F8101558
:108B900076E7064B01F00F0152010B44D2B21A7670
:108BA000ADE700BF0C5E0020A9880200FCEC00E0ED
:108BB00010030200F8B505792F4C0268EE00731916
:108BC00004EB830300215B68C2F8001583B10368DE
:108BD0002A4AC3F808230368294F1B0B5AB25209CB
:108BE000203203F01F03012101FA03F347F822307A
:108BF00003684FF0FF32D3F80CC5D3F814E5D3F86F
:108C00000815D3F81075C3F80C25C3F814250368AC
:108C10009445C3F80825C3F8102506D00CF5E07C70
:108C20004FF0A043022243F82C20BEF1FF3F06D0B4
:108C30000EF5E07E4FF0A043022243F82E207A1C6E
:108C400006D007F5E0774FF0A043022243F8272033
:108C50004B1C06D001F5E0714FF0A043022243F80F
:108C60002120354404EB85040068FFF797FB0023BF
:108C700084F820306360F8BD0C5E00201003020011
:108C800000E100E001F06043B3F1005F01D010208B
:108C90007047F0B50579214EEF007C1906EB84048E
:108CA00083B0636913B1112003B0F0BDA1606261AC
:108CB000D0F800E0CEF82031DEF820C1D0F800E096
:108CC000CDF804C0DDF804C0CEF85831DEF858C144
:108CD000D0F800E0CDF800C0DDF800C0CEF84415B3
:108CE000CEF8482502680121916062680AB11846F1
:108CF000DAE7036800E079B9D3F82021D3F85811F6
:108D0000002AF8D0002914BF0F2000207B1906EBA1
:108D1000830300225A61C7E70F20F7E70C5E0020AB
:108D200075DF704776DF70478FDF704710B50B4BEC
:108D30000B4A0C490446981AC0086388000440F0A6
:108D400004001A4602F05AFC6088074B214603EBE8
:108D50000010BDE8104003F081BA00BF44E60200F5
:108D60001CE6020040D10200E45E00200378062BDE
:108D700001D1406800B97047FDF726BC0D2821D10C
:108D8000F8B5114C0D4643F2020704F18006204667
:108D9000294603F0E1FB30F0080304F1100402D08F
:108DA000B84200D0F8BDA642F1D1084B08480949A5
:108DB000181AC00800042A4640F00300BDE8F84035
:108DC00002F09EBBFDF700BCE45E002044E602001A
:108DD0001CE6020080D1020070B50D78012D0C4612
:108DE00015D0022D12D11948194E0B794A8819490C
:108DF000801BC008000440F0030002F0FFFB237951
:108E00002846C3B9BDE8704002F0A0BE70BD0F4B4C
:108E10004A88114906460E48181AC008000440F056
:108E2000030002F06DFBFDF79FFB60B9304603F0D5
:108E300025FB20B970BDBDE8704002F07BBEBDE8E7
:108E40007040FDF7C1BBFDF7BFFBEFE744E6020052
:108E50001CE60200CCD1020098D1020070B56E4B26
:108E60006E4C6F491C1BE4080546240444F00306BD
:108E700082B030462A6A02F043FB2B88103B462B17
:108E80005CD8DFE803F0246C5B5B5B5B5B5B5B5B8C
:108E90005B855B5B5B8E5B9B5B5B5B5B5B5B5B5B85
:108EA0005B5B5B5B5B5B5B5B5B5B5B5B5B5B5B5B12
:108EB0005BAC5B5B5B5B5B5B5B5B5B5B5B5B5B5BB1
:108EC0005B5B5B5B5B5B5B5B5B5B5B5B5D00554963
:108ED000AA88304602F014FBA988072900F28D8089
:108EE0005148002200EB011003F0AEFB002840F0D7
:108EF0008180A9884D4B4FF4337000FB013000F0A6
:108F00003FFB112801D000287FD1012002F012FE82
:108F100002F034FF08284FF0000073D002F00AFE80
:108F20003046434A434902F0EBFA434801F0B8FBAC
:108F300008B1FDF749FB002002F0FCFD02B070BD56
:108F40003E4944F0040002F065FAA8881321FFF7B7
:108F5000E9FE0028F2D0FDF737FB02B070BD2B7A96
:108F6000AA883749304602F049FB02F007FF002883
:108F700039D030462E4A2F4902F0C2FA2E4801F06D
:108F80008FFB08B1FDF720FB002002F0D3FDD2E7F4
:108F90002B7A022BD2D144F004002A4902F03AFA8B
:108FA000CCE744F00400284902F034FA05F1080146
:108FB000A888FFF7B5FE0028C0D0CCE744F0040035
:108FC000224902F027FA0023A8888DF8043001A96D
:108FD0008DF80530FFF7A8FE0028AFD0BBE744F0BE
:108FE00004001B49AFE7FDF7D5FA88B9012002F06C
:108FF000ADFDBEE7FDF7E8FA7BE70020FDF7E4FAF8
:10900000A9886DE702F0A2FD98E7FDF7DDFA7CE79D
:10901000FDF7DAFAEAE700BF44E602001CE60200C8
:10902000FCD1020008D20200E45E00206843002068
:1090300034D102003CD20200305E002008D302008E
:1090400060D2020094D20200B4D20200DCD202004C
:10905000F0D2020000B54FF4004185B0002002F0CC
:1090600033F808B1FDF7B0FA01F0BAFFFDF714FDCF
:1090700008B1FDF7A9FA012002F074FD40F2666222
:1090800001214248FDF71CFA08B1FDF79DFAFEF7F1
:1090900027FB08B1FDF798FA01F08CFC08B1FDF749
:1090A00093FA04AC002344F8103D0120214601F05E
:1090B0005BFD08B1FDF788FA204601F011FE08B10A
:1090C000FDF782FA0021324802F0CEFE08B1FDF72A
:1090D0007BFA304800F0D2F908B1FDF775FA2E4D51
:1090E0002E4B009305F1800601E0B5420AD02846D8
:1090F000214603F025F910350028F6D0FDF764FA73
:10910000B542F4D102F032FE10220021204603F0D5
:1091100009FD01232146224A22488DF804308DF8AA
:109120000C3001F057FA08B1FDF74EFA1E4A1D48FF
:10913000002101F0FBF908B1FDF746FA00220121F8
:10914000184801F033FA08B1FDF73EFA174B184CF6
:1091500018491C1BE408240444F00304204602F0D0
:1091600059F92046104A144902F0CAF90D4801F095
:1091700097FA08B1FDF728FA002002F0DBFC02F0B4
:1091800001F80028FBD1FEF7C1FAF8E7C859002022
:10919000985E00202D8D0200E45E0020D98D020033
:1091A0006D8D0200305E002034D1020044E60200E2
:1091B0001CE6020020D302003CD20200032801D9A1
:1091C00007207047012A12D0012917D008D302299D
:1091D000F6D10D4B00EB4000034400205A7070475D
:1091E000094B00EB4000034400209A7070470129AE
:1091F00001D00022E8E700F10E02D2B200EB4003FA
:1092000001490020CA547047645F002010B50388EC
:10921000102B08D0112B05D1264B18680138186087
:1092200038B110BD10BD234C216881B101312160DE
:1092300010BD01220221FFF7C1FF48B3072827D044
:109240001D4B1B68002BECD0BDE8104018470122D5
:109250000846FFF7B3FF48B1072807D0164B1B6835
:1092600003B1984721680131216010BD0722022116
:109270000120FFF7A3FF08B10728EFD10422022144
:109280000020FFF79BFF0028ECD00728E6D1E9E794
:10929000072202210120FFF791FF08B10728CFD153
:1092A000002108460A22FFF789FF0028B9D00728C5
:1092B000C6D110BD745F0020705F00209BDF704737
:1092C0009DDF70479EDF7047F0B5364B1E6890F803
:1092D000C632A1B066B3C3EB0315C3EB85035D00D3
:1092E0004419314BA4789F78A74223D0012E1FD96F
:1092F0009F79DFF8B4E0A7424ED0022E18D09F7AB3
:10930000DFF8A4E0A74241D0032E11D09F7BDFF805
:1093100098E0A74234D0042E0AD09F7CDFF888E082
:10932000A74227D0052E03D09B7D1F4EA3421BD002
:1093300021B0F0BDB3F800E0475BBE45D6D11B4B72
:109340001E68002EF4D015460C467C22002101A890
:1093500003F0E8FB012301A8ADF8065002948DF854
:109360000430B04721B0F0BDB48A435B9C42E6D0E4
:1093700021B0F0BDBEF810E0475BBE45D2D1DEE7BC
:10938000BEF80CE0475BBE45C5D1D8E7BEF808E0A3
:10939000475BBE45B8D1D2E7BEF804E0475BBE45A7
:1093A000ABD1CCE79C62002080620020785F002077
:1093B0002DE9F04390F8C64290F8C532C4EB041E84
:1093C000C4EB8E0E00EB4E0E4FF0760C0CFB04FC43
:1093D0009EF8047003EBC3040CEB44045E1C0444CD
:1093E000BE4283B004F10A053CD0BB4238BF07F14E
:1093F000FF382DD25E1C06EBC6040CEB44049845E6
:1094000000EB04092B8912D0B9F810500133AB429C
:1094100017D0013DADF80650ADF8043000230B70B5
:10942000104601A9FFF74EFF03B0BDE8F083BEF878
:109430000840A34212D00133ADF80430ADF8064025
:10944000ECE709F10A05F3B29F4280F8C532D1D8A2
:10945000012300200B7003B0BDE8F083002508F164
:109460000106F0E72B89BEF808008342F0D00133F3
:10947000ADF80430ADF80600D0E700BF68B170B4B5
:109480000749084A084E094D1060012400230C705A
:1094900033602B60184670BC70470E231846704727
:1094A00098620020785F00209C6200207C6200208F
:1094B00020B12F4B1B781BB9082070470E20704736
:1094C00070B42C4C2C4B2268002A46D081789D78B1
:1094D0008D4220D0012A49D99D79274E8D4237D01F
:1094E000022A43D09D7A244E8D422CD0032A3DD0AF
:1094F0009D7B214E8D4221D0042A37D09D7C1E4E6B
:109500008D4216D0052A31D09D7D1B4E8D420BD049
:10951000042070BC70471E880588AE42DAD1174916
:10952000096809B30020F4E7B58A01888D42EFD1BC
:10953000F5E7368A0588AE42E4D1F0E7B6890588BA
:10954000AE42D9D1EBE736890588AE42CED1E6E707
:10955000B6880588AE42C3D1E1E70121006843F82F
:10956000220021600020D4E7052AD1D8511CF5E75C
:10957000986200209C62002080620020785F0020BA
:1095800050B1244A12780AB908207047F8B5224B26
:109590001B681BB90820F8BD0E20704790F8C76201
:1095A00004460EB11120F8BD0D464FF4337231461A
:1095B00003F0B8FA19491A4B1A4A08682060981A39
:1095C000C008194F22881949A4F8CA52000440F073
:1095D00004002B4684F8C96284F8C66284F8C56228
:1095E0003E6002F00BF8224628460121FFF766FE96
:1095F000112807D00028D6D1012384F8C80284F8A6
:10960000C732F8BD012384F8C73284F8C832304627
:10961000F8BD00BF986200209C620020806200209C
:109620004CE602001CE602007C6200203CD30200F3
:1096300090B389B3B54B1B7873B32DE9F04F038812
:10964000113BA5B005460C46222B00F21781DFE83E
:1096500013F0DF01150115011501150115011501A3
:10966000150115011501150115011501150115014A
:10967000150115011501150115011501150115013A
:10968000150115011501150115011501150115012A
:1096900061011501510126017047C38891F8C66226
:1096A000002B40F0E782C6EB0613C6EB83035B009A
:1096B000CF18817A97F804804144062900F3868404
:1096C000C9B23971B6468845434680F0A6802A461D
:1096D000762008EBC80100FB06F052F80C9F00EB67
:1096E00041012144D2F80480C1F80E80C1F80A90EB
:1096F00012894A8200228A82CA820A834A8339797D
:1097000003F1010C8C4580F006840CEBCC01AC46D7
:1097100000EB41015CF816AF2144DCF80490C1F87D
:109720000E90C1F80AA0BCF808C0A1F812C08A8245
:10973000CA820A834A83397903F1020C8C4580F08E
:10974000EA830CEBCC01AC4600EB41015CF820AFA6
:109750002144DCF80490C1F80E90C1F80AA0BCF8CE
:1097600008C0A1F812C08A82CA820A834A83397962
:1097700003F1030C8C4580F0CE830CEBCC01AC469E
:1097800000EB41015CF82AAF2144DCF80490C1F8F9
:109790000E90C1F80AA0BCF808C0A1F812C08A82D5
:1097A000CA820A834A83397903F1040C8C4580F01C
:1097B000B2830CEBCC01AC4600EB41015CF834AF5A
:1097C0002144DCF80490C1F80E90C1F80AA0BCF85E
:1097D00008C0A1F812C08A82CA820A834A833979F2
:1097E00003F1050C8C4580F096830CEBCC01AC4664
:1097F00000EB41015CF83E9F2144DCF80480C1F895
:109800000E80C1F80A90BCF808C0A1F812C08A8284
:10981000CA820A834A83397906337620013B00FBEA
:1098200006F203EBC30302EB430300FB0EFE2344EB
:1098300004EB0E025B8A1789BB4280F01B8206296B
:1098400000F0188284F8C512A888002940F0EF843F
:10985000D388ADF8143005A9ADF81670FFF730FDC8
:1098600060B1002384F8C7320146AA882046FFF77A
:109870002BFD274BAA885A8003221A7094F8C8320D
:1098800053B12B88303B9BB21F2B05D8AD88B4F861
:10989000CA329D4200F05C8125B0BDE8F08F82881D
:1098A000B1F8CA329A42E9D1C18894F8C66294F8F4
:1098B000C5E2002940F0CD804389002B00F0C9802B
:1098C000762303FB06F30EEBCE0003EB40002044AF
:1098D0002A46D389A3F52453082B00F23781DFE809
:1098E00013F033012F012C0135013501350135010C
:1098F0003501A7008288B1F8CA329A423FF4CDAE52
:10990000154694F8C822002AC3D1C5E79862002002
:109910007C5F00208288B1F8CA329A42F0D1C388B5
:1099200091F8C662002B40F04982BB4ABB48BC4953
:10993000C6EB0613C6EB8306101A7600C0080004B7
:10994000A25B40F0040001F0DBFDEB68A35126446C
:109950002B69C6F8063094F8C532A88894F8C62258
:10996000002B40F01F83762303FB0243DB88ADF816
:109970001430762303FB024305A91B89ADF816308A
:10998000FFF79EFC804600283FF478AFA54B94F883
:10999000C6221B68002184F8C712AF8893B3C2EBBC
:1099A0000211C2EB8102510062189F4E9278B0788A
:1099B000904200F04984012B24D9B079DFF868E2A5
:1099C000904200F06084022B1CD0B07ADFF858E29D
:1099D000904200F05084032B14D0B07BDFF848E2B3
:1099E000904200F04084042B0CD0B07CDFF838E2C9
:1099F000904200F03084052B04D0B37D8A48934216
:109A000000F01E813B46894A03215380117035E7DF
:109A10008288B1F8CA329A427FF43EAF00234FF6F3
:109A2000FF7281F8C73281F8C832A1F8CA2233E741
:109A30009789838A47832BB1C38A1BB1038B0BB1F0
:109A4000438B33B96B890131994202F10602FFF46D
:109A500040AFC6EB0613C6EB83067600A2190EF1E3
:109A600001031279002793428DF8137040F0418270
:109A700001238DF813306848684FDFF8A8916C49CE
:109A8000A25BAB88C7EB00084FEAD8084FEA08484A
:109A900048F00408404601F0B1FDD9F80070B5F86F
:109AA00004E094F8C612002F00F0F583C1EB011317
:109AB000C1EB83035B00E2185B4E9278B078904272
:109AC00000F08A83012F40F2ED83B079DFF858C1AE
:109AD000904200F09683022F1CD0B07ADFF848C184
:109AE000904200F08083032F14D0B07BDFF838C1A0
:109AF000904200F06A83042F0CD0B07CDFF828C1BC
:109B0000904200F07783052F04D0B07DDFF818C1B4
:109B100090424ED0F14694F8C9320133DBB2BB42D9
:109B200084F8C932C0F0F981404B03210022A3F828
:109B30000290197084F8C722A0E6938983827AE79D
:109B400093890383838A76E79389C382838A72E742
:109B50004FF433720021204602F0E4FF32492E4BCD
:109B60002E4A08682060981AC0080026314F2288C3
:109B70003149A4F8CA52000440F004002B4684F88E
:109B8000C96284F8C66284F8C5623E6001F036FDA1
:109B9000224628460121FFF791FB112800F0108290
:109BA00000287FF479AE012384F8C80284F8C73214
:109BB00072E6BCF81420E35A9A42ABD11F4B1B68E3
:109BC0000393002BA6D01B4B0093D3F800A0BAF14F
:109BD000050F9FD8154801904FEACA1300EB030BFD
:109BE000762202FB01410BF10400ABF802E0029384
:109BF00002F08DFF039BCBF87C30009B01980AF1AB
:109C000001011960029B0022B942C25400F0008396
:109C1000B5F804907FE700BF4CE602001CE60200A6
:109C200084D302009C620020806200207C5F0020C0
:109C300064D402007C6200203CD30200785F0020E4
:109C4000828A635A9A427FF4DDAECC4B1E68002EA6
:109C50003FF4D8AE7C22002105A802F063FF012367
:109C60008DF81430ADF81670CDF8188005A8B047FF
:109C7000AB88C8E6002784F8C572AA880DF11301E5
:109C80002046FFF795FB0346002840F03C829DF8F4
:109C90001330002B3FF4F2ADB949BA4ADFF8009314
:109CA000AB88521AD2087621120401FB06F642F064
:109CB000040BB549A25B584601F0A0FCD9F800306E
:109CC000B5F804E094F8C612002B00F0FA83C1EB5B
:109CD0000112C1EB82025200A018AC4E8078B77816
:109CE000874200F00583012B40F2F283B779DFF859
:109CF0009CC2874200F01283022B1CD0B77ADFF897
:109D00008CC2874200F01883032B14D0B77BDFF896
:109D10007CC2874200F00983042B0CD0B77CDFF8AB
:109D20006CC2874200F00F83052B04D0B77DDFF8AB
:109D30005CC2874211D0774694F8C9220132D2B270
:109D40009A4284F8C922C0F00583914B0321002276
:109D50005F80197084F8C72290E5BCF81400A25AFD
:109D60009042E8D1854A12680292002AE3D0894ADB
:109D70000092D2F80080B8F1050FDCD88448019039
:109D80004FEAC81700EB070A762202FB01410AF1ED
:109D90000400AAF802E0039302F0B9FE029BCAF89D
:109DA0007C30009B019808F101011960039B00229F
:109DB0009942C25500F05683AF88BDE7714B704A97
:109DC000DFF8DC917449C2EB03084FEAD808762328
:109DD00003FB06F64FEA084848F004084046A25B39
:109DE00001F08EFBD9F80070B5F804E094F8C612C3
:109DF000002F00F05082C1EB0113C1EB83035B0025
:109E0000E218624E9278B078904200F01981012FEA
:109E100040F24882B079DFF874C1904200F00881C6
:109E2000022F3FF477AEB07ADFF860C1904200F0C5
:109E3000F780032F3FF46EAEB07BDFF850C1904245
:109E400000F0E680042F3FF465AEB07CDFF83CC143
:109E5000904200F0D580052F3FF45CAEB07DDFF876
:109E60002CC190427FF456AEBCF81420E35A9A42BB
:109E70007FF450AE414B1B680393002B3FF44AAE76
:109E8000444B0093D3F800A0BAF1050F3FF642AE61
:109E90003F4801904FEACA1300EB030B762202FB06
:109EA00001410BF10400ABF802E0029302F02FFE37
:109EB000039BCBF87C30009B01980AF101021A60E9
:109EC000029B0221BA42C1547FF4A2AE82464FF0F7
:109ED000000BDAF87C3050469847D9F800700BF147
:109EE000010BBB450AF1800AF3D3009A00231360EB
:109EF0008EE684F8C532AA880DF113012046FFF7DB
:109F000057FA8046002840F0A2809DF81330002BBD
:109F10003FF4B4ACAFE563467FE494F8C6721F49E2
:109F20000137FFB2C7EB0713C7EB83035B0056F89B
:109F3000270084F8C672E218002684F8C562E05053
:109F40001671E25A40464B4601F058FB762202FB5E
:109F5000074201214846FFF7B1F900283FF48EACD3
:109F600001464A4684F8C7622046FFF7ADF9084B20
:109F70000322A3F802901A7080E400BF785F0020EB
:109F80001CE602004CE6020064D40200806200205D
:109F90007C5F00207C620020A0D302003CD3020042
:109FA0009C620020013BDBB2762103EBC30301FB83
:109FB00002F101EB430323445B8A01339BB2D6E4F5
:109FC000012384F8C73284F8C83265E4CC4ACD480E
:109FD000CD49C0EB02094FEAD90906224FEA0949E7
:109FE00049F002093A714846E25A01F089FAC74934
:109FF000484601F00FFA94F8C6E23979FFF763BBDF
:10A00000BCF8100034F803C084457FF424AF31E776
:10A01000BCF80C0034F803C084457FF413AF29E783
:10A02000BCF8080034F803C084457FF402AF21E790
:10A03000BCF8040034F803C084457FF4F1AE19E79E
:10A0400034F803C0308884457FF4E1AE12E7B04BAA
:10A0500084F8C7721A68AF8894F8C632002A3FF4B1
:10A06000D1ACC3EB0311C3EB81035B00E118A94E34
:10A070008978B078884200F03481012A7FF6C2AC3A
:10A08000B079DFF890E2884200F02481022A3FF4A0
:10A09000B9ACB07ADFF87CE2884200F01481032A80
:10A0A0003FF4B0ACB07BDFF86CE2884200F0048192
:10A0B000042A3FF4A7ACB07CDFF858E2884200F0F5
:10A0C000F480052A3FF49EACB27D92488A427FF428
:10A0D00099AC828AE35A9A427FF494AC8E4B1E6804
:10A0E000002E3FF48FAC7C22002105A802F01AFD5F
:10A0F00001238DF8143005A8ADF81670CDF818803E
:10A10000B047AB887FE4824A84F8C7721068AF8892
:10A1100094F8C62200283FF475ACC2EB0211C2EBE2
:10A1200081025200A1187B4E897896F802E08E4594
:10A1300000F0888101287FF665AC96F806E0DFF82C
:10A14000D4C18E4500F0768102283FF45BAC96F8CE
:10A150000AE0DFF8C0C18E4500F0648103283FF4B7
:10A1600051AC96F80EE0DFF8ACC18E4500F052819C
:10A1700004283FF447AC96F812E0DFF898C18E450A
:10A1800000F0688105283FF43DACB07D614E884207
:10A190007FF438ACB18AA25A91427FF433AC5E4A64
:10A1A00000931668002E3FF42DAC7C22002105A8F8
:10A1B00002F0B8FC009B0693012205A8ADF81670CA
:10A1C0008DF81420B047AB881DE4BCF80CC0E05AF1
:10A1D00084457FF490ACF1E4B6F800C0E05A8445C1
:10A1E0007FF470ACEAE4BCF808C0E05A84457FF420
:10A1F0007AACE3E4BCF810C0E05A84457FF483AC49
:10A20000DCE4BCF804C0E05A84457FF464ACD5E4D7
:10A2100082469346DAF87C3050469847D9F8007069
:10A220000BF1010BBB450AF1800AF3D35DE64B1E2F
:10A23000DBB203EBC3030EEB430E04EB0E035B8AAE
:10A2400001339BB2FFF705BB34F801E03088864547
:10A250007FF4B1ABF9E4BEF8100034F801E08645B4
:10A260007FF4C9ABF1E4BEF80C0034F801E0864598
:10A270007FF4B9ABE9E4BEF8080034F801E08645A4
:10A280007FF4A9ABE1E4BEF8040034F801E08645B0
:10A290007FF499ABD9E494F8C9320133F14684F8DC
:10A2A000C93241E4F146012735E4BEF810E0E05A36
:10A2B00086457FF406AF11E7BEF80CE0E05A86450C
:10A2C0007FF4F6AE0AE7BEF808E0E05A86457FF470
:10A2D000E6AE03E7BEF804E0E05A86457FF4D6AE6A
:10A2E000FCE6B6F800E0E05A86457FF4C6AEF5E637
:10A2F000B6F800C0A75ABC457FF4F5AC32E500BF04
:10A300004CE602001CE60200C0D3020008D40200A2
:10A310009C62002080620020785F0020BCF804C0AE
:10A32000A75ABC457FF4E8AC1CE5BCF80CC0A75AA2
:10A33000BC457FF4F1AC15E5BCF808C0A75ABC4594
:10A340007FF4E2AC0EE5BCF810C0A75ABC457FF420
:10A35000EBAC07E594F8C6826D4908F101085FFA95
:10A3600088F84FF0760A18FB0AF34FF0000284F8E1
:10A37000C52256F8280084F8C682E218E0504FF053
:10A38000000E82F804E0E25A58463B4601F036F9E6
:10A390000AFB084201213846FEF790FF804600285C
:10A3A0003FF46CAAD9F800204FF0000384F8C732BC
:10A3B00094F8C63242B313FB0AFA04EB0A03554978
:10A3C0009B788978994200F09A80012A1CD9B0794B
:10A3D0005049984200F08C80022A15D0B07A4D493D
:10A3E00098427ED0032A0FD0B07B4A49984272D05F
:10A3F000042A09D0B07C474998425CD0052A03D092
:10A40000B17D444A99423ED0434B03225F801A708B
:10A41000FFF734BABCF80CC034F802E0F4457FF41E
:10A42000A7AEBCE6BCF808E034F802C0F4457FF4FF
:10A4300095AEB4E6BCF804E034F802C0F4457FF40D
:10A4400083AEACE634F802C0B6F800E0F4457FF421
:10A4500071AEA4E6BCF810E034F802C0F4457FF415
:10A4600091AE9CE6019F9046FB6F38469847D9F81D
:10A47000003008F10108984507F18007F4D30099EE
:10A4800000220A6098E4928A34F80A309A42BBD1DA
:10A49000224B1E68002EB7D005A87C22002102F0B6
:10A4A00041FB012305A8ADF81670CDF818808DF892
:10A4B0001430B047A8E7088A34F80A1088429DD1C2
:10A4C000E6E794F8C9320133774684F8C9323CE4B0
:10A4D0007746012330E4898934F80A00884287D11D
:10A4E000D6E7088934F80A1088427FF47BAFCFE7BB
:10A4F000888834F80A1088427FF46EAFC8E70549AF
:10A50000088834F80A1088427FF45FAFC0E700BFC4
:10A510003CD30200806200207C5F0020785F002036
:10A520008ADF70478BDF70478CDF704718B112B13C
:10A5300019B1072070470E20704770B504461046C9
:10A54000154602F001FB0138C0B21F2801D90C20CA
:10A5500070BD94F820600EB1042070BD29462046DD
:10A5600002F0E8FA0028F8D094F820305A1C84F859
:10A570002020284604EB431402F0E6FA294602465E
:10A58000204602F0C4FA064B06480749181AC008CC
:10A5900000042A4640F0040000F0B2FF304670BDCF
:10A5A0005CE602001CE60200C8D4020078B1CB06CB
:10A5B00001D10720704711F0010116BF012380F877
:10A5C000211080F8213080F82220002070470E20D2
:10A5D000704700BF58B3F8B50D46C263002123226F
:10A5E000044602F09FFA25B32B7984F823302B7BA5
:10A5F00084F82C302B68002B3ED01E685868996870
:10A60000C4F83610C4F82E60C4F832009B89638702
:10A61000AB685BB31868596804F1240303C304F101
:10A6200040021F232266A4F864300020F8BD0E20EB
:10A63000704794F82E30A58643F0040365F3C403F5
:10A640004FF0A00E502701264FF4C87006211822A3
:10A65000258584F8235084F82E30A4F830E06786EE
:10A6600084F82F606085A184E284D8E70B4B636295
:10A670004FF0C873A362D2E794F82E20A38642F06D
:10A68000040263F3C402A0205021012384F82E2089
:10A690002086618684F82F30BAE700BF06001800D4
:10A6A00010B586B058B304461422002101A802F068
:10A6B00039FAFFF737FF94F82E301B0716D404F150
:10A6C000600104F12E00FFF72BFF024632F0080470
:10A6D000124B134817D1181AC0080004114940F052
:10A6E000040000F097FE204606B010BDE36B002B7F
:10A6F000E5D0012201A88DF804209847DFE70E2459
:10A70000204606B010BD181AC0080004064940F0E3
:10A710000100144600F0F4FEE5E700BF5CE602002D
:10A720001CE6020008D50200E4D402002DE9F04F37
:10A730000388103B8BB004460D4600F10807102B30
:10A7400045D8DFE803F0C34444444444444444440B
:10A7500044A3445F4444470095F8233000218DF81A
:10A760000010002B00F0908095F82C60FFF7DAFEC7
:10A77000142205A802F0D6F9334605F12402514609
:10A7800004F10A00FFF7D0FE844C854B85491C1B61
:10A79000E408240444F004040646204600F03AFE8F
:10A7A00006232046324680498DF81430069600F084
:10A7B000A7FEEB6B1EB12BB105A89847EB6B0BB155
:10A7C0006846984705F160010020FFF7A9FE0BB02D
:10A7D000BDE8F08F142205A8002102F0A3F9EA6B6E
:10A7E000002AF4D0386879683C7A06AB03C32E356A
:10A7F000052109951C7005A88DF8141090470BB021
:10A80000BDE8F08F68461422002102F08BF995F81C
:10A810002E3005F12E0A1B07CDF810A06DD495F847
:10A82000213095F822B0002B00F0A58095F820305B
:10A83000B4F82490002B00F0A88003F1FF385FFAF1
:10A8400088F808F1010805EB48182E4602E0B045EB
:10A8500000F09B8032464946206A01F0B1F920366B
:10A860000028F4D09DF80830019743F001038DF8DB
:10A870000830BBF1000F7FF46FAF95F823308DF8EF
:10A8800000B0002B40F08380EB6B98E705A8142202
:10A89000002102F047F9237A012B98D1404B3F4821
:10A8A0004249181AC008000440F0040000F0B2FD4C
:10A8B000EB6B002B8BD02E35217A099504228DF875
:10A8C000181005A88DF81420984780E7142205A8D1
:10A8D000002102F027F9EB6BA288ADF81C202E3581
:10A8E000072206978DF814200995002B3FF46FAFCF
:10A8F00005A898470BB0BDE8F08F022368468DF895
:10A9000000300197EB6B984705F160010020FFF7DD
:10A9100007FE95F82330002B3FF459AF95F82C60D3
:10A92000FFF700FE1422002105A802F0FBF83346D1
:10A9300005F12402514604F10A00FFF7F5FD174C1A
:10A94000174B18491C1BE408240444F00404064671
:10A95000204600F05FFD0623204632461249069647
:10A960008DF8143000F0CCFD002E3FF430AFEB6BCF
:10A97000002BBDD12BE70197BBF1000F7FF4ECAEAC
:10A980000322EB6B8DF8002019E70197F8E795F8A3
:10A990002C60FFF7C7FD5946EAE600BF1CE602003F
:10A9A0005CE6020048D5020054D502006CD50200D6
:10A9B00010DF704770B53C4D2B7884B013B1082080
:10A9C00004B070BD394E3A49012302A83370FCF738
:10A9D000D3FE039B5BB11A6859680020904700289A
:10A9E000EED002A8FCF7D2FE039B002BF3D1314935
:10A9F00002A8FCF7C1FE039B4BB11A6859680020FE
:10AA0000904702A8FCF7C2FE039B002BF5D12A4B0E
:10AA100018680190002302A88DF80830FCF734F97B
:10AA200001A82649FFF7C4FFB0FA80F304465B098A
:10AA30009DF808002B70FCF74FF90CB12046BFE7DA
:10AA40001F4B20493470E0220C7083F8162383F8E2
:10AA5000152393F81623EC21520941FA02F2D2078A
:10AA600017D5194A9168C9B94FF480021A60114983
:10AA700002A8FCF781FE039B4BB11A6859680120BC
:10AA8000904702A8FCF782FE039B002BF5D1002023
:10AA900096E742F20200FBF797FDE8E7136843F4FC
:10AAA00080031360E3E700BFA0620020A1620020E2
:10AAB00094D50200A0D5020090D50200E9650200FD
:10AAC00000E100E0A262002094690020014B1878A8
:10AAD000704700BFA062002000B583B068460849F7
:10AAE000FCF74AFE019B43B158681A6890476846D4
:10AAF000FCF74CFE019B002BF6D103B05DF804FB84
:10AB0000B4D5020060DF704769DF704761DF7047CE
:10AB1000134B1B7813B310B5342490B00DF1020120
:10AB200003A8ADF80240FFF7F1FF88B90D4901A86D
:10AB3000FCF722FE029B002BF0D01A68596803A88C
:10AB4000904701A8FCF722FE029B002BF5D1E5E718
:10AB5000052801D0FBF738FD10B010BD704700BFCD
:10AB6000A3620020C0D5020000297DD070B5544BEF
:10AB70000B6084B00C4605460C22002101A801F0B0
:10AB8000D1FF0826062301A922688DF80450202051
:10AB90008DF80660ADF80830FFF7B6FF002865D1E4
:10ABA0000C22002101A801F0BDFF0021082501238E
:10ABB0008DF8051022688DF8065001A940208DF807
:10ABC0000730FFF7A1FF002830D10C22002101A897
:10ABD00001F0A8FF0123184622688DF8043001A96E
:10ABE000FFF792FF00285DD10C22002101A801F09F
:10ABF00099FF4FF4B0632268019301A9A120FFF7E8
:10AC000083FF002840D10C22002101A801F08AFF17
:10AC10009DF8043022686FF3000301A9A0208DF88D
:10AC20000430FFF771FF78B904B070BDFCF7BAFDCE
:10AC3000244A254B25499B1ADB081B04024643F096
:10AC4000010000F05DFCC0E7FCF7ACFD1D4A1E4BA7
:10AC50001F499B1ADB081B04024643F0010000F069
:10AC60004FFC002004B070BD0E207047FCF79AFD29
:10AC7000144A154B17499B1ADB081B04024643F084
:10AC8000010000F03DFC8BE7FCF78CFD0D4A0E4BFC
:10AC900011499B1ADB081B04024643F0010000F037
:10ACA0002FFCB0E7FCF77EFD064A074B0B499B1AC9
:10ACB000DB081B04024643F0010000F021FC93E78F
:10ACC000684300201CE602007CE6020014D6020065
:10ACD00000D70200CCD50200ACD6020060D602003C
:10ACE000F8B504460768FFF70DFF23689F42064644
:10ACF00005D326BB1A4B01221A703046F8BD194BFA
:10AD0000194D1A495D1BED082D0445F00205284632
:10AD100000F080FB3A4628462368154900F06EFC97
:10AD20004FF080532268D3F80C3112499B0203F193
:10AD3000005328469A1A00F0E3FB002EDAD0304682
:10AD4000FCF730FD084A074B0B499B1ADB081B0434
:10AD5000024643F0010000F0D3FB3046F8BD00BFCF
:10AD6000A36200207CE602001CE6020054D7020029
:10AD700084D70200B8D70200E4D702004BDF704747
:10AD800000B585B001A8FFF7F9FFA8B90E4902A8E0
:10AD9000FCF7F2FC039B002BF4D01A685968019869
:10ADA000904702A8FCF7F2FC039B002BF5D101A809
:10ADB000FFF7E4FF0028E9D0052801D0FBF704FCE9
:10ADC00005B05DF804FB00BF10D80200F0B595B0E7
:10ADD000002415460F4608461E46FCF7EFFB384692
:10ADE00023460822089505A91A9D0D9509960A94EF
:10ADF0008DF82C400C94FCF739FC9DF81430079D1D
:10AE0000BDF81800BDF81A108DF8114003F00302C8
:10AE1000012A0295ADF80C00ADF80E1028D0022AD8
:10AE200004D03846FCF7CEFB15B0F0BDBDF8165087
:10AE3000C3F3C2038DF81030C5F389150826082D19
:10AE40002C4628BF0824334622460EA93846FCF774
:10AE50000DFC2D1B214608AB02AA0EA8264400F0CB
:10AE6000C5FD002DEBD13846FCF7ACFB15B0F0BDAD
:10AE7000BDF81460059DC6F38316C3F3C204B20087
:10AE80000EA9384608238DF81040C5F39525FCF728
:10AE9000EDFB08AB0093324628460EA902AB00F04A
:10AEA000FFFCBEE7014B01221A707047A46200202C
:10AEB000704700BF00B583B0044B0093044A4023A1
:10AEC000FFF784FF03B05DF804FB00BFD5AE0200BE
:10AED000A862002038B50E480E4D03780E4CEB5C8E
:10AEE00000252570D2B263B90C30FDF779FC08B1AA
:10AEF000FBF76AFB094B1B7813B12378002BFCD0BE
:10AF000038BD0430FDF7BEFE0028F1D1F2E700BFE6
:10AF1000D0590020A0690020A4620020A562002072
:10AF200030B51648164A0378D35C89B00BBB0C3099
:10AF3000FDF7F0FB134D0FCD6C460FC495E80F00E5
:10AF4000062584E80F004FF0FF334FF0EB7400222A
:10AF500069460A4800950193029303930694FCF70F
:10AF60000BFD08B1FBF730FB074B00221A7009B04C
:10AF700030BD0430FDF71EFEDCE700BFD0590020D5
:10AF8000A069002028D80200A562002030B5104D2D
:10AF90000FCD89B06C460FC495E80F00062584E8F4
:10AFA0000F004FF0FF334FF0EB740A4A0A48009548
:10AFB00069460193029303930694FCF7DDFC08B104
:10AFC000FBF702FB054B01221A7009B030BD00BF30
:10AFD00028D80200A5AE0200D0590020A5620020AA
:10AFE00008B5FFF7D3FF0421034800F011FC034B21
:10AFF00001225A7108BD00BFC8E60200E4590020D2
:10B0000070B5304C84B004F58360FBF7E3FE04F2C6
:10B010001440FBF7DFFE6268A66802EA0605AB1C77
:10B0200004EB8301081D097911F0040117D003789E
:10B0300003F00303012B37D0022B0DD14388C3F358
:10B04000891302331A4406EA0205AB1C04EB83039E
:10B05000181D197901F004010029E8D1AB1C04EB9B
:10B060008303511C58680190314004EB810300F0C8
:10B070000300DB680293012802F102041AD00228BF
:10B0800016D1BDF80630BDF80A50C3F38913033357
:10B0900004EB93040B4E06F21440FBF7A9FE00B13B
:10B0A0007460284604B070BD0388C3F38313C8E7F7
:10B0B0000025EFE7BDF80430BDF80A50C3F3831351
:10B0C0001C44E7E7E86200200B4B0C4810B5002257
:10B0D000FF21C3F8182499601A605A60C3F8142439
:10B0E00083F82024FCF722FA044610B90448FCF740
:10B0F00035FB204610BD00BFE86200209CE6020040
:10B1000080D8020021B9114B03EBC00000687047E2
:10B1100030B40F4A0D4C121BD2080CD00D4D2B88A9
:10B12000834210D0002303E035F82310814205D07C
:10B1300001339A42F8D1002030BC704704EBC300C1
:10B14000006830BC70472046FAE700BF1CE60200EA
:10B150009CE60200CC5B0020094B013903EBC000E8
:10B1600003290BD8DFE801F002080604022070472B
:10B17000407970470079704704207047002070477D
:10B180001CE602002DE9F04F9D4C626823689A424C
:10B1900085B000F0CC800023C4F81834BFF34F8F83
:10B1A0006268A56802EA0503023304EB83010E1D01
:10B1B000097948071FD5D4F800E02746337803F013
:10B1C0000303012B48D0022B04D17388C3F38913E6
:10B1D00002331A4405EA02030233D4F81804DFF8F4
:10B1E00020C207EB83010E1D00283BD196453DD9B7
:10B1F00009794907E2D404EB8303511C5868019094
:10B20000294004EB810300F00300DB68029302286D
:10B2100002F102087A4F2ED0012800F08C80D4F879
:10B2200010543DB12B6828469B689847EB681D6811
:10B23000002DF7D1734B74487449181AC0080004E4
:10B2400040F0020000F0E6F894E80900181A18BF70
:10B25000012005B0BDE8F08F3388C3F383130233B8
:10B260001A44B7E705EA02030233C4E7CCF804E066
:10B2700005B0BDE8F08FBDF806306548C3F3891905
:10B28000B9F1500FCA46A8BF4FF0500A6AF38F13A6
:10B290000AF10801ADF80630FCF74AF90646002825
:10B2A000BDD025EA080B0BF1010BFCF787F94FEA3B
:10B2B0008B0B0023082201A93046FCF7A3F9DA45DD
:10B2C00076D9BBF1000F40F08280524607F10C01A5
:10B2D00008233046FCF796F909F1030708EB9707B6
:10B2E000D4F81834464A002B6DD1D2F810545DB111
:10B2F000EB685A79314628461AB12B681B68984783
:10B30000EB681D68002DF3D13046FCF75BF904A80B
:10B31000002300F80D3DFBF7B7FCD4F81834384A89
:10B3200003B957609DF80300FBF7D6FC8CE70020BB
:10B3300005B0BDE8F08FBDF804303548C3F3831283
:10B34000062A28BF0622911C62F389138900ADF8F2
:10B350000430FCF7EDF8064600283FF460AFFCF738
:10B360002DF90023082201A93046FCF74BF9BDF85E
:10B37000043013F4707F40D04FF0000A4FF00809FA
:10B3800008EA050104EB81014B460C3104223046EA
:10B39000FCF738F9BDF804300AF1010AC3F383134E
:10B3A00008F10107534509F10409B846E8D897E7C1
:10B3B00005EA080107EB81010C31524608233046AB
:10B3C000FCF720F988E73046FCF7FCF83CE705EA93
:10B3D000080107EB8101CBEB0A055A4630460C31D8
:10B3E000EDB20823FCF70EF92A460BF1080307F12A
:10B3F0000C013046FCF706F96EE7474670E700BFE0
:10B40000E862002044E602001CE6020068D8020060
:10B410009CE602002DE9F04383B002AB002203F862
:10B42000012DDFF8D880054618460F46D8F8086089
:10B43000FBF72AFCD8F80820D8F80430D8F80040E8
:10B44000134401331B1B012B54D801212A48FBF75D
:10B45000A5FCFFF7D5FD01462748FBF79FFC98E8C0
:10B460000A00D8F80820134401335B1A012BECD9E9
:10B470000A404FF0010908EB820249F004036FF320
:10B480008913D360D8F800309DF807000233C8F85C
:10B490000030FBF721FC00211748FBF757FC80F335
:10B4A000100004EB09033340344008EB830300042D
:10B4B000023408EB840440EA1540D860237965F330
:10B4C000C5032371A3886FF38913A380626867F3B0
:10B4D0009F22134669F301036FF3820362602371B5
:10B4E00098F820341BB1FFF74DFE0028FBD103B0C4
:10B4F000BDE8F0832146BBE704670020E862002036
:10B500002DE9F04782B002AB002403F8014DDFF8CB
:10B51000E890064618460F469046D9F80850FBF7C3
:10B52000B3FBD9F80810D9F80430D9F800400B441F
:10B5300001331B1B022B5AD801212E48FBF72EFC8E
:10B54000FFF75EFD01462B48FBF728FC99E80C004D
:10B55000D9F808100B4401339B1A022BECD94FF099
:10B56000010A0A4009EB82024AF004036AF38913D4
:10B57000D360D9F800309DF807000333C9F80030D4
:10B58000FBF7AAFBA31C2B4009EB830300211948FE
:10B59000C3F80C80FBF7DAFB80F3100004EB0A031E
:10B5A0002B402C4009EB83030004023409EB840494
:10B5B00040EA1640D860237966F3C5032371A38857
:10B5C0006AF38913A380626867F39F2213466AF3C4
:10B5D00001036FF382036260237199F820341BB179
:10B5E000FFF7D0FD0028FBD102B0BDE8F08722466E
:10B5F000B5E700BF04670020E86200202DE9F04FA6
:10B6000085B004AD002405F8014D3A4C019307467E
:10B61000284688469246A668FBF736FBA168636811
:10B6200025680B4401335B1B032B60D80121324892
:10B63000FBF7B4FBFFF7E4FC01462F48FBF7AEFB3A
:10B6400094E80C00A1680B4401339B1A032BEDD93D
:10B650004FF0010B0A404FF0020904EB82024BF05D
:10B66000040169F38911D16022689DF80F0004324A
:10B670002260FBF731FB05EB0900EA1C304004EBCC
:10B680008000324004EB8202C0F80CA0019B1A48F3
:10B69000D3600021FBF75AFB80F3100005EB0B028F
:10B6A0003240354004EB820200044D4404EB850532
:10B6B00040EA1740D0602A7967F3C5022A71AA8848
:10B6C00069F38912AA806A6868F39F2213466BF3B4
:10B6D00001036FF382036A602B7194F820341BB16D
:10B6E000FFF750FD0028FBD105B0BDE8F08F2A46DA
:10B6F000AEE700BFE8620020046700202DE9F04FAC
:10B7000085B004AD002405F8014D3F4C01938046FF
:10B7100028469346A6688946FBF7B6FAA26863688E
:10B720002568134401335B1B042B6AD80121374879
:10B73000FBF734FBFFF764FC01463448FBF72EFBB4
:10B7400094E80A00A268134401335B1A042BEDD974
:10B750000A40012704EB82014FF0030A47F004007E
:10B760006AF38910C86021689DF80F0005312160D7
:10B77000FBF7B2FAA91C05EB0A0C05F1040E3140E7
:10B780000CEA060C04EB810104EB8C0C0EEA060EAD
:10B79000019BC1F80CB004EB8E0ECCF80C300021EC
:10B7A0000E9B1A48CEF80C30FBF7D0FA80F310004D
:10B7B000E9193140354004EB81010004023504EB06
:10B7C000850540EA1840C860297968F3C5012971E8
:10B7D000A9886AF38911A980696869F39F210A46DB
:10B7E00067F3010213466FF3820369602B7194F8CB
:10B7F00020341BB1FFF7C6FC0028FBD105B0BDE823
:10B80000F08F2946A4E700BFE8620020046700200B
:10B8100030B4174DD5F8104400215CB1E3681A79B3
:10B82000914204D117E0DB681A798A4213D01B6871
:10B83000002BF8D1C3680E4A1971D5F8103493B1B2
:10B84000DC68C36824681C60D2F81034DB681860B8
:10B85000084630BC704701310A29DED14FF0FF3174
:10B86000084630BC7047C2F81004C2681360EFE7A6
:10B87000E862002038B5094BD3F81044012583F85D
:10B8800020544CB1E3685D71236820465B6898479B
:10B89000E3681C68002CF5D138BD00BFE8620020C9
:10B8A0002DE9F04784B01D460C9C002394F80C80D1
:10B8B0002373EB8881460E461746002B3BD1297A2D
:10B8C00005290FD06B7A002B3DD1404BA88853F847
:10B8D00021A00021FFF716FC524603463C492046B2
:10B8E000FBF700FB062F0FD8DFE807F0484D535A4F
:10B8F00004633900F168B06896E80C00019100908B
:10B9000049462046FBF7EEFA2B7A052B05D06B7AD9
:10B910005BB930492046FBF7E5FA2046FBF7D6FA3B
:10B9200084F80C8004B0BDE8F0872B4A2B492046F0
:10B93000FBF7D8FAEDE7284A00922949294A204620
:10B94000FBF7D0FABBE7A888FFF706FC264B234994
:10B9500053F820202046FBF7C5FA297AB5E770692D
:10B96000316996E80C000390B068F76802918DE8A1
:10B97000810049462046FBF7B5FAC5E7494620460F
:10B98000FBF7B0FAC0E7326849462046FBF7AAFA4F
:10B99000BAE7494696E80C002046FBF7A3FAB3E75E
:10B9A000B16896E80C00204600914946FBF79AFAE8
:10B9B000AAE7B068F768316996E80C0002918DE853
:10B9C000810049462046FBF78DFA9DE78CD802009E
:10B9D000ECD80200F8D80200E4D8020014DE02001D
:10B9E000CCD80200C4D80200A0D80200082900D98F
:10B9F00070472DE9F0471D46002395F80CA02B73E6
:10BA0000D38882B0914607460E46002B62D199F842
:10BA10000810052911D099F80930002B62D1384B54
:10BA2000B9F8040053F821400021FFF76BFB2246D0
:10BA3000034634492846FBF755FA002405E03A5DF1
:10BA40000134FBF74FFA082C0AD0A6422E492846AB
:10BA5000F5D82E4928460134FBF744FA082CF4D1D6
:10BA60002B492846FBF73EFA002411E017F8048022
:10BA700001F022F840442749437813F0970F14BF90
:10BA800042462E2228460134FBF72CFA082C08D017
:10BA9000A64221492846E9D80134FBF723FA082CAD
:10BAA000F6D199F80830052B02D099F809305BB926
:10BAB0001A492846FBF716FA2846FBF707FA85F8D5
:10BAC0000CA002B0BDE8F087154A16492846FBF7DE
:10BAD00009FAEDE7124A00921349144A2846FBF787
