:020000022000DC
:1060000000000120D1620200F9620200FB6202007E
:10601000FD620200FF620200016302000000000056
:106020000000000000000000000000000363020008
:10603000056302000000000007630200096302001C
:106040001D9C02000B630200ADA402000B63020062
:106050000B6302000B630200B99F02000B63020096
:106060000B6302000B6302000B6302000B63020070
:106070000B630200F1A502000B6302000B63020038
:106080000B630200256602000B6302000B63020033
:10609000C56602000B63020019E302000B630200F5
:1060A0000B6302000B6302000B6302000B63020030
:1060B0000B6302000B630200000000000000000000
:1060C0000B6302000B6302000B6302000B63020010
:1060D0000B6302000B6302000B6302000000000070
:1060E00000000000000000000000000000000000B0
:1060F00000000000000000000000000000000000A0
:10610000000000000000000000000000000000008F
:10611000000000000000000000000000000000007F
:10612000000000000000000000000000000000006F
:10613000000000000000000000000000000000005F
:10614000000000000000000000000000000000004F
:10615000000000000000000000000000000000003F
:10616000000000000000000000000000000000002F
:10617000000000000000000000000000000000001F
:10618000000000000000000000000000000000000F
:1061900000000000000000000000000000000000FF
:1061A00000000000000000000000000000000000EF
:1061B00000000000000000000000000000000000DF
:1061C00000000000000000000000000000000000CF
:1061D00000000000000000000000000000000000BF
:1061E00000000000000000000000000000000000AF
:1061F000000000000000000000000000000000009F
:1062000010B5054C237833B9044B13B10448AFF3F0
:1062100000800123237010BDF02F0020000000003B
:10622000D0F60300084B10B51BB108490848AFF37E
:1062300000800848036803B910BD074B002BFBD052
:10624000BDE81040184700BF00000000F42F0020F8
:10625000D0F60300D42F002000000000154B002BC7
:1062600008BF134B9D46A3F5803A00218B460F468D
:106270001348144A121A13F0B1FD0F4B002B00D033
:1062800098470E4B002B00D09847002000210400B7
:106290000D000D48002802D00C48AFF3008013F029
:1062A00035FD2000290005F083F913F01BFD00BF28
:1062B00000000800000001200000000000000000B5
:1062C000F02F0020704600200000000000000000B9
:1062D0000649074A074B9B1A03DD043BC858D050B8
:1062E000FBDC10F049FAFFF7B9FF0000A0F803004B
:1062F000D82A0020F02F0020FEE7FEE7FEE7FEE7A9
:10630000FEE7FEE7FEE7FEE7FEE7FEE7424B197811
:1063100000297FD02DE9F04F002487B001258E465B
:1063200003E00134E4B2744561D23C4B27B21E68ED
:1063300016F83700A0F1200305FA03F9384BC0F135
:106340002001D3E9002325FA01F149EA010905FA00
:1063500000F808EA020A09EA030B5AEA0B0C06EBFA
:10636000C701DED005912E4922EA080223EA09037B
:10637000C1E9002303F016FE16F83760A6F12002EB
:1063800005FA02F201920199C6F120035FFA80FA40
:1063900025FA03F3A6F1200219430AFA02F3039344
:1063A000019105FA06F10091C6F1200703991D4BF2
:1063B0002AFA07F73943D3E9002303910AFA06F1D1
:1063C000DDE900AB02910AEA020A0BEA030B52462E
:1063D0005B46DDE902AB5B4508BF5245059909D034
:1063E0000D4B013493F800E0E4B274459DD307B03F
:1063F000BDE8F08F4B68002BF2D04978A1F1010184
:10640000B1FA81F14909091AB1FA81F14909304615
:106410009847E5E7704700BF143000201030002097
:1064200040300020383000202DE9F843064620484F
:1064300000F0D4FBD0B91F4F0123A6F1200103FACD
:1064400001F5C6F12002D7E9000123FA02F2154353
:1064500003FA06F404EA000205EA0103134307D035
:1064600020EA040421EA0505C7E90045BDE8F883F0
:10647000304603F097FD104ED6E9008998B148EAFE
:10648000040849EA0509D7E9002314431D43C6E976
:106490000089C7E90045094B054819680022BDE895
:1064A000F84300F045BB28EA040829EA0509EAE7B1
:1064B0001830002040300020383000200C30002000
:1064C000042A01D807207047F0B583B00F4605466F
:1064D000164603F021FC002831D01B4C1B4A1C4BF4
:1064E0001C481D49256017707C1E00221E60002379
:1064F000C0E90023C1E90023E4B2D7B10027032695
:1065000002E0DBB2ACB11C4623B205EBC30215F8C6
:1065100033009378114A8DF8053001A98DF8067083
:106520008DF8046003F002FC631E0028E9D003B07C
:10653000F0BD0B4A0B48002100F0E8FAF7E703F042
:106540009DFB0028C9D0F2E7103000201430002055
:106550000C30002038300020403000202964020038
:106560000D63020060A1030070B5084D2B785BB18C
:10657000074E00243368012113F8340003F0B0FC07
:106580002B780134A342F5D8002070BD14300020D0
:106590001030002000B585B000230390194601AAF1
:1065A00044F201000193029300F004F805B05DF895
:1065B00004FB00BF10B572B608F0CCFE08F02AFA52
:1065C0000028FBD1104B114C11491C1BE40824047A
:1065D00044F0010008F066FB0E4B1B68DB0700D59A
:1065E00000BE44F002000C4908F05CFBBFF34F8F83
:1065F0000A490B4BCA6802F4E0621343CB60BFF355
:106600004F8F00BFFDE700BF7CF703004CF703008E
:1066100064A10300F0ED00E070A1030000ED00E0D4
:106620000400FA05F8B5204A204B0025C2F8405175
:10663000C2F84451C2F84851C2F84C51C2F8005156
:10664000C2F804511B6813B31949D2F804250C6829
:10665000141B1A6824F07F44A2422F4609D8197CE3
:10666000DE69A41A154499B91EB133461A68A242CC
:10667000F5D9104B10491A780B789A420DD00F4972
:106680000F4A41F823504FF48013C2F80031F8BD8F
:106690001F745A6998699047E6E7531CDBB2022BD6
:1066A00008BF00230B70EAE7001001404C300020C7
:1066B0004830002050300020513000206031002050
:1066C00000E100E02DE9F04FAB4AAC4913780978BE
:1066D000994287B036D00133DBB2022B08BF0023CA
:1066E000A7481370A74A076852F82310DFF8B0A232
:1066F0007A18DAF80030002422F07F420260264641
:106700002046A646ABB11A688A4200F26581DC6871
:10671000C3F800E0891A1044DA6934B13D1825F055
:106720007F45DE619C605D601E4613460124002BA0
:10673000E9D1002C40F084810023029301230393CC
:10674000029D07E0DFF858A2DAF800300293002635
:1067500003961D468C4BDFF83892DFF848B243F0C1
:1067600001030493002301934EB37068B368344669
:10677000F669834A854F1168421A22F07F42BA4275
:106780003AD813442360002201216260A260E261D2
:106790002174002D62D02968994245D2284603E031
:1067A0001168994230D21046C2695B1A002AF7D1AB
:1067B0002360E2612B46C4611D46002ED5D199F8B5
:1067C000003099F8012072499A427DD05A1C88788D
:1067D000D2B2904203EB43030A7008BF0E7009EB7C
:1067E000C3010B798C68022B49D0032B3BD0012BC2
:1067F00022D02B461D46E0E7091A21F07F4199423D
:1068000009D25B1A2360BEE7C91A11602360E261F6
:106810002B46C461D0E70023012223606360A3609C
:10682000E3612274D5B12968CAF80040CB1A2B6005
:106830002346E5611D46C0E7227C002AD9D1C868FD
:1068400060600B69A3604F69E7609BF8007089691D
:10685000A161002F8DD0626010468AE72346CAF8F6
:1068600000401D46A9E700220DB9C2E71D46EB69AD
:106870002A74002BFAD1CAF800301D469DE75DB19D
:10688000AC4200F09180A84602E0944209D09046C4
:10689000D8F81C20002AF8D12B46002222741D466D
:1068A0008BE7444500F08280E1692068C8F81C103D
:1068B0002B460029F0D00A6802440A60019A9D42E2
:1068C00018BF01220192E8E7019B13B9029B9D4288
:1068D00079D0002D00F09880294B2E481C68D0F804
:1068E00004652D4FD5F800903B78351B25F07F458A
:1068F0000335BBB9294B24494FF48032C0F84423F7
:106900004FF00108C0F804234FF40032C3F880218F
:1069100041F001011A60C0F800804FF43C608847E4
:1069200087F80080A9452CBF4C446419194824F00D
:106930007F43C0F84035D0F80415891B9B1B21F01C
:106940007F4123F07F43033199420ED90E4BD0F89B
:106950000415C0F8401543F001034FF43C6098471C
:106960000E4B4FF40031C3F8001100238BF80030B8
:1069700007B0BDE8F08F00BF50300020513000203C
:10698000483000206031002080A10300FEFF7F001E
:1069900054300020001001406831002000E100E088
:1069A0004C300020523000202A46A846EB69CAF835
:1069B0000030264FCBB1D1691068C8F81C100029EF
:1069C0003FF47CAF77E7039B002B82D100238BF849
:1069D000003007B0BDE8F08F002C34D1521A02937A
:1069E0001A6001230393029DB4E60592184A1949DF
:1069F000012090608BF800000B604FF43C60049B1A
:106A000098473B68059AD6E7114E1349134C4FF44B
:106A1000803301274FF40030C1F880003C43C6F8B2
:106A200048334FF43C60C6F808337760A047094B01
:106A3000B7604FF43C601D60A047094B1D7094E7A0
:106A4000CAF8003078E6CAF80030C7E74C300020BA
:106A5000001001404830002000E100E080A1030068
:106A6000683100202DE9F8431F4D204E204FDFF8FC
:106A700098804FF480334FF400324FF00109002426
:106A8000C6F8802047EA0907C5F848334FF43C6050
:106A9000C5F80833C5F80490B847C5F808904FF416
:106AA0003C60C8F80040B847124B13481349144AD9
:106AB0001C70144B04600C7014704FF48011E022B1
:106AC0000B2098701C705C70C6F8801186F8142337
:106AD0003160C5F8084586F81123D5F80435C8F8A3
:106AE00000302046BDE8F8830010014000E100E0DE
:106AF00080A10300683100204C300020503000207D
:106B0000513000205430002048300020074B9B7843
:106B10000BB9082070473AB130B10368187C0028DF
:106B2000F7D159745A6170470720704754300020DC
:106B30002DE9F043264CA37883B01BB9082003B09D
:106B4000BDE8F0830028F9D0042903D8072003B05A
:106B5000BDE8F0834369002BF0D0064602A8737CA1
:106B60000025012B00F8015D0CBF8946A94690461F
:106B70000F4600F06FF86378A07821785A1CD2B2E3
:106B8000904208BF2A4691421BD003EB430304EB1B
:106B9000C30301200F4918719E60D1F804159DF8B8
:106BA0000700D9601F61C3F81490C3F818806270A1
:106BB00000F078F8084B4FF480122846C3F8002103
:106BC000BDE79DF8070000F06DF80420B7E700BFAF
:106BD000543000200010014000E100E070B51B4C73
:106BE000A37882B013B9082002B070BD0028FAD093
:106BF0004369002BF7D0064602A8002500F8015D86
:106C0000357400F027F86278A0782178531CDBB245
:106C1000984208BF2B46994212D002EB420204EB85
:106C2000C20202219DF8070096601171637000F0A6
:106C300039F8074B4FF480122846C3F80021D3E7F8
:106C40009DF8070000F02EF80420CDE75430002016
:106C500000E100E0F0B4EFF3108472B60E4B9A68D6
:106C6000B2B90E4901259D60D1F880700C4D2E46B9
:106C70003D401D60C1F88060D1F884505D604FF0E8
:106C8000FF33C1F88430027004B962B6F0BC7047BB
:106C900001230370F8E700BF6046002000E100E038
:106CA000FC06FFBD094B9A6872B168B910B4EFF3E6
:106CB000108272B606491C680C605C684C60986073
:106CC00002B962B65DF8044B704700BF6046002011
:106CD00000E100E0F0B5364C364F668865684FEA53
:106CE000860E0EEB060107EB810183B0496801F5C2
:106CF0008050002D59D06A88033205EB8202904201
:106D000008D91368013305D05388033302EB83039A
:106D1000984214D20EEB060307EB8303DB68002BCB
:106D20003AD0254D2548296802270526002301224F
:106D3000AF80267003B0BDE8F04001F02BBF4FF6E6
:106D4000FF7C9588654514D0158895B1626053889D
:106D5000194D1A48AE882968033300259BB2009567
:106D60009B0001EB86010325257001F071FE03B045
:106D7000F0BD8342CED21A6801321A46CAD05D886D
:106D8000033503EB85039842DBD20EEB060307EBDA
:106D90008303DB68002BC4D1084804250122257039
:106DA00003B0BDE8F04001F0F5BE01F10802A6E72E
:106DB000343200200C32002060320020D82F002016
:106DC000F0B543688C464BB1364AD468A34205D32C
:106DD0001269934202D813F0030546D00023DFF86E
:106DE000CCE0ACF8003001274FF6FF75DEF8046008
:106DF000002106F58052002934D04B88033301EB83
:106E00008301914209D37B1CACF800709FB2032F21
:106E10000EF1140EEAD10020F0BD0B680133F2D060
:106E20004B88033301EB83039A42ECD38C88AC424A
:106E30000BD00C884CB18C6803689C42DBD11A4B98
:106E400041601B8903810120F0BD9A42DBD91C6897
:106E500001341946D7D05C88033403EB8403934292
:106E6000D1D8E3E706F10801CBE70F4A048912897C
:106E70009442B3D104689A689442AFD10B484268F7
:106E8000934203D902F58052934207D38269934219
:106E9000C1D902F580529342BDD20125ACF8005011
:106EA0000120F0BDD82F0020343200200C32002009
:106EB0002DE9F04FDFF8F082DFF8C8A2DFF8C892C2
:106EC0008BB00646D8F80040002C00F0F480227801
:106ED000531E052B00F27682DFE803F03E4B4B1B7E
:106EE0001B03002E40F0B1809AF80C30002B00F00C
:106EF0009581A44B1E731B78013B062B00F2628226
:106F0000DFE813F06B0286015801240160024D0294
:106F10006C01002E40F099802379012B00F0B181A3
:106F2000C0F09481022B41F61D5018BF0F2005AD13
:106F3000002341F61D52AB600593EB602B6190423C
:106F400008BF184606902378023B042B3FD8DFE8A1
:106F500003F0702B64596000002E40F08F8023797D
:106F6000032B00F2A380DFE813F0E500D400C90092
:106F7000AE00A58A002E6AD0A37D022B40F24B8181
:106F8000AE00731909EB8303E28819897E4F033140
:106F90000A441A81354407EB8507E2887B89033B65
:106FA0009B1A7B810120C2E702238DF814302389CC
:106FB000ADF82030A388ADF82230E3680793A37DB5
:106FC000A3F10603B3FA83F35B098DF824306F4C09
:106FD00004F1100654F8043B284603B19847B44224
:106FE000F8D16B496B480026C8F8006001F062F8E0
:106FF0000121694801F036F900287FF463AF0BB036
:10700000BDE8F08F04238DF81430E388ADF820300C
:10701000DDE705238DF81430D9E703238DF814300C
:10702000E388ADF820302389ADF82230E368079378
:10703000CDE701238DF814302389ADF82030A388E3
:10704000ADF82230E3680793C1E701206FE7AE0097
:10705000731909EB8303A17DB3F808B05B684A4F4D
:1070600003EB8B0B062900F2B582DFE811F0170164
:107070006D013E01510160017F013301474B002248
:107080005A60012053E701239800184409EB80035C
:107090000024596809F8204000940823404A4148D8
:1070A00001F0D6FC0028AAD0D8F800403B4B0022C3
:1070B0005A600E203BE73649364800F0CBFF3A4B8A
:1070C0000446186003E7394D354A296835480026DB
:1070D00026710823009601F0BBFCBAF802302C6838
:1070E000A98803EB830309EB830209F82360536843
:1070F0002B60022354601181AB80D3E72B4A2948CF
:1071000011680023237102249480012201F042FDC2
:10711000C8E799F80030022B00F05A821A4B1B7D09
:10712000022BB0D01D4B01210022197041F61D50D9
:107130005A60FCE61D4B1E4A19681A480123237148
:1071400000230093082301F083FCABE7BAF8023078
:1071500003EB830309EB8302D368002B00F0348137
:10716000124B1048196802229A800524002301223C
:107170008AF8004001F00EFD00283FF440AFD8F837
:107180000040D4E6343200200C320020F8310020D8
:1071900088320020703200206C32002080320020C3
:1071A00090A10300D82F002044320020603200203C
:1071B00088A10300DAF80420B54853888488016860
:1071C000B448033301EB84019BB2002400949B007C
:1071D00003248AF8004001F03BFCCDE7AC4BAE4AFB
:1071E0001968AC48002300930724CAF80430082328
:1071F0008AF8004001F02CFCBEE7A54ADAF804103A
:10720000938849880B440333022193808AF8001045
:10721000FFF760FDB0E7A14FAE00BBE6A04B1B78C7
:10722000072B3FF669AE01A252F823F02B7402003F
:10723000F96E0200F96E0200FB7102006374020035
:10724000DD710200DD7102008574020005AD0223CC
:10725000237105966E60AE60E368059328460DF1D4
:107260001201FFF7ADFD002840F091810A260023AE
:1072700030462B606B60AB60EB602B61D8F8004050
:1072800060E6884B1B78002B40F0188131460822BD
:10729000854812F0A3FD022605ADE8E7022300228F
:1072A000A375042300925946E2187A4801F0D0FBF6
:1072B00000283FF4A4AEA17D0E2002290CD872193B
:1072C00009EB8202E1885389D8F80040033B5B1A3E
:1072D00053812CE641F61D50731909EB8303E288B4
:1072E000198903310A441A81E9E723696948002BA7
:1072F0000CBF012303230022A3750BF108010092A8
:10730000042304F10C0201F0A3FB0028D3D176E69C
:10731000E38822695F480127A77500270BF10C015C
:107320009B00009701F094FB0028C4D167E65F4BF7
:10733000A2691A60184600225D495A60FFF740FDB5
:107340000028ABD10A20F2E5032A14BF0623052347
:107350000022A3750BF104010092042304F108023A
:107360004C4801F075FB0028A5D148E6504B4F4A28
:10737000B3F800B0516847484E4A00234FF0060E5C
:1073800084F816E00093042301F062FB002892D1F8
:107390000BEB8B0B07EB8B0701233B742FE6BAF843
:1073A00002303E4F9A00134407EB830700237968AD
:1073B000414A00930624082336488AF8004001F029
:1073C00047FBD9E60F20B2E5516832480424012278
:1073D0008AF8004001F0DEFBCEE69AF80A3053B19D
:1073E000D9F80C3000228AF80A2023B999F8102025
:1073F000002A40F0E8809AF80B3053B1D9F82030D9
:1074000000228AF80B2023B999F82430002B40F091
:10741000D98000238AF80030AAF80230CAF8043074
:10742000D8F8004041F61D5081E599F81420BAF8CB
:10743000081099F80030B2FA82F252090131B3FA19
:1074400083F35B098AF80B20AAF8081000220121B7
:107450008AF80A30AAF802208AF80C208AF800106C
:10746000BDE7BAF802300A480C4F046885889A00D4
:10747000D11809EB81014E684C60022406600D8131
:10748000848090E701238AF800309AF80A30A6E752
:1074900060320020D82F002088A103000C32002089
:1074A0003432002080320020583200204832002040
:1074B0000832002098A1030090A103004648858867
:1074C000012D10D8454F02964FF6FF7E0397AE0070
:1074D000731909EB830219F8233073B10135ADB28A
:1074E000022D8580F3D1082200213B4812F076FC62
:1074F000D8F8004041F61D5019E55768036807F5B4
:107500008052002B5BD05988033103EB81019142FB
:1075100002D3029B0360E1E70B680133F9D04B888B
:10752000033301EB83039342F3D8B1F804C0F4456D
:107530001ED0B1F800B0BBF1000F19D0B4F806B0FE
:107540000160E3450B46DCD100230093244A254823
:10755000039F042301F07CFA38B9731907EB830702
:1075600001233B740BB0BDE8F08F0E2605AD7EE61F
:107570009342CED2196801311946CAD0B3F802C07D
:107580000CF1030C03EB8C039342C2D8CDE70699B0
:10759000134A8B88E3800B882381124800960423CA
:1075A000BDF8124001F054FA08B10E265FE60B4B0D
:1075B00004EB840403EB8404012323741FE507F127
:1075C0000801A4E70123AAF80230FFF783FBD3E503
:1075D000002359E50F2070E6583200200C320020BD
:1075E00098A10300D82F00204068FFF761BC00BFBE
:1075F0002DE9F04782B0002A60D0B2F800805788A9
:107600000E46054601A94748994600F0E5FC1C22B4
:107610000446002112F0E2FB002C30D04FF0000AAB
:1076200084F80090A4F8148084F816A0736823618D
:1076300001213D4800F008FEE06033882381738813
:10764000A380B9F1030FE7802DD0A4F80AA001A907
:10765000344800F0EFFC3DB100236B60E168334A31
:1076600029601289AB722A810121314800F0DEFDC8
:10767000044690B10024204602B0BDE8F0872D4BAF
:1076800008EB880803EB880208245389033BDB1BC3
:107690002046538102B0BDE8F087FFF709FC204681
:1076A00002B0BDE8F0870423A3752B68A36101A98C
:1076B000A4F80AA01B4800F0BDFCCDE70F89FA1C16
:1076C00092B240F2FD34A24201D90924D3E7194C09
:1076D00094F80080B8F1000F07D1668925893544F8
:1076E0001544ADB2B5F5806F0FD3257DDFF844E0CA
:1076F0004DB9BEF81E60BEF81C5035441544ADB2FD
:10770000B5F5806F09D30724B5E7454605EB850538
:1077100004EB85043244628172E74FF0010845466C
:10772000F4E700BF703200206832002034320020BD
:107730006C3200200C32002038B5084B1A68042A3D
:1077400001D10C2038BD1D68054C024601211846A8
:1077500044F8252000F078FD002038BD5432002088
:10776000F83100202DE9F04FAC4C8BB0227800238B
:107770000693059307930893099372B1A84C04F1FB
:10778000100554F8043B05A803B19847A542F8D169
:10779000002528460BB0BDE8F08F201D00F070FDDD
:1077A0000028F5D14FF010234FF080525B6911692A
:1077B00052699C4E581C08BF02FB01F333619A4981
:1077C000A3F5405330460022F36001F013F905465B
:1077D0000028DED11C238C2294499548DFF864A24E
:1077E00000F0C0FBF068DFF860E2039500F540525E
:1077F0000323A0F10408019200952F4602934FF64F
:10780000FF7920B1D8F804308A4A934261D000F65B
:10781000FC71434602E0994200F02E8153F8042F98
:107820000132F8D0029907EB87034D1E0AEB830261
:1078300003210137ADB20AF8231050600295BFB2A0
:1078400000F58050019B984208F58058D9D1029BE1
:10785000012B40F2E0809DF80050022D00F0DB800B
:10786000062D00F0F380002D00F0D58004A97048AB
:1078700000F0B2FB1C220446002112F0AFFA002CEB
:1078800000F011810123013D23700A2D09D8DFE8A2
:1078900005F01D081D081A081A081706170002230C
:1078A000237104A9624800F0C5FB0121624800F081
:1078B000BDFC054600287FF46BAFFFF7F9FA68E7D7
:1078C00003232371EDE701232371EAE700232371EA
:1078D000E7E74368594A934240D00132934296D138
:1078E000039B002B40F08880554D28600223AB801D
:1078F0008268013200F0BC8000F1080100F5805080
:107900004A88D61C01EB8606B04207D24FF480634A
:10791000AB800823009A1A43009293E78E884E4565
:1079200009D00E883EB18E68DEF800C0664502D9E7
:10793000CEF800604A88033213449BB2AB804A8879
:10794000033201EB8201884204D8022B14BF0823C2
:107950000423DFE70A680132D2D1F6E7BD00EB1954
:107960000AEB830600220AF8232002237060338189
:107970008268013279D000F1080200F58050518808
:1079800001F1030C02EB8C0C60450ED23D440AEB76
:10799000850501224FF480632A742B81009B0137F7
:1079A00043F00203BFB200934CE7B2F804C0CC45E9
:1079B0001CD0B2F800C0BCF1000F17D0D2F808C03C
:1079C000DEF800B0DC4503D9CEF800C05188338919
:1079D000194403318BB233815188033102EB8102A8
:1079E0009042DBD911680131C9D1D7E74FF00103CB
:1079F000337451883389EBE707EB8705104A0AEBAC
:107A000085030221013712680AF825105A600C4DCF
:107A10001981BFB269E70B25BBE600BF80320020A9
:107A2000F8310020D82F0020A8A303006C310020DB
:107A300070320020DEC0ADDE6C320020FE011EF18F
:107A4000603200200C320020683200201A4D0122E2
:107A50000023227005F11006636055F8043B05A869
:107A600003B19847AE42F8D192E600F5805095E711
:107A700000F5805004234DE7104B1B68ABB107EBBA
:107A800087030AEB830102220D4E0AF823207D1C96
:107A900077804860AFB20A81009B43F001030093F6
:107AA00000F58050CEE6082573E6044A0223938051
:107AB000012310600393EFE7F831002060320020CB
:107AC0003432002060B159B170B582B00C460DF16E
:107AD00006010546FFF774F920B90A2002B070BD0F
:107AE00005207047BDF8063008486E6803EB830335
:107AF00000EB83000C30012100F0A6FB26606B68D0
:107B000001220C3363600020AA72E7E70C320020E8
:107B100050B110B582B00DF106010446FFF750F9DF
:107B200020B90A2002B010BD05207047BDF806300C
:107B3000094A03EB830302EB8303DA6812B90620D8
:107B400002B010BDA27A002AF9D0DA680021013A09
:107B5000DA600846A172E5E70C3200200F4B1B7873
:107B60000BB90220704759B110B40C884FF6FF735F
:107B70009C4201D04B882BB904205DF8044B704720
:107B8000052070474A6812F0030201D00320F4E791
:107B900002235DF8044BFFF72BBD00BF80320020AD
:107BA00020B1104A12781AB9022070470520704798
:107BB0000029FBD010B40C884FF6FF72944201D01C
:107BC0004A881AB904205DF8044B70474A6812F0DD
:107BD000030201D00320F6E703235DF8044BFFF70F
:107BE00007BD00BF8032002070B5184B1B7882B0F3
:107BF0001BB90224204602B070BD4FF6FF739842B5
:107C000003D10424204602B070BD01A904461048E7
:107C100000F0E2F91C220546002112F0DFF885B1E0
:107C200005230126EC8001A92B702E71084800F075
:107C300001FA3146074800F0F9FA044618B1002469
:107C4000D8E70824D6E7FFF733F9D3E780320020DE
:107C5000703200206C32002010B5154B1B7882B0BA
:107C60001BB90224204602B010BD01A9114800F042
:107C7000B3F91C220446002112F0B0F884B10623A7
:107C8000237001A90B4800F0D5F90B4B1A784AB9BB
:107C900001210A4800F0CAFA044630B10024E1E7A5
:107CA0000824DFE701221A73F2E7FFF701F9D9E7A9
:107CB0008032002070320020343200206C320020EC
:107CC0002DE9F047354C247814B90220BDE8F0873F
:107CD00062B35BB3B3F804E0BEF1010F23D8DFF861
:107CE000C4804FF6FF7C4FF000090EEB8E0408EBCA
:107CF000840718F824406CB91C687D6805F5805627
:107D0000002C48D06588033504EB8504A64210D8C2
:107D1000C3F800900EF1010E1FFA8EFEBEF1020FA5
:107D2000A3F804E0E1D10A20BDE8F0870520BDE812
:107D3000F08725680135EBD06588033504EB8505B0
:107D4000AE42E5D3B4F804A0E24515D0B4F800A0E3
:107D5000BAF1000F10D01C60A5888542CDD12588CE
:107D60008D42CAD1A168116019680D4B51601B8901
:107D700013810020BDE8F087B542C9D22C680134D8
:107D80002C46C5D0B5F802A00AF1030A05EB8A0516
:107D9000AE42BDD3D6E705F10804B7E78032002034
:107DA000343200200C320020314B1B780BB90220FA
:107DB000704741B33AB32DE9F0439688012E1FD89E
:107DC000DFF8B4C04FF6FF7E4FF0000806EB8603E5
:107DD0000CEB83071CF823306BB914687B6803F540
:107DE0008055002C41D06388033304EB83039D420C
:107DF0000BD8C2F800800136B6B2022E9680E5D1CB
:107E00000A20BDE8F083052070471C680134F0D0DB
:107E10005C88033403EB8404A542EAD3B3F80490EE
:107E2000F14513D0B3F80090B9F1000F0ED01360F4
:107E30001D8885421C46D1D19B680B6012680D4B92
:107E40004A601B890B810020BDE8F083AC42D0D290
:107E5000236801332346CCD0B4F8029009F103091A
:107E600004EB8904A542C4D3D8E70833BFE700BFB9
:107E700080320020343200200C320020324B1B783C
:107E80000BB902207047D1B1CAB12DE9F0439688F1
:107E9000012E11D8DFF8B8E04FF6FF7C4FF0000854
:107EA00006EB86030EEB83071EF823304BB1013639
:107EB000B6B2022E9680F3D10A20BDE8F0830520E9
:107EC000704714687B6803F58055002C39D06388AF
:107ED000033304EB83039D4202D8C2F80080E6E737
:107EE0001C680134F9D05C88033403EB8404A54298
:107EF000F3D3B3F80490E14513D0B3F80090B9F18F
:107F0000000F0ED013609D8885421C46DAD19B6815
:107F10000B6012680D4B4A601B890B810020BDE885
:107F2000F083AC42D9D223680133D6D0B4F80290A2
:107F300009F1030904EB89094D45CED323464C468C
:107F4000D7E70833C7E700BF803200203432002073
:107F50000C32002020B119B103680B60002070477B
:107F60000520704799B110B4B2FBF3F403FB14245D
:107F7000A4B21CB109205DF8044B704780E81200E0
:107F800084608281C38120465DF8044B70470E20D7
:107F9000704700BF82B050E8022FC188B2EB324F69
:107FA0004FF0000317BF92B241EA014142EA01419A
:107FB00004E04268B2EB324F08BF012340E80212EE
:107FC000002AE8D18DF807309DF80730002B0CBF50
:107FD0001120002002B0704730B482B050E8013F59
:107FE0009DB2C48925448489A54228BF2D1B0489DC
:107FF000A54202BFBFF32F8F002207E0C5EA0305A9
:1080000040E80154002CE9D14FF001028DF8032023
:108010000193019B9DF803200B602AB10B88006837
:10802000184402B030BC704702F0FF03184602B09B
:1080300030BC70470A884B889A4201D000207047B4
:1080400050E8012FC2EA024240E80123002BF7D199
:108050000120704730B482B050E8023F1FFAA3F508
:10806000C488A54202BFBFF32F8F00220DE0C48950
:1080700025448489A54228BF2D1BC3EA054540E855
:108080000254002CE8D14FF001028DF80320019337
:10809000019B9DF803200B602AB14B8800681844AF
:1080A00002B030BC704702F0FF03184602B030BC8B
:1080B000704700BF0A884B889A4201D00020704761
:1080C00050E8022FC2EA224240E80223002BF7D1F7
:1080D0000120704701F01F024B09012100EB8300D2
:1080E000914000F087B800BF10B5012301F01F04D4
:1080F000490900EB810003FA04F100F06DF8E0405B
:1081000000F0010010BD00BF10B4012201F01F04F7
:108110004B0902FA04F100EB8300C9435DF8044BFC
:1081200000F076B84B0901F01F0150F82300C84059
:1081300000F00100704700BF2DE9F84F01F1FF3951
:108140004FEA591909F101090F46064600EB890962
:10815000044600254FF0010823686FEA030B9BFAE1
:10816000ABFBBBFA8BFBBBF1200F20D0AB445F45D0
:108170000CD81CE02368DB4393FAA3F3B3FA83F330
:10818000202B05EB030B12D05F4510D90BF01F0A13
:108190004FEA5B1008FA0AF106EB800000F01CF8C9
:1081A00020FA0AF0C307E5D45846BDE8F88F043436
:1081B0004C4505F12005CFD13846BDE8F88F00BF0A
:1081C00000B550E8002F0B4640E8003E9EF0000F3F
:1081D000F7D110465DF804FB00B550E8002F42EAE5
:1081E000010340E8003E9EF0000FF6D110465DF816
:1081F00004FB00BF00B550E8003F43EA010240E83D
:10820000002E9EF0000FF6D110465DF804FB00BF73
:1082100000B550E8003F03EA010240E8002E9EF05E
:10822000000FF6D110465DF804FB00BF00B550E822
:10823000002F02EB010340E8003E9EF0000FF6D154
:1082400010465DF804FB00BF00B550E8003F03EBAB
:10825000010240E8002E9EF0000FF6D110465DF8B6
:1082600004FB00BF00B550E8003FA3EB010240E86B
:10827000002E9EF0000FF6D110465DF804FB00BF03
:1082800000B5012350E800EF4EEA030240E8002168
:1082900091F0000FF6D170465DF804FB00B50123A4
:1082A00050E8002F42EA030E40E800E191F0000F91
:1082B000F6D170465DF804FB00B5002350E800EFEE
:1082C0000EEA030240E8002191F0000FF6D170465B
:1082D0005DF804FBB8B130B4416882680468521A92
:1082E000D2B2531E2160DBB242B101680A685C1E43
:1082F000551C0D601370E3B2FF2BF6D1036800200C
:10830000187130BC70470E20704700BF70B582B046
:1083100002AB002503F8015D04461846FEF79AFCFF
:10832000236861681A688A4210D9511E1960216851
:10833000A3680E680879258A12F8012CE4689B1B53
:10834000DBB2984205FB024538BF0B719DF8070070
:10835000FEF7A8FC284602B070BD00BF30B583B060
:1083600002AB002203F8012D054618460C46FEF725
:1083700071FC2A681368591C1160E9682A8A641A1A
:10838000B4FBF2F41C709DF80700FEF78BFC03B001
:1083900030BD00BF826802B9704710B5044643691A
:1083A0000168006998470023A36010BD0EB400B5B2
:1083B00082B0039929B102AA04AB42F8043D00F04F
:1083C00095F802B05DF804EB03B070472DE9F84F63
:1083D0001746B942884606461D46DDF828B00B9A76
:1083E0007DD30B464FF00109B3FBF7F39F4209F130
:1083F0000109F9D9A94538BFA94612F0010A02D1ED
:10840000BBF1000F49D1B268012402E0013D07FB36
:1084100004F4012DFAD8B8FBF4F18F42F7D9324DAC
:1084200005E0B4FBF7F4A4B1B8FBF4F1B268685C02
:10843000531CB36033689854B26873689A4201FB66
:108440001488EED33046FFF7A5FFB4FBF7F4002CF9
:10845000EAD1BAF1000F16D0BBF1000F33D0CB45F3
:1084600088BF20243ED9B3683268591CB160D45407
:10847000B26873689A420BF1FF3B06D2BBF1000F62
:1084800009D0D945EFD3BDE8F88F3046FFF782FF1A
:10849000BBF1000FF5D1BDE8F88F93071AD4202463
:1084A000D945B0D2B2683368511CB1609C54B268EF
:1084B00073689A420BF1FF3B07D2BBF1000FA3D0C8
:1084C000D945F0D3A0E7BDE8F88F3046FFF762FF4B
:1084D000B268F2E7002D0CBF30242024E0E74FF013
:1084E000010987E7BDE8F88FA8A10300002900F083
:1084F00061822DE9F04F064685B091460C460B7817
:10850000DFF8ECA40DE0B2683168501CB0608B5409
:10851000B26873689A4280F0D3802378002B00F011
:10852000BA800134002B00F0B680252BEBD14FF040
:108530000008214614F8013B2D2B00F0BB80302BA6
:1085400000F0BB802B2B00F0AD802A2B00F0BC800C
:10855000A3F13005EAB2092A98BF013102D9A6E198
:10856000A2F130050C4611F8013BA3F1300005EBF8
:108570008502092803EB4202F2D91A462E2A00F09E
:10858000AF80002701E014F8012F02F0FB03682BF5
:10859000F9D0253A532A79D8DFE812F0760178002D
:1085A000780078007800780078007800780078000B
:1085B00078007800780078007800780078007800FB
:1085C00078007800780078007800780078007800EB
:1085D00078007800780078007800780078007800DB
:1085E00078007800780078007800780078007800CB
:1085F00078007800780078007800780078007800BB
:1086000078006601780078007800780078007800BB
:1086100078007800780078005101F900780078003F
:1086200078007800F9007800780078007800780009
:108630007800540078007800C9007800B90078000C
:1086400078006601D9F80020131DC9F80030B3681E
:1086500031681568581C3022B060CA54B36872681B
:10866000934280F0AE813268581C7821B060D154BA
:10867000B26873689A4280F0A081002208230192B8
:108680002946009310223046FFF7A0FE01342378DC
:10869000002B7FF446AF337B002B40F0028105B006
:1086A000BDE8F08F214614F8013B2D2B48F004085B
:1086B0007FF445AF48F001083BE748F0020838E78F
:1086C0003046FFF767FE28E7D9F800301A1DC9F8D1
:1086D00000204A781D682E2A01F101047FF451AF71
:1086E0006278A2F13003092B04F101044FF0000776
:1086F0003FF64BAF07EB870702EB470714F8012F54
:10870000A2F13003092BA7F13007F3D93DE7D9F8DF
:1087100000301A1DC9F800201968CDF804803B46C6
:1087200000950A223046FFF751FE0134AFE7D9F831
:1087300000301A1DC9F8002018F0010F1F6840F022
:10874000BD80002F00F05281384611F059FB804661
:10875000454540F2FB80002D00F0F8804FF0200BE3
:1087600005E0454540F2F280002D00F0EF80B26850
:108770003368511CB16003F802B0B26873689A4262
:1087800005F1FF35EDD33046FFF704FEE9E7D9F8F0
:1087900000301A1DC9F80020D3F800B08BEAEB7343
:1087A000A3EBEB73092B4FF0010108DD8AFB0302F9
:1087B000DB17C3EBA203092B01F10101F6DCB9427F
:1087C00038BF394635B1BBF1000F02DB18F0040F9A
:1087D00000D0013D18F0020F6DD118F0010F17D134
:1087E000002D00F0E8808D4288BF202310D9B268A8
:1087F000501CB06030688354B2687068824205F1E2
:10880000FF3580F08A80002D00F0D5808D42EED8B3
:10881000BBF1000FC0F2DA8018F0040F40F0858041
:1088200008F00303022B00F0A4808DE820013B46F2
:1088300059460A223046FFF7C9FD013427E7D9F827
:108840000020131DC9F80030B36831681278581C35
:10885000B060CA54B26873689A42FFF417AF3046EA
:10886000FFF798FD013412E7D9F800301A1DC9F856
:1088700000201968CDF804803B4600951022304650
:10888000FFF7A4FD013402E7B3683268591CB160F8
:108890004FF02501D154B26873689A42DFD2013497
:1088A000F5E6304605B0BDE8F04FFFF773BD1A4658
:1088B0000C46002562E6002FAAD08EE7B846C7EB2B
:1088C000080B18F8012B8AB1B1683368481CB060F6
:1088D0005A54B26873689A42F1D33046FFF75AFD92
:1088E000C7EB080B18F8012B002AEDD15D457FF688
:1088F000CDAE202702E05D457FF6C8AEB268336892
:10890000511CB1609F54B26873689A4205F1FF35FB
:10891000F1D33046FFF73EFDEDE730460393029179
:10892000FFF738FD039B02996DE7B268531CB360F3
:1089300033682B209854B26873689A42FFF470AF82
:1089400030460291FFF726FD029969E7013F17F8CB
:10895000013F002B3FF49AAEB2683168501CB06002
:108960008B54B26873689A42F1D33046FFF712FD18
:10897000EDE7002F7FF459AF002D35D08D4288BF31
:1089800030237FF652AFB268501CB0603068835419
:10899000B2687068824205F1FF3503D225B38D427B
:1089A000F1D842E7304603930291FFF7F3FC039BB3
:1089B0000299F3E7704700252AE73046FFF7EAFC03
:1089C0005BE63046FFF7E6FCB3684CE6B268531C42
:1089D000B36033682D209854B26873689A42CBF123
:1089E000000BFFF41DAFABE700251EE7B846AFE66E
:1089F0006766666610B582B0C0B131B101600B68C0
:108A0000114602B0BDE8104018470B480B4C0C4B08
:108A10000C4A0D49001BC0080E24000440F0010060
:108A2000009406F0B3FA0E2002B010BD0248034CC9
:108A3000034B064AEDE700BFC4F703004CF7030001
:108A4000B8A1030000A20300D4A10300CCA103003D
:108A50002DE9F04383B0DDF828C000283FD016464A
:108A6000002A4ED0D0F800E0BEF1000F4ED01C46D8
:108A7000F3B14768D7F80490B3FBF9F709FB173750
:108A800047BB11F0030F51D1B60766D1C668B1429A
:108A90005ED301F1FF3805694444AC4258D8CDF8A3
:108AA00028C0DEF80C40A44603B0BDE8F0436047A0
:108AB0002C482D4C2D4B2E4A2E49001BC008092452
:108AC000000440F00100009406F060FA204603B074
:108AD000BDE8F0832348244C244B274AECE7214887
:108AE000214C224B254A2349001BC0080E240004B8
:108AF00040F00100009406F049FA204603B0BDE8BA
:108B0000F0831848184C194B1D4AECE7164C1548D1
:108B1000164B1C4A1749001BC0080824000440F0EB
:108B20000100009406F032FA2046D0E70D480E4CC2
:108B30000E4B154A0F49001BC0081024000440F0DA
:108B40000100009406F022FA204603B0BDE8F0834D
:108B50000448054C054B0D4AECE70248024C034B18
:108B60000B4AE7E7C4F703004CF7030080A30300B8
:108B70001CA20300D4A1030068A20300CCA103003F
:108B800060A2030008A2030094A20300D0A2030085
:108B9000ACA20300F0B583B0002843D0D0F800E0C9
:108BA000BEF1000F4FD0B2B14768D7F800C00CF14A
:108BB000FF370F4231D1C768B9421DD34E1E046939
:108BC0000CFB0265A54217D8DEF81040A44603B09E
:108BD000BDE8F0406047244C2448254B254A2649EF
:108BE000001BC0080924000440F00100009406F0B6
:108BF000CDF9204603B0F0BD1C481B4C1C4B1F4A4E
:108C00001D49001BC0081024000440F0010000941E
:108C100006F0BCF9204603B0F0BD1448124C144BCA
:108C2000174AEDE7104C1148114B164A1249001B28
:108C3000C0080E24000440F00100009406F0A6F9DC
:108C4000204603B0F0BD084C0848094B0E4A0A49BB
:108C5000001BC0080824000440F00100009406F046
:108C600095F9204603B0F0BD4CF70300C4F70300AC
:108C700094A303001CA20300D4A1030020A30300BB
:108C8000F8A20300CCA1030008A2030070B528B12C
:108C900003681BB1DB69BDE8704018470B4C0C4BF7
:108CA0000C4D1B1BA5FB03352D090CD005EB8505D1
:108CB00004EB850523682046143413B1DB6998471B
:108CC00018B9AC42F6D1002070BD70BDD82F00207D
:108CD000EC2F0020CDCCCCCC29DF704728DF7047AB
:108CE0000846704700207047024B187A003018BFC2
:108CF0000120704730330020034B187A0122B0FA6C
:108D000080F05A74400970473033002008B510468F
:108D10001A4611F058F8002008BD00BF08B514220B
:108D20000021044811F05AF80348FFF733F90020F6
:108D300008BD00BF303300208C32002010B5094C34
:108D4000094B43602046FFF79BFA40B905F0DEFA75
:108D50001C2320748C2205490548FFF703F90020E5
:108D600010BD00BF30330020C8A30300A432002090
:108D70008C32002030B55E4C237A87B0002B67D050
:108D80005C4B1B68022222721A79002A33D0012A16
:108D900025D019688A68CAB100220325059202927B
:108DA00000920392049201959A6805921A79684696
:108DB000002A58D0012A07D102228DF80020DA6853
:108DC000120302925B6904938B68984700234A4917
:108DD0004A4823726360FFF76DF907B030BDD86869
:108DE0001A691044FFF77AFFC8B11128D1D10123C5
:108DF000237207B030BD9D695A69D9681869521B42
:108E0000B2F5805F28BF4FF480529208012A38BF24
:108E1000012229442844FFF75FFF0028E5D1227C86
:108E20003349002AE5D10A7A002AE2D0022A0AD17F
:108E3000C8601A7922B3012A05D11A695969013229
:108E40008A421A6128D0637CBBB105F04FFAD0E7A3
:108E500029492A48FFF7FEF8264B186003460028E8
:108E600090D16060C5E701228DF800201A69029256
:108E7000DA6803925B690493A6E7FFF77BFFB8E724
:108E80009A695969881AB0F5805F94BF121802F583
:108E9000805291429A61D6D1002222721968886864
:108EA000B0B10592009201920292039204929A68E4
:108EB00005921A79684682B1012A07D102228DF8FB
:108EC0000020DA68120302925B6904938B6898476A
:108ED00009490A48FFF7EEF8B5E701228DF80020AE
:108EE0001A690292DA6803925B690493EEE700BFA5
:108EF00030330020A03200209C3200208C32002031
:108F00002DE9F04784B080460F46194803A916465C
:108F10001D46FFF761F838B3044600211C228A463B
:108F2000DFF8509010F05AFF0C9BC4F80080A3604B
:108F30002761E660656103A984F804A00C48FFF787
:108F400079F809F10400FFF79BF948B999F8113055
:108F50003BB90190FFF70EFF019804B0BDE8F08720
:108F6000504604B0BDE8F087042004B0BDE8F087A7
:108F70008C320020303300202DE9F04385B080464C
:108F80000D46184803A916461F46FFF725F828B3D3
:108F900004461C22002110F021FFDFF84C90C4F899
:108FA000008001232D0BE560A760666103A9237192
:108FB0000C48FFF73FF809F10400FFF761F948B9E1
:108FC00099F811303BB90190FFF7D4FE019805B034
:108FD000BDE8F083002005B0BDE8F083042005B0B3
:108FE000BDE8F0838C32002030330020831E012B3B
:108FF00000D9704730B5354C237A87B0002B47D065
:10900000022B41D103280AD1E3680133082B44D94C
:109010002F4B00221B68E26022720D2015E02C4BC2
:1090200000221B68E2601A79002A38D0012A2BD16D
:109030001A69596901328A421A6125D102284FF012
:10904000000214BF0D201046227219688A68BAB156
:109050000022059202920092039204929A68019073
:1090600005921A7942B3012A07D1DA685B69049341
:109070001303022202938DF800208B6868469847FC
:1090800014491548FFF716F8637C1BB105F02EF95B
:1090900007B030BDFFF76EFEFAE7E360F4E79A69C8
:1090A00059698D1AB5F5805F94BF521902F5805247
:1090B00091429A61E8D1C1E71869DA685B69029068
:1090C00001258DF8005003920493D6E73033002039
:1090D000A03200209C3200208C32002000F0FD03E2
:1090E000012B00D0704730B5624CA0F10100B0FAFE
:1090F00080F0237A4009002287B020746274002B2C
:1091000060D05D4B1B68022222721A79002A46D079
:10911000012A1DD019688A688AB1002203250592A8
:10912000029200920392049201959A6805921A792C
:109130006846002A5AD0012A4FD08B6898470023EE
:109140004E494F4823726360FEF7B4FF07B030BD4D
:10915000D8681A691044FFF7C1FD28B11128D9D188
:109160000123237207B030BD227C4249002AF9D185
:109170000A7A002AF6D0022A0BD1C8601A79002A8E
:1091800041D0012A05D11A69596901328A421A610E
:1091900045D0637C002B33D005F0A8F8E2E79D6949
:1091A0005A69D9681869521BB2F5805F28BF4FF41D
:1091B00080529208012A38BF012229442844FFF72F
:1091C0008BFDCAE72D492E48FEF744FF2A4B186055
:1091D0000346002897D16060C4E702228DF8002082
:1091E000DA68120302925B690493A6E701228DF804
:1091F00000201A690292DA6803925B6904939CE783
:10920000FFF7B8FDAEE79A695969881AB0F5805F33
:1092100094BF121802F5805291429A61B9D100228E
:10922000227219688868B0B1059200920192029288
:10923000039204929A6805921A79684682B1012ACB
:1092400007D102228DF80020DA68120302925B69CE
:1092500004938B68984709490948FEF72BFF98E764
:1092600001228DF800201A690292DA6803925B6984
:109270000493EEE730330020A03200209C3200201F
:109280008C320020FFF726B82DE9F041B0F81080AD
:10929000A8F104084144CF1C0646B7FBF8F7FFF7D6
:1092A00035F880B3FFB200250123013F0446A0F842
:1092B000068006600571437128D0804609E0637915
:1092C000AF4203F101036371C8F8000006608046F5
:1092D0001CD03046FFF71AF801350028EFD1667927
:1092E000721E234603D0013082421B68FBD81F68E0
:1092F0004EB1002523682146013538461C46FFF74C
:109300002DF8AE42F6D10020BDE8F0812046BDE840
:10931000F08100BF04300121FEF796BFF8B50121AE
:1093200004460430FEF79EFFC0B200B1F8BD667976
:10933000721E234603D0013082421B68FBD81F688F
:10934000002EF3D0002523682146013538461C46FF
:10935000FFF704F8AE42F6D1F8BD00BF2DE9F8439F
:10936000C788467907FB06F6D518043EAE42044688
:1093700003F10400884638BFF51AB0FBF7F128BFA7
:10938000154607FB110011B101392468FCD13E1AC2
:10939000AE4228BF2E469DB14FF000092044AD1BC0
:1093A000324608EB0901043010F00DFDAF42B14424
:1093B00024683E464FF0000028BF2E46002DEDD118
:1093C000BDE8F8832DE9F843C78890F805E007FB6E
:1093D0000EFED518AEF1040EAE45044603F10400AE
:1093E0008846B0FBF7F638BFC3EB0E0507FB160146
:1093F00028BF154616B1013E2468FCD17E1AAE4244
:1094000028BF2E469DB14FF000092144AD1B043109
:10941000324608EB090010F0D6FCAF42B144246894
:109420003E464FF0000128BF2E46002DEDD1BDE88D
:10943000F88300BF33DF704741DF7047064A074BB0
:1094400010B5002414701C60BFF35F8F04490548F9
:1094500000F08CF9204610BD443300204833002032
:10946000E0A303004C33002000B583B002A8002322
:1094700000F8013DFDF7EEFBF1EE103A23F09F03FB
:10948000E1EE103ABFF35F8F0A4B4022C3F884210C
:109490009DF80700FDF706FC04F038FF28B920BF4F
:1094A00040BF20BF03B05DF804FBFFF7C5FF03B06A
:1094B0005DF804FB00E100E070B5274D0646012190
:1094C0002846FEF77DFEBFF35F8FC8B9042E18D083
:1094D000224B1A788AB9224C2670224E01221A7029
:1094E00073682BB912E01F4800F04AF973686BB13A
:1094F0001B68207898470028F5D1BFF35F8F28605C
:1095000070BD184E164C7368002BF1D105F022FF88
:1095100005F080FA0028FBD12378023B012B0BD900
:1095200004F0F4FEA8B94FF080430122C3F80025EF
:10953000BFF34F8F20BFFDE7BFF34F8F0A490B4B9F
:10954000CA6802F4E0621343CB60BFF34F8F00BFE1
:10955000FDE7FFF76FFFE6E74833002044330020C4
:10956000453300204C33002000ED00E00400FA05F4
:109570000368826818685B68934234BF0133002334
:10958000C01AB0FA80F04009704700BFF0B583B050
:1095900002AB002503F8015D044618460E46FDF7B0
:1095A00059FB2368A26819685868904238BF451C67
:1095B000A94212D05F685D68AA420BD800225A60A7
:1095C000E268531E072B4CD8DFE803F033374B25F6
:1095D0004B4B4B1201355D60F2E7217C002931D005
:1095E00004249DF80700FDF75DFB204603B0F0BDA5
:1095F0006068D6E9002300EBC700C0E900232168BA
:109600000D684B689D420FD85B1B8A689A4238BF31
:109610008B600024E5E76368326843F827202168FF
:109620000D684B689D42EFD95A1CA068531B034438
:10963000EBE763683278DA55E1E76368328823F84C
:109640001720DCE75F685868824211D90130586002
:109650002268A16813688B4234BF01330023136072
:10966000AEE76068314607FB020010F0ACFBC6E7CE
:109670005960EDE70AB9104670472DE9F04182B014
:10968000054602A8002300F8013D0E461446FDF7EA
:10969000E1FA296808684B6898420ED95A1CAF68ED
:1096A000131A3B449C420BD905259DF80700FDF792
:1096B000F9FA284602B0BDE8F0811B1A9C42F3D8A3
:1096C000D1F800804F68EA686968B84584BFAF6820
:1096D0000137C8EB0707BC4202FB08110ED802FB9A
:1096E00004F2304610F06FFBA9682B6804EB080207
:1096F0008A4288BF00221A600025D6E707FB02F8DD
:109700004246304610F05FFBEA686968E41B06EBEE
:10971000080002FB04F210F056FB2B6800251C60C9
:10972000C3E700BF30B583B002AB002403F8014D9E
:1097300005461846FDF78EFA21460C22286810F0DF
:109740004DFB9DF80700FDF7ADFA03B030BD00BF3B
:109750008268002393608268136182685361826823
:10976000D3608268536082681360704701600B6841
:1097700043604A68934204BF00234360704700BFC0
:10978000426842B101688B68134443604A6893425F
:1097900004BF00234360704730B4184DA5F59472A0
:1097A000AB1ADB1003EBD3735B1002EBC30152F86F
:1097B0003330984228BF0C4605D311E052F83330BD
:1097C00098420CD221468B1ADB1003EBD3735B104B
:1097D000914202EBC304F1D8094830BC70470D46F2
:1097E000984204D904F10802AA42D9D3F4E7606888
:1097F000034B002808BF1846EFE700BF00A903008D
:1098000000A9030010B568B101280AD10C4C2369E6
:10981000A07033B10CCB0120226198472369002B43
:10982000F8D110BD064CA36801226270002BF8D05D
:109830000CCB0020A2609847A368002BF8D110BD84
:109840005433002068B910B5064CA3680122627039
:1098500033B10CCB0020A2609847A368002BF8D14D
:1098600010BD70475433002030B5012883B01CD0A0
:1098700015D3032811D100F0B1F902A800231E4C22
:1098800000F8013DFDF7E6F9E368013BE360E568B8
:109890005DB39DF80700FDF705FA03B030BD174B27
:1098A0000122C3F8802003B030BD02A80023124C6F
:1098B00000F8013DFDF7CEF923785BB910486360ED
:1098C000A3602361E36000F07BF904F01FFD80B129
:1098D00001232370E3689DF8070001330122E36050
:1098E000A270FDF7DFF903B030BD00F08BF9A57071
:1098F000CFE700F073F9EBE75433002000E100E01C
:109900000598020031DF704700B585B004AB002236
:1099100003F8012D8DF807001846FDF79BF904F0B8
:10992000F5FC30B19DF80F00FDF7BCF905B05DF80E
:1099300004FB0DF107010848FFF728FE0648FFF772
:1099400017FE0028EED000F02DFE9DF80F00FDF769
:10995000A9F905B05DF804FB38F7030000B583B042
:1099600090B103280DD102A8002300F8013DFDF7B6
:1099700071F90D480378012B0FD09DF80700FDF712
:1099800091F903B05DF804FB074B1B78012BF8D16C
:1099900000F008FE00F012FEF3E70449013000F089
:1099A000BDFD00F0EDFDE8E7B833002009990200A5
:1099B00010B5144C237882B013B1852002B010BDCD
:1099C00002AA114902F8013D002808BF0846038891
:1099D000A4F801301046FDF73DF904F097FC38B9C2
:1099E0000A49601C00F09AFD0028E7D100F0C8FD8C
:1099F00001239DF807002370FDF754F9002002B001
:109A000010BD00BFB83300201CA903000999020053
:109A100000B583B002A8002300F8013DFDF71AF954
:109A200004F074FC18B900F0BDFD00F0C7FD9DF80E
:109A30000700FDF737F90448FFF774FE034B0022D7
:109A40001A7003B05DF804FB38F70300B833002048
:109A500000293ED02DE9F047054682B08A4600260F
:109A6000BAF1400FD14628BF4FF040095FFA89F89C
:109A700042F207070CE09DF80700FDF713F9414695
:109A80002846FFF73FFFB8420446F1D0022C17D119
:109A90000DF107008DF80760FDF7DCF804F036FCE7
:109AA0000028E8D14A4629460A48FFF7E3FD044664
:109AB00000F066FD9DF80700FDF7F4F8022CE7D0F2
:109AC000002CD5D1BAEB090A4D44C9D102B0BDE88A
:109AD000F087704738F7030070B50A4A0A4B0678DA
:109AE0004568047AC06853F8213052F8211084B0D8
:109AF00003908DF8006001958DF8084068469847FE
:109B000004B070BDC0330020BC33002070B50A4AD9
:109B10000A4B067845688468C06853F8213052F8CB
:109B2000211084B003908DF8006001958DF80840F5
:109B30006846984704B070BDC0330020BC33002095
:109B4000F0B507460678194D1948DFF870E00C6942
:109B50004B7F45F826400EF8063040F826200C468C
:109B600094460FCC89B06D460FC594E80F003C7841
:109B70001EF8044085E80F0004965CB9BCF1000FA4
:109B80000C4A694607F10C0008BF002200F02CFEC9
:109B900009B0F0BDBCF1000F074A694607F10400A7
:109BA00008BF002201F050F809B0F0BDC03300201A
:109BB000BC3300200D9B0200D99A02006C460020A5
:109BC000054A13790BB1852070470121106053714C
:109BD00018461171704700BFC4330020084B1A6843
:109BE000D20706D40122E02183F80013C3F88021B4
:109BF0001A604FF080430122C3F81825704700BF58
:109C000000E100E0044B01221A604FF08042D2F8DC
:109C10001834DB03FBD470470C00004010B5144B24
:109C20001A6882B062B10021124A19601B6850792B
:109C300000934FF080410123009CC1F8083390B19C
:109C40000D4B1A686AB100221A601B6801934FF02D
:109C500080420221074B0198C2F808131B680120BB
:109C6000984702B010BD116853718847E8E700BFFC
:109C700000010040C43300200401004070B5224CB4
:109C800094F8585082B015B1082002B070BD4FF062
:109C9000FF332946FF26042204F154002363636343
:109CA000A363E36323646364A364E3642360636086
:109CB000A360E36023616361A361E361236284F8CD
:109CC00050306362A36284F85230E36284F8533008
:109CD00084F8516010F082F80C4B0D4A0D4E15605F
:109CE0004021E02083F80603C3F88011196013684F
:109CF000019301994FF000430122284684F858202F
:109D0000C6F8043302B070BDCC33002000E100E09F
:109D10007C61004000600040034B93F85800003025
:109D200018BF0120704700BFCC330020F0B56A4C4B
:109D3000231893F93050002D01DB0820F0BD91F875
:109D400002E0CEF3400E9446BEF1000F56D02568D7
:109D5000013500F0B280082600256B1C5E4F54F8D8
:109D60002320013251D0AB1CB34245D257F82320F7
:109D700001324AD0EB1CB3423ED257F823200132C5
:109D800043D02B1DB34237D257F8232001323CD0A9
:109D90006B1DB34230D257F82370013735D0AB1D5D
:109DA000B34229D254F823204B4F01322DD0EB1D62
:109DB000B34221D257F82320013226D005F10803FF
:109DC000B34219D257F8232001321ED005F10903FE
:109DD000B34211D257F82320013216D005F10A03FD
:109DE000B34209D257F8237001370ED00B35B54274
:109DF00002D2E36A013307D00420F0BD256A0135A1
:109E000061D00C260825A8E70B2326185DB244F87C
:109E100023C086F83050BEF1000F02D1234483F8EE
:109E200048008B785A0715D4DE073DD5830003F12F
:109E3000A043D3F8002722F00202C3F80027274FDF
:109E4000C60800F0070EBA5D012303FA0EF31343B0
:109E5000BB558B78C3F3400353B9083D2C440978B4
:109E600094F8502042EA811284F850201846F0BD40
:109E7000AD0005F1804505F5C0450B78D5F81025F6
:109E800022F4473222F44072C5F810251B04000268
:109E900003F44032D5F8101500F4F85313430B4384
:109EA000C5F810350020F0BD4A784FF0A04600F507
:109EB000E073920046F82320C1E70025C4F800C0F3
:109EC00083F83050ADE7082683F830603546C4F893
:109ED00020C03346A2E700BFCC330020203400204E
:109EE000F0B42E4D2E1882B096F93030072B1CDDC1
:109EF0002B4493F848309B09032B41D0012B14BF0E
:109F00004FF440334FF40033800000F1A040D0F80C
:109F1000002722F44032C0F80027D0F8002713436E
:109F2000C0F8003702B0F0BC7047DAB2072AF9D89F
:109F3000980000F1804000F5C04003F1400292001B
:109F4000D0F8104592B202F18042002744F001049B
:109F500002F5C042C0F8104501970198176000292A
:109F6000E0D096F9302055F82220002ADAD00122DC
:109F70000B4902FA03F3C1F8043302B0F0BC704796
:109F80004FF0A043D3F81035C34013F0010F0CBFBE
:109F90004FF400334FF44033B6E700BFCC3300201A
:109FA000006000404FF0A043D3F8103523FA00F0D2
:109FB00000F00100704700BF2DE9F04387B0002694
:109FC000C94B01961A68012A00F00482C74B1A682F
:109FD000012A00F0F181C64B1A68012A00F0DE81E7
:109FE000C44B1A68012A00F0CB81C34B1A68012ABE
:109FF00000F0B881C14B1A68012A00F0A581C04B5E
:10A000001A68012A00F09281BE4B1A68012A00F0FA
:10A010007F81BD4B1A68012A00F0598116F0FF0FAD
:10A020001AD0BA4F01250024A30003F180432E4229
:10A0300003F5C0434FEA45050BD0D3F8100557F898
:10A040002420D3F81015C0F30420C1F3014102B15C
:10A0500090470134082CE7D1002E02DB07B0BDE8A1
:10A06000F083AA4C00224FF0FF332746029203935D
:10A0700001260DF1080894F950104D1C2DD0C9B2DD
:10A0800021F0C00006AB4FEAD00E03EB0E0201F048
:10A09000070312F80CCC06FA03F31CEA030F1CD0DA
:10A0A0003D18890995F9305057F82590B9F1000FFE
:10A0B00000F0E880032900F0E8804FEA800E0EF1FE
:10A0C000A04E12F8145CDEF800271D40C2F30142D6
:10A0D00040F0B580032A00F0A281002594F95110C8
:10A0E000481C2FD0C9B221F0C00006AB4FEAD00EF9
:10A0F00003EB0E0201F0070312F80CCC06FA03F38F
:10A100001CEA030F1ED007EB000C89099CF930C034
:10A1100057F82C90B9F1000F00F0C680032900F029
:10A12000C6804FEA800E0EF1A04E12F814CCDEF875
:10A1300000271CEA030FC2F3014240F08D80032A7E
:10A1400000F0928194F952104A1C2ED0C9B221F02D
:10A15000C00006AB4FEAD00E03EB0E0201F007037E
:10A1600012F80CCC06FA03F31CEA030F1DD007EB20
:10A17000000C89099CF930C057F82C90B9F1000FF8
:10A1800000F08980032900F088804FEA800E0EF1EC
:10A19000A04E12F814CCDEF800271CEA030FC2F31D
:10A1A000014265D1032A00F04C8194F953104B1CF5
:10A1B0002CD0C9B221F0C00006AB4FEAD00E03EBA1
:10A1C0000E0201F0070312F80CCC06FA03F31CEAA6
:10A1D000030F1BD007EB000C89099CF930C057F81E
:10A1E0002C90B9F1000F69D0032969D04FEA800E95
:10A1F0000EF1A04E12F814CCDEF800271CEA030F73
:10A20000C2F3014211D1032A00F0F080002D3FF487
:10A2100025AF4FF0A043019AD3F8103593423FF495
:10A220001DAF029A0193039225E7022AEED103297A
:10A2300000F02D81B9F1000FE8D0C847E6E7022A07
:10A240007FF44BAF032900F02B810025B9F1000FFB
:10A250003FF444AFC84741E7022A7FF473AF0329B4
:10A2600000F01881B9F1000F3FF46CAFC84769E7FF
:10A27000022A9AD1032900F01081B9F1000F94D07D
:10A28000C84792E703297FF428AF18F80E501D4302
:10A2900008F80E5011E7032987D118F80EC04CEAD0
:10A2A000030C08F80EC070E703297FF44BAF18F8D1
:10A2B0000EC04CEA030C08F80EC032E70329A5D102
:10A2C00018F80EC04CEA030C08F80EC08EE7002206
:10A2D0001A601B6805934FF0A043059AD3F8103518
:10A2E000019346F0004699E6006100400461004099
:10A2F000086100400C6100401061004014610040A2
:10A30000186100401C6100407C610040CC3300209B
:10A31000654AD2F8042317067FF57BAE00221A6047
:10A320001B680493049B46F0800672E65E4AD2F8EE
:10A33000042352067FF568AE00221A601B6804935E
:10A34000049B46F040065FE6574AD2F80423910684
:10A350007FF555AE00221A601B680493049B46F0FB
:10A3600020064CE6504AD2F80423D0067FF542AED0
:10A3700000221A601B680493049B46F0100639E61D
:10A38000494AD2F8042314077FF52FAE00221A6041
:10A390001B680493049B46F0080626E6424AD2F85E
:10A3A000042355077FF51CAE00221A601B68049336
:10A3B000049B46F0040613E63B4AD2F804239707B1
:10A3C0007FF509AE00221A601B680493049B46F0D7
:10A3D000020600E63449D1F8041311F001011CD043
:10A3E0001E601B680493049B1646EFE503297FF467
:10A3F00021AF4FF40033DEF8002722F44032CEF8CC
:10A400000027DEF8002701351343EDB2CEF8003700
:10A41000B9F1000F7FF411AFFBE60E46D6E5032934
:10A420007FF414AF4FF40033DEF8002722F44032FB
:10A43000CEF80027DEF800271343CEF800370125B9
:10A4400004E703297FF419AF4FF40033DEF8002747
:10A4500022F44032CEF80027DEF8002701351343FE
:10A46000EDB2CEF8003708E703297FF4FBAE4FF4D6
:10A470000033DEF8002722F44032CEF80027DEF861
:10A48000002701351343EDB2CEF80037EAE64FF46A
:10A490004033B0E74FF44033EBE74FF44033D5E7B8
:10A4A0004FF44033C0E700BF00600040014B1B6821
:10A4B000184700BF28340020104B984201D00020DC
:10A4C000704730B583B002A8002300F8013D0D4667
:10A4D000FCF7C0FB0A4B1C7934B19DF80700FCF770
:10A4E000E1FB112003B030BD01229DF807001D6083
:10A4F0001A71FCF7D7FB204603B030BD00200040A6
:10A5000028340020034B984203D1034B00221A60E9
:10A510001A7170470020004028340020144B1A782C
:10A520000AB18520704730B40278124CD2072160FE
:10A5300006D51149D1F8042542F00102C1F80425DD
:10A540000D4C0E49D4F8002222F00102C4F800227A
:10A55000427852014FF400540125D2B281F80D2304
:10A56000C1F880410C601D70002030BC704700BFF6
:10A57000343400203034002000D0004000E100E0FE
:10A58000064A074B0021116082B0126801920199BE
:10A590000122C3F804231A6002B0704700D10040C2
:10A5A00000D000400349044A0123C1F80833136076
:10A5B000704700BF00D0004004D0004070B408488D
:10A5C000084E094D094A01234FF400540021C6F8F2
:10A5D00008332B60C0F88040117070BC704700BF1A
:10A5E00000E100E000D0004004D0004034340020FE
:10A5F00000B5084B0849094A0020186083B01B6861
:10A600000193019BD1F808051368C0B2984703B0C5
:10A610005DF804FB00D1004000D000403034002041
:10A6200030B56F4AD2F8043399058BB05CD5D2F8B7
:10A630002431002B58D00023C2F82431D2F8243121
:10A6400003934FF40171674B0398C2F8081393F812
:10A65000291009B901215160614902228DF81820A1
:10A66000D1F88024C1F880249869D9680992002221
:10A67000089007919A6193E81200DA6106A8A04752
:10A68000574AD2F81C31C3B1564B186A59698842EF
:10A6900067D293F8280000F0FF04002861D1C2F8C7
:10A6A0001C41D2F81C11029102999C68186A196A1F
:10A6B000205C01311962C2F81C05494AD2F84431C4
:10A6C00083B10021474BC2F84411D2F8440193F8FA
:10A6D00029100090009809B1012111609A69414B3D
:10A6E000002A53D10BB030BD3D4AD2F804335B078A
:10A6F000C6D5D2F80831002BC2D03A4B996900294F
:10A7000053D00021C2F80811D2F80811049104991D
:10A71000D868596AD2F8182542545A6A99690132A0
:10A720005A62586A2F4A8842AAD1D169002945D174
:10A7300092F8292012B92A4A01215160284A4FF47F
:10A740000171C2F80813596ADA68089100240120DF
:10A7500007928DF8180093E806009C6106A89047C0
:10A760008EE71F4A0020C2F81C01D2F81C2101927A
:10A77000019A0029A1D09A688DF8180008915861B3
:10A78000079206A893E80600904796E70022586AC9
:10A79000D9689A610122089007918DF8182006A8BF
:10A7A00093E8060090470BB030BDC2F80811D2F80C
:10A7B000080105900598D2F81825B2E7D568546AC3
:10A7C0001069916100230121D060D36153628DF83B
:10A7D00018100795089492E80A0006A898474FE7D2
:10A7E00000200040383400202DE9F041604E05790A
:10A7F0002C2303FB056382B093F82A301BB1082099
:10A8000002B0BDE8F0810F4604465A490068904600
:10A81000FFF752FE18B1112002B0BDE8F0813A688E
:10A82000511C0BD04FF0A04101239340C1F80835D3
:10A830003B6803F5E073032241F823207B685A1C30
:10A8400006D003F5E0734FF0A042002142F8231038
:10A850002368BA69C3F82425797D3B7D22680B43C0
:10A86000C2F86C3597E806002368C3F81425C3F8CE
:10A870000C153B7D012B51D02C2303FB05F3F21863
:10A88000C2F804803A69F250B8F1000F35D023685D
:10A890003A7F394F0021C3F81C11D3F81C310093C3
:10A8A0002368DDF800E0C3F84411D3F844112368AD
:10A8B00001910199C3F804732168090B4BB2002B75
:10A8C0004EDB03F1604303F561435201D2B283F8DA
:10A8D00000232268120B42F3C40323F0604323F0E9
:10A8E000030303F1604303F5614302F01F020121FA
:10A8F00001FA02F2C3F880211A602C23246803FBBA
:10A900000563002204250121C4F8005583F82A10AC
:10A910009A61DA6183F829205A6171E7BB68591C92
:10A9200006D003F5E0734FF0A042002142F8231057
:10A93000FB685A1C0DD001224FF0A04102FA03F32C
:10A94000C1F80835FB6803F5E073032241F82320C2
:10A95000FB682268B968C2F80835C2F810158BE7A1
:10A96000064B01F00F0152010B44D2B21A76B0E748
:10A970003834002021A6020080000200FCEC00E038
:10A98000F8B52F4D047902682C2303FB04530021F2
:10A990005B68C2F8001583B103682A4AC3F808232C
:10A9A0000368294E1B0B5AB25209203203F01F03D1
:10A9B000012101FA03F346F8223003684FF0FF3219
:10A9C000D3F80CE5D3F81475D3F80815D3F810654F
:10A9D000C3F81425C3F80C2503689645C3F8082569
:10A9E000C3F8102506D00EF5E07E4FF0A0430222FA
:10A9F00043F82E207B1C06D007F5E0774FF0A043EC
:10AA0000022243F82720721C06D006F5E0764FF0AC
:10AA1000A043022243F826204B1C06D001F5E0712A
:10AA20004FF0A043022243F821200068FFF76AFD9F
:10AA30002C2303FB0454002384F82A306360F8BD00
:10AA4000383400208402020000E100E0F0B5304E0E
:10AA500005792C2303FB056385B05C6914B11120D3
:10AA600005B0F0BD1C62996083F828405A61026805
:10AA7000C2F81C41D2F81C11026802910121029F08
:10AA800091600268D3F808E0C2F81C41D2F81C11AA
:10AA900001910199D3F820C0196A5F681EF80CC0B3
:10AAA00001311962C2F81CC517B1204605B0F0BDCE
:10AAB0001A6A5C690168944203D819E093F8282067
:10AAC000F2B9D1F81C21002AF8D0C1F81C71D1F8D4
:10AAD0001C210392039AD3F820C01A6A1EF80CC0F6
:10AAE00001321A62C1F81CC51A6AA242E9D3016890
:10AAF000D1F81C31002BFBD00123CB60002000E0FB
:10AB00000F202C2303FB056300225A61A8E700BF36
:10AB10003834002070B54A4BD3F8242188B0002A7D
:10AB200055D1D3F81011F1B9454BD3F8442152B1A6
:10AB30000020444AC3F84401D3F844419169019488
:10AB4000019C002960D13E4BD3F820214AB100215D
:10AB50003C4AC3F82011D3F8204150690094009C6E
:10AB600030BB08B070BDC3F81021D3F810113548C0
:10AB7000039103998169D3F83C458C42D4D1C569CE
:10AB8000002D50D0D3F80012C668856121F0200155
:10AB9000C3F800120369C26101220168C3608DF825
:10ABA0001840436805968DF8102004A89847BBE725
:10ABB000D3F84C0593688DF818008DF8101051618A
:10ABC000059304A892E80A00984708B070BD0021D8
:10ABD000C3F82411D3F82421029202228DF8102008
:10ABE000029AD3F88004174AC3F880040790D3F878
:10ABF0003C05D3688DF818009161D1610593116807
:10AC0000536804A898478FE7D3F83C458DF818405F
:10AC1000D368906101240593116853688DF8104042
:10AC200004A898478FE7C3680168856101220593EE
:10AC30008DF8184043688DF8102004A8984773E7F2
:10AC400000200040643400202DE9F0430479704E68
:10AC5000E7003B1906EB830385B093F820301BB166
:10AC6000082005B0BDE8F0838946054669490068BB
:10AC70009046FFF721FC18B1112005B0BDE8F08324
:10AC8000D9F80020511C0CD04FF0A0410123934073
:10AC9000C1F80835D9F8003003F5E073032241F814
:10ACA0002320D9F804305A1C06D003F5E0734FF086
:10ACB000A042002142F823102B68D9F81820C3F8CD
:10ACC000242599F8151099F814202B680A43C3F825
:10ACD0006C252A68D9F80030D9F80410C2F80C3570
:10ACE000C2F8141599F81430012B61D03A1992006A
:10ACF000B318C3F80480D9F81030B350B8F1000F7E
:10AD000047D0296899F81C20DFF810E10023C1F82A
:10AD10001031D1F8101100912968DDF800C0C1F898
:10AD20002031D1F8201101912968DDF804C0C1F863
:10AD30002431D1F8241102912968DDF808C0C1F846
:10AD40004431D1F844112B6803910399C3F804E30B
:10AD50002968090B4BB2002B51DB03F1604303F56B
:10AD600061435201D2B283F800232A68120B42F3E6
:10AD7000C40323F0604323F0030303F1604303F5AE
:10AD8000614302F01F02012101FA02F2C3F880219F
:10AD90001A603C442A6806EB84040023012508213C
:10ADA00084F82050C2F80015A361E361636158E79D
:10ADB000D9F80830591C06D003F5E0734FF0A042D3
:10ADC000002142F82310D9F80C305A1C0FD0012270
:10ADD0004FF0A04102FA03F3C1F80835D9F80C305E
:10ADE00003F5E073032241F82320D9F80C302A68D8
:10ADF000D9F80810C2F80835C2F8101576E7064BE6
:10AE000001F00F0152010B44D2B21A76ADE700BF38
:10AE10006434002015AB0200FCEC00E010030200DB
:10AE2000F8B505792F4C0268EE00731904EB830323
:10AE300000215B68C2F8001583B103682A4AC3F891
:10AE400008230368294F1B0B5AB25209203203F022
:10AE50001F03012101FA03F347F8223003684FF082
:10AE6000FF32D3F80CC5D3F814E5D3F80815D3F89E
:10AE70001075C3F80C25C3F8142503689445C3F86E
:10AE80000825C3F8102506D00CF5E07C4FF0A04350
:10AE9000022243F82C20BEF1FF3F06D00EF5E07EE3
:10AEA0004FF0A043022243F82E207A1C06D007F56B
:10AEB000E0774FF0A043022243F827204B1C06D036
:10AEC00001F5E0714FF0A043022243F82120354400
:10AED00004EB85040068FFF715FB002384F820309D
:10AEE0006360F8BD643400201003020000E100E05C
:10AEF00001F06043B3F1005F01D010207047F0B55E
:10AF00000579214EEF007C1906EB840483B0636958
:10AF100013B1112003B0F0BDA1606261D0F800E070
:10AF2000CEF82031DEF820C1D0F800E0CDF804C022
:10AF3000DDF804C0CEF85831DEF858C1D0F800E092
:10AF4000CDF800C0DDF800C0CEF84415CEF8482595
:10AF500002680121916062680AB11846DAE7036865
:10AF600000E079B9D3F82021D3F85811002AF8D09D
:10AF7000002914BF0F2000207B1906EB8303002259
:10AF80005A61C7E70F20F7E76434002075DF704788
:10AF900076DF70478FDF704710B5014604460448DE
:10AFA00002F074FF21460348BDE8104002F0EABDFC
:10AFB000183500208C34002010B50446002000F025
:10AFC0007BFE10B92CB1012010BDFBF7E3FA002C79
:10AFD000F9D101F003F90028F5D0FBF7DBFA0120E5
:10AFE00010BD00BF10B40B8840F67722934214D0F6
:10AFF0004DF67A2293420DD10B794A880A480B4CC0
:10B000000B49001BC008000440F003005DF8044B2E
:10B0100003F03CBF5DF8044B70478B884A880248B8
:10B02000024C0449EDE700BF7CF703004CF7030036
:10B0300084A9030054A9030038B50B78012B0FD065
:10B04000022B0CD1154B16488A881649181AC008CD
:10B05000000440F00300BDE8384003F099BE38BD5D
:10B060000C460A1D4988054603F03CF870B9608813
:10B07000002109F0E3FB112800D020B9284602F096
:10B08000F1FF30B938BDFBF785FAF7E7FBF782FA35
:10B09000EDE7BDE83840FBF77DBA00BF7CF7030061
:10B0A0004CF70300B4A903000B78012B1ED00DD37D
:10B0B000022B0AD10A79154B15481649181AC008EF
:10B0C000000440F0030003F063BE704710B50A1D92
:10B0D0004988044602F0CCFEA0B9204602F086FE64
:10B0E00068B9204602F03AFE28B910BD0A79074B2C
:10B0F00007480949E2E7BDE81040FBF74BBAFBF708
:10B1000049FAEEE7FBF746FAE7E700BF7CF70300F2
:10B110004CF70300E8A90300C8A9030010B50446D2
:10B1200009F03CFD204609F0CBFE23780C2B00D023
:10B1300010BD0020FDF7AAFD18B10F4B01221A70B7
:10B1400010BD0E4B0E480F49181AC008000440F0FD
:10B15000030003F0A7FD0C4807F07CFE40B9012076
:10B1600000F0AAFD0028E3D0BDE81040FBF712BABA
:10B17000FBF710FAF3E700BF883400207CF70300E8
:10B180004CF7030008AA03009C3400200238012871
:10B190000DD810B5134C237803B910BD0023184601
:10B1A0002370FDF773FD18B10123237010BD7047A4
:10B1B0000D4B0E480E49181AC008000440F0030059
:10B1C00003F070FD0B4807F045FE40B9012000F088
:10B1D00073FD0028E1D0BDE81040FBF7DBB9FBF7B9
:10B1E000D9F9F3E7883400207CF703004CF703001B
:10B1F00008AA03009C34002070B50378042BB4B077
:10B200005BD0062B52D0012B01D034B070BD382258
:10B21000002106A80EF0E2FD8022002114A80EF005
:10B22000DDFD082310224FF6FF7102A80093019361
:10B230000EF0D4FD4FF6FF7009F072FB4FF6FF766B
:10B24000B042034668D002AD002401E0082C09D0CA
:10B25000184625F8023B09F063FBB042034604F1AF
:10B260000104F3D1214602A809F0F6FA00284DD1D5
:10B27000214602A809F012FB062801D0002842D17D
:10B2800001AB14AA06A8694609F0F0FA009B234C0A
:10B290003BB3237833B10021214807F015FE08B1F4
:10B2A000FBF778F90023237034B070BD40680028A4
:10B2B000ABD0FBF76FF934B070BD1A4B1A4C1B4979
:10B2C0001C1BE408240444F00304204603F0EAFCB9
:10B2D0000020FDF7DBFC40B1154B01221A7034B0A1
:10B2E00070BD019B002BD6D0D3E72046114903F057
:10B2F000D9FC0B4807F0AEFD58B9012000F0DCFC8A
:10B30000002882D0D5E7FBF745F9B9E7FBF742F90A
:10B31000AEE7FBF73FF9F0E70024A3E798340020FD
:10B320009C3400207CF703004CF7030018AA0300AC
:10B330008834002008AA03000728F8B514D00A288A
:10B340000DD0042800D0F8BD13210020FFF720FE07
:10B3500030F00803F7D0BDE8F840FBF71BB9002038
:10B36000BDE8F840FEF7A8B8154E3578002DEAD1B3
:10B37000144B154C15491C1BE408240444F0030429
:10B380002046012703F08EFC377007F0F7FC2846B3
:10B39000FDF77CFC10B10E4B1F70F8BD20460D4927
:10B3A00003F080FC0C4807F055FD28B9012000F09F
:10B3B00083FC0028C7D0CEE7FBF7ECF8F6E700BF28
:10B3C000983400207CF703004CF7030028AA030000
:10B3D0008834002008AA03009C34002070B503883C
:10B3E000103B86B00446462B2CD8DFE803F02D5ADC
:10B3F0002B2B2B2B2B7783872B9E2B2B2BA52BAE2D
:10B400002B2B2B2B2B2B2B2B2B2B2B2B2B2B2B2B8C
:10B410002B2B2B2B2B2B2B2B2B242B2B2B2B2B2B83
:10B420002B2B2B2B2B2B2B2B2B2B2B2B2B2B2B2B6C
:10B430002B2B2B2B240080881321FFF7A9FD08B1AB
:10B44000FBF7A8F806B070BD4D4B4E4D4E495D1B45
:10B45000ED082D0445F00305284603F023FCA188E0
:10B460004A4804F0BDFE002840F08280072000F02A
:10B4700023FC002879D105F0C9FE0028E2D1FDF7B0
:10B4800005FC38BB2846424903F00CFC414807F054
:10B49000E1FC002871D1012000F00EFC0028D1D081
:10B4A000CEE7374B3748227A3B491C1AE40824047C
:10B4B00044F00304204603F06BFC002000F0FCFB8A
:10B4C00000284FD105F0A2FE0028BBD1FDF7DEFB1E
:10B4D000002850D0314B01221A70B3E7284B29487D
:10B4E0002F49181AC008000440F0030003F0DAFBEB
:10B4F00006B070BD224B23482A49F2E72049214873
:10B50000A57A637A227A667B247B0194081AC008A4
:10B51000C5F3C00100040091029640F00300C3F39C
:10B520008003214903F04CFE8CE7037A022B89D17A
:10B53000134B14481D49D4E700F108018088FFF738
:10B5400025FD00283FF47EAF7AE7002380888DF840
:10B55000143005A98DF81530FFF71CFD00283FF4C5
:10B5600071AF6DE7FBF716F8ACE7FBF713F882E76E
:10B57000FBF710F87AE7204685E7FBF70BF88AE738
:10B580007CF703004CF7030048AA0300D82A0020E8
:10B5900008AA03009C34002054AA03008834002029
:10B5A00090AA0300B0AA0300D0AA030070AA030067
:10B5B00070B54FF4004186B0002003F0CDF908B11A
:10B5C000FAF7E8FF03F054F9FBF74CFA08B1FAF781
:10B5D000E1FFFDF733FF08B1FAF7DCFF76490320FE
:10B5E00000F004FD08B1FAF7D5FF02A9002000F031
:10B5F00007FE08B1FAF7CEFF9DF8085002F080FD73
:10B6000008B1FAF7C7FF002302A90120029302F054
:10B61000CFFE08B1FAF7BEFF02A802F0A9FF08B1F9
:10B62000FAF7B8FF6549664807F054F808B1FAF729
:10B63000B1FF09F06FF808B1FAF7ACFF052200215D
:10B6400002A80EF0CBFB9DF808309DF80B109DF87A
:10B650000C2003F0F80343F00503032003F0F70385
:10B6600060F30613014302436FF3C7130726102448
:10B6700002A88DF808308DF80B108DF80C208DF88D
:10B6800009608DF80A4009F0CFF808B1FAF782FF97
:10B690004C4809F0ADF808B1FAF77CFF4A4804F0CD
:10B6A0001DFD08B1FAF776FF484B4948029302A9FD
:10B6B00002F038FC08B1FAF76DFF464B464802939A
:10B6C00002A902F0AFFA08B1FAF764FF10220021D4
:10B6D00002A80EF083FB414B029302A90123404ACA
:10B6E00040488DF80C308DF8143007F049FB08B154
:10B6F000FAF750FF3C4B1868019001AA0321394822
:10B7000007F082FA08B1FAF745FF38480EF078FBE7
:10B71000002846D100221F21324807F00DFB08B156
:10B72000FAF738FF324B334C33491C1BE40824042E
:10B7300044F00304204603F0B5FA022D28D1204638
:10B740002E4903F0AFFA09F009F9F0B907F096F9BC
:10B7500048B903F05FF90028FBD1FDF785FE07F03B
:10B760008DF90028F5D0FAF715FFF2E720462449B5
:10B7700003F098FA1B4807F06DFB08B1FAF70AFFCF
:10B78000012000F099FA0028E0D0FAF703FFDDE786
:10B790000020FDF77BFA0028E8D01A4B01221A702E
:10B7A000D4E7124A0F48002107F02EFA0028B1D042
:10B7B000FAF7F0FEAEE700BF39B30200E5AF0200D2
:10B7C000243500201DB1020099AF020039B00200FB
:10B7D00018350020A9B002008C34002060AB0300B3
:10B7E000F9B102009C3400204CA9030050A90300C9
:10B7F0007CF703004CF7030038AB030028AB0300D1
:10B8000008AA03008834002004F04EBA002108463C
:10B8100004F0FCB908B508461146FEF719F90020F6
:10B8200008BD00BF30B5054683B00020FEF7C0F864
:10B83000044608B103B030BD0435284601F084FE4B
:10B8400028460094234622460A4901F079FF10F168
:10B85000360F0CD00028EDD048F2115448F21653A0
:10B8600010F1380F0CBF2046184603B030BD48F227
:10B870001450DFE715B8020008B5043001F06AFE85
:10B88000FEF7C6F8002008BD08B5043001F080FFBF
:10B8900010F1360F0AD058B148F2115248F216533F
:10B8A00010F1380F0CBF1046184608BD48F214506E
:10B8B00008BD00BF114608B51A46043001F05AFE13
:10B8C00010F1360F0AD058B148F2115248F216530F
:10B8D00010F1380F0CBF1046184608BD48F214503E
:10B8E00008BD00BF022003F0E9BE00BF2DE9F0470C
:10B8F0000D46064603F006FF03281ED8012D044618
:10B900001FD00ED3022D1AD11C4B00EB40041C4457
:10B91000657895B11A4B1B687BB12846BDE8F047A6
:10B9200018471848FBF75AF91449174A04EB44031F
:10B930000B44155D9B789D42EBD0BDE8F087BDE8D8
:10B94000F087DFF8388047003B1808EB030218F84F
:10B95000035053782BB9274447440B4BBA781A55F8
:10B96000D7E7DFF8289007484A464FF40041FBF735
:10B97000DFF80028EFD189F80060ECE7B03500204F
:10B98000683500206C350020383500208C350020CB
:10B9900010B5007803F0B6FE03280BD8064B00EB79
:10B9A00040001844407828B1044B1B6813B1BDE82F
:10B9B0001040184710BD00BFB0350020683500208A
:10B9C000B44B1B68DB0700D4704770B5B24EB34D63
:10B9D00033782C78FBB9172C1CD8DFE814F0F10071
:10B9E0001701170163007600830096005D0039009F
:10B9F0002C0039002C00A300A800A800A800A80073
:10BA0000A800CE00DE00040146001800180003F074
:10BA10003FFE2C7070BDA24B1B7800203070002BB5
:10BA200000F0088103F012FE012003F00FFE032056
:10BA300003F00CFECFE701231846337003F03EFEFF
:10BA400000224FF480419748BDE87040FBF770B882
:10BA500001231846337003F031FE002240F6CD4139
:10BA60009048BDE87040FBF763B88D4B1B78002B06
:10BA700000F00181002003F0E9FD012003F0E6FD64
:10BA8000032003F0E3FD002003F0D4FD012003F0C8
:10BA9000D1FD15232B7070BD002003F0CBFD0723D3
:10BAA0002B7070BD002003F0B5FD002800F0D6809B
:10BAB000002003F0CBFD46F2666103232B700022C9
:10BAC0007848BDE87040FBF733B8002003F0A2FDD2
:10BAD000002800F0C880002003F0B8FD4FF40031CA
