:020000022000DC
:1060000000000120D1620200F9620200FB6202007E
:10601000FD620200FF620200016302000000000056
:106020000000000000000000000000000363020008
:10603000056302000000000007630200096302001C
:10604000DD7A02000B6302006D8302000B63020025
:106050000B6302000B630200797E02000B630200F7
:106060000B6302000B6302000B6302000B63020070
:106070000B6302000B6302000B6302000B63020060
:106080000B630200256602000B6302000B63020033
:10609000C56602000B630200F9B002000B63020048
:1060A0000B6302000B6302000B6302000B63020030
:1060B0000B6302000B630200000000000000000000
:1060C0000B6302000B6302000B6302000B63020010
:1060D0000B6302000B6302000B6302000000000070
:1060E00000000000000000000000000000000000B0
:1060F00000000000000000000000000000000000A0
:10610000000000000000000000000000000000008F
:10611000000000000000000000000000000000007F
:10612000000000000000000000000000000000006F
:10613000000000000000000000000000000000005F
:10614000000000000000000000000000000000004F
:10615000000000000000000000000000000000003F
:10616000000000000000000000000000000000002F
:10617000000000000000000000000000000000001F
:10618000000000000000000000000000000000000F
:1061900000000000000000000000000000000000FF
:1061A00000000000000000000000000000000000EF
:1061B00000000000000000000000000000000000DF
:1061C00000000000000000000000000000000000CF
:1061D00000000000000000000000000000000000BF
:1061E00000000000000000000000000000000000AF
:1061F000000000000000000000000000000000009F
:1062000010B5054C237833B9044B13B10448AFF3F0
:1062100000800123237010BDB02E0020000000007C
:10622000ACE60200084B10B51BB108490848AFF3B3
:1062300000800848036803B910BD074B002BFBD052
:10624000BDE81040184700BF00000000B42E002039
:10625000ACE60200A82E002000000000154B002B29
:1062600008BF134B9D46A3F5803A00218B460F468D
:106270001348144A121A06F0C1FD0F4B002B00D030
:1062800098470E4B002B00D09847002000210400B7
:106290000D000D48002802D00C48AFF3008006F036
:1062A00045FD2000290002F0B5FE06F02BFD00BFE1
:1062B00000000800000001200000000000000000B5
:1062C000B02E0020943B00200000000000000000E1
:1062D0000649074A074B9B1A03DD043BC858D050B8
:1062E000FBDC06F029FBFFF7B9FF0000B8E702006E
:1062F000E0290020B02E0020FEE7FEE7FEE7FEE7E3
:10630000FEE7FEE7FEE7FEE7FEE7FEE7424B197811
:1063100000297FD02DE9F04F002487B001258E465B
:1063200003E00134E4B2744561D23C4B27B21E68ED
:1063300016F83700A0F1200305FA03F9384BC0F135
:106340002001D3E9002325FA01F149EA010905FA00
:1063500000F808EA020A09EA030B5AEA0B0C06EBFA
:10636000C701DED005912E4922EA080223EA09037B
:10637000C1E9002301F076FD16F83760A6F120028E
:1063800005FA02F201920199C6F120035FFA80FA40
:1063900025FA03F3A6F1200219430AFA02F3039344
:1063A000019105FA06F10091C6F1200703991D4BF2
:1063B0002AFA07F73943D3E9002303910AFA06F1D1
:1063C000DDE900AB02910AEA020A0BEA030B52462E
:1063D0005B46DDE902AB5B4508BF5245059909D034
:1063E0000D4B013493F800E0E4B274459DD307B03F
:1063F000BDE8F08F4B68002BF2D04978A1F1010184
:10640000B1FA81F14909091AB1FA81F14909304615
:106410009847E5E7704700BFD42E0020D02E00201B
:10642000002F0020F82E00202DE9F84306462048D2
:1064300000F0D4FBD0B91F4F0123A6F1200103FACD
:1064400001F5C6F12002D7E9000123FA02F2154353
:1064500003FA06F404EA000205EA0103134307D035
:1064600020EA040421EA0505C7E90045BDE8F883F0
:10647000304601F0F7FC104ED6E9008998B148EAA1
:10648000040849EA0509D7E9002314431D43C6E976
:106490000089C7E90045094B054819680022BDE895
:1064A000F84300F045BB28EA040829EA0509EAE7B1
:1064B000D82E0020002F0020F82E0020CC2E002007
:1064C000042A01D807207047F0B583B00F4605466F
:1064D000164601F081FB002831D01B4C1B4A1C4B97
:1064E0001C481D49256017707C1E00221E60002379
:1064F000C0E90023C1E90023E4B2D7B10027032695
:1065000002E0DBB2ACB11C4623B205EBC30215F8C6
:1065100033009378114A8DF8053001A98DF8067083
:106520008DF8046001F062FB631E0028E9D003B01F
:10653000F0BD0B4A0B48002100F0E8FAF7E701F044
:10654000FDFA0028C9D0F2E7D02E0020D42E00207A
:10655000CC2E0020F82E0020002F002029640200FD
:106560000D6302006CD1020070B5084D2B785BB151
:10657000074E00243368012113F8340001F010FCA9
:106580002B780134A342F5D8002070BDD42E002012
:10659000D02E002000B585B000230390194601AA33
:1065A00044F201000193029300F004F805B05DF895
:1065B00004FB00BF10B572B605F038FD05F018F900
:1065C0000028FBD1104B114C11491C1BE40824047A
:1065D00044F0010005F054FA0E4B1B68DB0700D5B0
:1065E00000BE44F002000C4905F04AFABFF34F8F99
:1065F0000A490B4BCA6802F4E0621343CB60BFF355
:106600004F8F00BFFDE700BFE4E60200BCE60200DA
:1066100070D10200F0ED00E07CD1020000ED00E05E
:106620000400FA05F8B5204A204B0025C2F8405175
:10663000C2F84451C2F84851C2F84C51C2F8005156
:10664000C2F804511B6813B31949D2F804250C6829
:10665000141B1A6824F07F44A2422F4609D8197CE3
:10666000DE69A41A154499B91EB133461A68A242CC
:10667000F5D9104B10491A780B789A420DD00F4972
:106680000F4A41F823504FF48013C2F80031F8BD8F
:106690001F745A6998699047E6E7531CDBB2022BD6
:1066A00008BF00230B70EAE7001001400C2F002008
:1066B000082F0020102F0020112F00202030002054
:1066C00000E100E02DE9F04FAB4AAC4913780978BE
:1066D000994287B036D00133DBB2022B08BF0023CA
:1066E000A7481370A74A076852F82310DFF8B0A232
:1066F0007A18DAF80030002422F07F420260264641
:106700002046A646ABB11A688A4200F26581DC6871
:10671000C3F800E0891A1044DA6934B13D1825F055
:106720007F45DE619C605D601E4613460124002BA0
:10673000E9D1002C40F084810023029301230393CC
:10674000029D07E0DFF858A2DAF800300293002635
:1067500003961D468C4BDFF83892DFF848B243F0C1
:1067600001030493002301934EB37068B368344669
:10677000F669834A854F1168421A22F07F42BA4275
:106780003AD813442360002201216260A260E261D2
:106790002174002D62D02968994245D2284603E031
:1067A0001168994230D21046C2695B1A002AF7D1AB
:1067B0002360E2612B46C4611D46002ED5D199F8B5
:1067C000003099F8012072499A427DD05A1C88788D
:1067D000D2B2904203EB43030A7008BF0E7009EB7C
:1067E000C3010B798C68022B49D0032B3BD0012BC2
:1067F00022D02B461D46E0E7091A21F07F4199423D
:1068000009D25B1A2360BEE7C91A11602360E261F6
:106810002B46C461D0E70023012223606360A3609C
:10682000E3612274D5B12968CAF80040CB1A2B6005
:106830002346E5611D46C0E7227C002AD9D1C868FD
:1068400060600B69A3604F69E7609BF8007089691D
:10685000A161002F8DD0626010468AE72346CAF8F6
:1068600000401D46A9E700220DB9C2E71D46EB69AD
:106870002A74002BFAD1CAF800301D469DE75DB19D
:10688000AC4200F09180A84602E0944209D09046C4
:10689000D8F81C20002AF8D12B46002222741D466D
:1068A0008BE7444500F08280E1692068C8F81C103D
:1068B0002B460029F0D00A6802440A60019A9D42E2
:1068C00018BF01220192E8E7019B13B9029B9D4288
:1068D00079D0002D00F09880294B2E481C68D0F804
:1068E00004652D4FD5F800903B78351B25F07F458A
:1068F0000335BBB9294B24494FF48032C0F84423F7
:106900004FF00108C0F804234FF40032C3F880218F
:1069100041F001011A60C0F800804FF43C608847E4
:1069200087F80080A9452CBF4C446419194824F00D
:106930007F43C0F84035D0F80415891B9B1B21F01C
:106940007F4123F07F43033199420ED90E4BD0F89B
:106950000415C0F8401543F001034FF43C6098471C
:106960000E4B4FF40031C3F8001100238BF80030B8
:1069700007B0BDE8F08F00BF102F0020112F0020BE
:10698000082F00202030002090D10200FEFF7F0061
:10699000142F0020001001402830002000E100E00A
:1069A0000C2F0020122F00202A46A846EB69CAF8B7
:1069B0000030264FCBB1D1691068C8F81C100029EF
:1069C0003FF47CAF77E7039B002B82D100238BF849
:1069D000003007B0BDE8F08F002C34D1521A02937A
:1069E0001A6001230393029DB4E60592184A1949DF
:1069F000012090608BF800000B604FF43C60049B1A
:106A000098473B68059AD6E7114E1349134C4FF44B
:106A1000803301274FF40030C1F880003C43C6F8B2
:106A200048334FF43C60C6F808337760A047094B01
:106A3000B7604FF43C601D60A047094B1D7094E7A0
:106A4000CAF8003078E6CAF80030C7E70C2F0020FB
:106A500000100140082F002000E100E090D102006A
:106A6000283000202DE9F8431F4D204E204FDFF83D
:106A700098804FF480334FF400324FF00109002426
:106A8000C6F8802047EA0907C5F848334FF43C6050
:106A9000C5F80833C5F80490B847C5F808904FF416
:106AA0003C60C8F80040B847124B13481349144AD9
:106AB0001C70144B04600C7014704FF48011E022B1
:106AC0000B2098701C705C70C6F8801186F8142337
:106AD0003160C5F8084586F81123D5F80435C8F8A3
:106AE00000302046BDE8F8830010014000E100E0DE
:106AF00090D10200283000200C2F0020102F002001
:106B0000112F0020142F0020082F0020074B9B7806
:106B10000BB9082070473AB130B10368187C0028DF
:106B2000F7D159745A61704707207047142F00201D
:106B30002DE9F043264CA37883B01BB9082003B09D
:106B4000BDE8F0830028F9D0042903D8072003B05A
:106B5000BDE8F0834369002BF0D0064602A8737CA1
:106B60000025012B00F8015D0CBF8946A94690461F
:106B70000F4600F06FF86378A07821785A1CD2B2E3
:106B8000904208BF2A4691421BD003EB430304EB1B
:106B9000C30301200F4918719E60D1F804159DF8B8
:106BA0000700D9601F61C3F81490C3F818806270A1
:106BB00000F078F8084B4FF480122846C3F8002103
:106BC000BDE79DF8070000F06DF80420B7E700BFAF
:106BD000142F00200010014000E100E070B51B4CB4
:106BE000A37882B013B9082002B070BD0028FAD093
:106BF0004369002BF7D0064602A8002500F8015D86
:106C0000357400F027F86278A0782178531CDBB245
:106C1000984208BF2B46994212D002EB420204EB85
:106C2000C20202219DF8070096601171637000F0A6
:106C300039F8074B4FF480122846C3F80021D3E7F8
:106C40009DF8070000F02EF80420CDE7142F002057
:106C500000E100E0F0B4EFF3108472B60E4B9A68D6
:106C6000B2B90E4901259D60D1F880700C4D2E46B9
:106C70003D401D60C1F88060D1F884505D604FF0E8
:106C8000FF33C1F88430027004B962B6F0BC7047BB
:106C900001230370F8E700BF843B002000E100E01F
:106CA000FC06FFBD094B9A6872B168B910B4EFF3E6
:106CB000108272B606491C680C605C684C60986073
:106CC00002B962B65DF8044B704700BF843B0020F8
:106CD00000E100E001F01F024B09012100EB8300FD
:106CE000914000F025B800BF10B4012201F01F044C
:106CF0004B0902FA04F100EB8300C9435DF8044B31
:106D000000F024B84B0901F01F0150F82300C840DF
:106D100000F00100704700BF00B550E8002F0B469F
:106D200040E8003E9EF0000FF7D110465DF804FBEE
:106D300000B550E8003F43EA010240E8002E9EF013
:106D4000000FF6D110465DF804FB00BF00B550E817
:106D5000003F03EA010240E8002E9EF0000FF6D14A
:106D600010465DF804FB00BF00B550E8003F03EBA0
:106D7000010240E8002E9EF0000FF6D110465DF8AB
:106D800004FB00BF00B550E8003FA3EB010240E860
:106D9000002E9EF0000FF6D110465DF804FB00BFF8
:106DA00000B5012350E8002F42EA030E40E800E15D
:106DB00091F0000FF6D170465DF804FB00B500239A
:106DC00050E800EF0EEA030240E8002191F0000FC6
:106DD000F6D170465DF804FBB8B130B44168826802
:106DE0000468521AD2B2531E2160DBB242B101686C
:106DF0000A685C1E551C0D601370E3B2FF2BF6D1C0
:106E000003680020187130BC70470E20704700BF27
:106E100070B582B002AB002503F8015D0446184648
:106E2000FFF718FF236861681A688A4210D9511E5B
:106E300019602168A3680E680879258A12F8012C68
:106E4000E4689B1BDBB2984205FB024538BF0B711F
:106E50009DF80700FFF726FF284602B070BD00BF6F
:106E600030B583B002AB002203F8012D0546184669
:106E70000C46FFF7EFFE2A681368591C1160E96899
:106E80002A8A641AB4FBF2F41C709DF80700FFF71D
:106E900009FF03B030BD00BF826802B9704710B56A
:106EA000044643690168006998470023A36010BD48
:106EB0000EB400B582B0039929B102AA04AB42F81E
:106EC000043D00F095F802B05DF804EB03B07047A4
:106ED0002DE9F84F1746B942884606461D46DDF8AB
:106EE00028B00B9A7DD30B464FF00109B3FBF7F3A3
:106EF0009F4209F10109F9D9A94538BFA94612F005
:106F0000010A02D1BBF1000F49D1B268012402E0AD
:106F1000013D07FB04F4012DFAD8B8FBF4F18F42D0
:106F2000F7D9324D05E0B4FBF7F4A4B1B8FBF4F1A6
:106F3000B268685C531CB36033689854B268736875
:106F40009A4201FB1488EED33046FFF7A5FFB4FB4D
:106F5000F7F4002CEAD1BAF1000F16D0BBF1000F04
:106F600033D0CB4588BF20243ED9B3683268591C42
:106F7000B160D454B26873689A420BF1FF3B06D2F9
:106F8000BBF1000F09D0D945EFD3BDE8F88F3046EB
:106F9000FFF782FFBBF1000FF5D1BDE8F88F930733
:106FA0001AD42024D945B0D2B2683368511CB160DC
:106FB0009C54B26873689A420BF1FF3B07D2BBF155
:106FC000000FA3D0D945F0D3A0E7BDE8F88F304635
:106FD000FFF762FFB268F2E7002D0CBF30242024D7
:106FE000E0E74FF0010987E7BDE8F88F98D102008C
:106FF000002900F061822DE9F04F064685B09146E8
:107000000C460B78DFF8ECA40DE0B2683168501C38
:10701000B0608B54B26873689A4280F0D380237852
:10702000002B00F0BA800134002B00F0B680252B35
:10703000EBD14FF00008214614F8013B2D2B00F056
:10704000BB80302B00F0BB802B2B00F0AD802A2BB7
:1070500000F0BC80A3F13005EAB2092A98BF0131E3
:1070600002D9A6E1A2F130050C4611F8013BA3F1CB
:10707000300005EB8502092803EB4202F2D91A46DB
:107080002E2A00F0AF80002701E014F8012F02F053
:10709000FB03682BF9D0253A532A79D8DFE812F0A0
:1070A0007601780078007800780078007800780021
:1070B0007800780078007800780078007800780010
:1070C0007800780078007800780078007800780000
:1070D00078007800780078007800780078007800F0
:1070E00078007800780078007800780078007800E0
:1070F00078007800780078007800780078007800D0
:1071000078007800780066017800780078007800D0
:107110007800780078007800780078005101F90054
:107120007800780078007800F9007800780078001E
:10713000780078007800540078007800C900780062
:10714000B900780078006601D9F80020131DC9F84D
:107150000030B36831681568581C3022B060CA54DA
:10716000B3687268934280F0AE813268581C78210F
:10717000B060D154B26873689A4280F0A081002256
:10718000082301922946009310223046FFF7A0FE03
:1071900001342378002B7FF446AF337B002B40F083
:1071A000028105B0BDE8F08F214614F8013B2D2B7C
:1071B00048F004087FF445AF48F001083BE748F089
:1071C000020838E73046FFF767FE28E7D9F80030B5
:1071D0001A1DC9F800204A781D682E2A01F1010401
:1071E0007FF451AF6278A2F13003092B04F101045E
:1071F0004FF000073FF64BAF07EB870702EB47075F
:1072000014F8012FA2F13003092BA7F13007F3D9AD
:107210003DE7D9F800301A1DC9F800201968CDF8EB
:1072200004803B4600950A223046FFF751FE0134A8
:10723000AFE7D9F800301A1DC9F8002018F0010F87
:107240001F6840F0BD80002F00F05281384605F0E5
:10725000DDFD8046454540F2FB80002D00F0F880C2
:107260004FF0200B05E0454540F2F280002D00F084
:10727000EF80B2683368511CB16003F802B0B268A5
:1072800073689A4205F1FF35EDD33046FFF704FEEF
:10729000E9E7D9F800301A1DC9F80020D3F800B08A
:1072A0008BEAEB73A3EBEB73092B4FF0010108DDC5
:1072B0008AFB0302DB17C3EBA203092B01F10101D7
:1072C000F6DCB94238BF394635B1BBF1000F02DBFD
:1072D00018F0040F00D0013D18F0020F6DD118F026
:1072E000010F17D1002D00F0E8808D4288BF2023C8
:1072F00010D9B268501CB06030688354B2687068AE
:10730000824205F1FF3580F08A80002D00F0D580A3
:107310008D42EED8BBF1000FC0F2DA8018F0040FF6
:1073200040F0858008F00303022B00F0A4808DE874
:1073300020013B4659460A223046FFF7C9FD013479
:1073400027E7D9F80020131DC9F80030B368316869
:107350001278581CB060CA54B26873689A42FFF43D
:1073600017AF3046FFF798FD013412E7D9F8003027
:107370001A1DC9F800201968CDF804803B46009515
:1073800010223046FFF7A4FD013402E7B3683268EB
:10739000591CB1604FF02501D154B26873689A420C
:1073A000DFD20134F5E6304605B0BDE8F04FFFF717
:1073B00073BD1A460C46002562E6002FAAD08EE760
:1073C000B846C7EB080B18F8012B8AB1B1683368CF
:1073D000481CB0605A54B26873689A42F1D3304680
:1073E000FFF75AFDC7EB080B18F8012B002AEDD167
:1073F0005D457FF6CDAE202702E05D457FF6C8AE45
:10740000B2683368511CB1609F54B26873689A4285
:1074100005F1FF35F1D33046FFF73EFDEDE730468D
:1074200003930291FFF738FD039B02996DE7B26861
:10743000531CB36033682B209854B26873689A4227
:10744000FFF470AF30460291FFF726FD029969E71D
:10745000013F17F8013F002B3FF49AAEB268316844
:10746000501CB0608B54B26873689A42F1D33046B6
:10747000FFF712FDEDE7002F7FF459AF002D35D057
:107480008D4288BF30237FF652AFB268501CB06087
:1074900030688354B2687068824205F1FF3503D2C8
:1074A00025B38D42F1D842E7304603930291FFF7AE
:1074B000F3FC039B0299F3E7704700252AE7304667
:1074C000FFF7EAFC5BE63046FFF7E6FCB3684CE604
:1074D000B268531CB36033682D209854B268736847
:1074E0009A42CBF1000BFFF41DAFABE700251EE77E
:1074F000B846AFE667666666FFF76EBC2DE9F041F9
:10750000B0F81080A8F104084144CF1C0646B7FB30
:10751000F8F7FFF77DFC80B3FFB200250123013FA0
:107520000446A0F8068006600571437128D08046A5
:1075300009E06379AF4203F101036371C8F8000009
:10754000066080461CD03046FFF762FC01350028FB
:10755000EFD16679721E234603D0013082421B6848
:10756000FBD81F684EB100252368214601353846F7
:107570001C46FFF775FCAE42F6D10020BDE8F08155
:107580002046BDE8F08100BF04300121FFF7ECBBCD
:10759000F8B5012104460430FFF7F4FBC0B200B196
:1075A000F8BD6679721E234603D0013082421B6803
:1075B000FBD81F68002EF3D0002523682146013533
:1075C00038461C46FFF74CFCAE42F6D1F8BD00BF72
:1075D0002DE9F843C788467907FB06F6D518043E1F
:1075E000AE42044603F10400884638BFF51AB0FBEA
:1075F000F7F128BF154607FB110011B101392468C6
:10760000FCD13E1AAE4228BF2E469DB14FF0000974
:107610002044AD1B324608EB0901043005F0E3FBC2
:10762000AF42B14424683E464FF0000028BF2E46CA
:10763000002DEDD1BDE8F8832DE9F843C78890F817
:1076400005E007FB0EFED518AEF1040EAE4504466C
:1076500003F104008846B0FBF7F638BFC3EB0E0514
:1076600007FB160128BF154616B1013E2468FCD160
:107670007E1AAE4228BF2E469DB14FF0000921442C
:10768000AD1B0431324608EB090005F0ACFBAF42FC
:10769000B14424683E464FF0000128BF2E46002D1D
:1076A000EDD1BDE8F88300BF33DF704741DF70479D
:1076B000064A074B10B5002414701C60BFF35F8F9F
:1076C0000449054800F09CF8204610BD29300020F0
:1076D0002C300020B4D102003030002000B583B03F
:1076E00002A8002300F8013DFFF7B4FAF1EE103ACA
:1076F00023F09F03E1EE103ABFF35F8F0A4B402265
:10770000C3F884219DF80700FFF7CCFA03F0EEFCE4
:1077100028B920BF40BF20BF03B05DF804FBFFF7CE
:10772000C5FF03B05DF804FB00E100E070B5274D34
:10773000064601212846FFF7EFFABFF35F8FC8B96D
:10774000042E18D0224B1A788AB9224C2670224E69
:1077500001221A7073682BB912E01F4800F05AF822
:1077600073686BB11B68207898470028F5D1BFF388
:107770005F8F286070BD184E164C7368002BF1D1D6
:1077800004F054FC04F034F80028FBD12378023BC9
:10779000012B0BD903F0AAFCA8B94FF080430122BA
:1077A000C3F80025BFF34F8F20BFFDE7BFF34F8F16
:1077B0000A490B4BCA6802F4E0621343CB60BFF383
:1077C0004F8F00BFFDE7FFF76FFFE6E72C3000208B
:1077D000293000202A3000203030002000ED00E069
:1077E0000400FA058268002393608268136182684E
:1077F00053618268D3608268536082681360704707
:1078000001600B6843604A68934204BF00234360F1
:10781000704700BF426842B101688B6813444360FF
:107820004A68934204BF00234360704730B4184D48
:10783000A5F59472AB1ADB1003EBD3735B1002EB6C
:10784000C30152F83330984228BF0C4605D311E0EB
:1078500052F8333098420CD221468B1ADB1003EBDE
:10786000D3735B10914202EBC304F1D8094830BCDA
:1078700070470D46984204D904F10802AA42D9D3B0
:10788000F4E76068034B002808BF1846EFE700BF25
:10789000D4D60200D4D6020010B568B101280AD1AE
:1078A0000C4C2369A07033B10CCB012022619847A6
:1078B0002369002BF8D110BD064CA3680122627029
:1078C000002BF8D00CCB0020A2609847A368002BB7
:1078D000F8D110BD3830002068B910B5064CA36847
:1078E0000122627033B10CCB0020A2609847A368DC
:1078F000002BF8D110BD70473830002030B501287A
:1079000083B01CD015D3032811D100F0C7F802A80A
:1079100000231E4C00F8013DFFF79CF9E368013B92
:10792000E360E5685DB39DF80700FFF7BBF903B0BE
:1079300030BD174B0122C3F8802003B030BD02A830
:107940000023124C00F8013DFFF784F923785BB95E
:1079500010486360A3602361E36000F091F803F0D6
:10796000C5FB80B101232370E3689DF80700013354
:107970000122E360A270FFF795F903B030BD00F07B
:10798000A1F8A570CFE700F089F8EBE738300020C8
:1079900000E100E09978020070B50A4A0A4B0678C7
:1079A0004568047AC06853F8213052F8211084B039
:1079B00003908DF8006001958DF80840684698475F
:1079C00004B070BD503000204C30002070B50A4A21
:1079D0000A4B067845688468C06853F8213052F82D
:1079E000211084B003908DF8006001958DF8084057
:1079F0006846984704B070BD503000204C300020DD
:107A0000F0B507460678194D1948DFF870E00C69A3
:107A10004B7F45F826400EF8063040F826200C46ED
:107A200094460FCC89B06D460FC594E80F003C78A2
:107A30001EF8044085E80F0004965CB9BCF1000F05
:107A40000C4A694607F10C0008BF002200F0AAFDAD
:107A500009B0F0BDBCF1000F074A694607F1040008
:107A600008BF002200F0CEFF09B0F0BD503000206A
:107A70004C300020CD79020099790200903B002023
:107A8000054A13790BB185207047012110605371AD
:107A900018461171704700BF54300020084B1A6817
:107AA000D20706D40122E02183F80013C3F8802115
:107AB0001A604FF080430122C3F81825704700BFB9
:107AC00000E100E0044B01221A604FF08042D2F83E
:107AD0001834DB03FBD470470C00004010B5144B86
:107AE0001A6882B062B10021124A19601B6850798D
:107AF00000934FF080410123009CC1F8083390B1FE
:107B00000D4B1A686AB100221A601B6801934FF08E
:107B100080420221074B0198C2F808131B6801201C
:107B2000984702B010BD116853718847E8E700BF5D
:107B300000010040543000200401004070B5224C88
:107B400094F8585082B015B1082002B070BD4FF0C3
:107B5000FF332946FF26042204F1540023636363A4
:107B6000A363E36323646364A364E36423606360E7
:107B7000A360E36023616361A361E361236284F82E
:107B800050306362A36284F85230E36284F8533069
:107B900084F8516005F032F90C4B0D4A0D4E15601A
:107BA0004021E02083F80603C3F8801119601368B0
:107BB000019301994FF000430122284684F8582090
:107BC000C6F8043302B070BD5C30002000E100E074
:107BD0007C61004000600040034B93F85800003087
:107BE00018BF0120704700BF5C300020F0B56A4C20
:107BF000231893F93050002D01DB0820F0BD91F8D7
:107C000002E0CEF3400E9446BEF1000F56D0256838
:107C1000013500F0B280082600256B1C5E4F54F839
:107C20002320013251D0AB1CB34245D257F8232058
:107C300001324AD0EB1CB3423ED257F82320013226
:107C400043D02B1DB34237D257F8232001323CD00A
:107C50006B1DB34230D257F82370013735D0AB1DBE
:107C6000B34229D254F823204B4F01322DD0EB1DC3
:107C7000B34221D257F82320013226D005F1080360
:107C8000B34219D257F8232001321ED005F109035F
:107C9000B34211D257F82320013216D005F10A035E
:107CA000B34209D257F8237001370ED00B35B542D5
:107CB00002D2E36A013307D00420F0BD256A013502
:107CC00061D00C260825A8E70B2326185DB244F8DE
:107CD00023C086F83050BEF1000F02D1234483F850
:107CE00048008B785A0715D4DE073DD5830003F191
:107CF000A043D3F8002722F00202C3F80027274F41
:107D0000C60800F0070EBA5D012303FA0EF3134311
:107D1000BB558B78C3F3400353B9083D2C44097815
:107D200094F8502042EA811284F850201846F0BDA1
:107D3000AD0005F1804505F5C0450B78D5F8102557
:107D400022F4473222F44072C5F810251B040002C9
:107D500003F44032D5F8101500F4F85313430B43E5
:107D6000C5F810350020F0BD4A784FF0A04600F568
:107D7000E073920046F82320C1E70025C4F800C054
:107D800083F83050ADE7082683F830603546C4F8F4
:107D900020C03346A2E700BF5C300020B030002096
:107DA000F0B42E4D2E1882B096F93030072B1CDD22
:107DB0002B4493F848309B09032B41D0012B14BF6F
:107DC0004FF440334FF40033800000F1A040D0F86E
:107DD000002722F44032C0F80027D0F800271343D0
:107DE000C0F8003702B0F0BC7047DAB2072AF9D801
:107DF000980000F1804000F5C04003F1400292007D
:107E0000D0F8104592B202F18042002744F00104FC
:107E100002F5C042C0F8104501970198176000298B
:107E2000E0D096F9302055F82220002ADAD001223D
:107E30000B4902FA03F3C1F8043302B0F0BC7047F7
:107E40004FF0A043D3F81035C34013F0010F0CBF1F
:107E50004FF400334FF44033B6E700BF5C300020EE
:107E6000006000404FF0A043D3F8103523FA00F033
:107E700000F00100704700BF2DE9F04387B00026F5
:107E8000C94B01961A68012A00F00482C74B1A6890
:107E9000012A00F0F181C64B1A68012A00F0DE8148
:107EA000C44B1A68012A00F0CB81C34B1A68012A1F
:107EB00000F0B881C14B1A68012A00F0A581C04BBF
:107EC0001A68012A00F09281BE4B1A68012A00F05C
:107ED0007F81BD4B1A68012A00F0598116F0FF0F0F
:107EE0001AD0BA4F01250024A30003F180432E428B
:107EF00003F5C0434FEA45050BD0D3F8100557F8FA
:107F00002420D3F81015C0F30420C1F3014102B1BD
:107F100090470134082CE7D1002E02DB07B0BDE802
:107F2000F083AA4C00224FF0FF33274602920393BE
:107F300001260DF1080894F950104D1C2DD0C9B23E
:107F400021F0C00006AB4FEAD00E03EB0E0201F0A9
:107F5000070312F80CCC06FA03F31CEA030F1CD03B
:107F60003D18890995F9305057F82590B9F1000F5F
:107F700000F0E880032900F0E8804FEA800E0EF15F
:107F8000A04E12F8145CDEF800271D40C2F3014237
:107F900040F0B580032A00F0A281002594F9511029
:107FA000481C2FD0C9B221F0C00006AB4FEAD00E5A
:107FB00003EB0E0201F0070312F80CCC06FA03F3F0
:107FC0001CEA030F1ED007EB000C89099CF930C096
:107FD00057F82C90B9F1000F00F0C680032900F08B
:107FE000C6804FEA800E0EF1A04E12F814CCDEF8D7
:107FF00000271CEA030FC2F3014240F08D80032AE0
:1080000000F0928194F952104A1C2ED0C9B221F08E
:10801000C00006AB4FEAD00E03EB0E0201F00703DF
:1080200012F80CCC06FA03F31CEA030F1DD007EB81
:10803000000C89099CF930C057F82C90B9F1000F59
:1080400000F08980032900F088804FEA800E0EF14D
:10805000A04E12F814CCDEF800271CEA030FC2F37E
:10806000014265D1032A00F04C8194F953104B1C56
:108070002CD0C9B221F0C00006AB4FEAD00E03EB02
:108080000E0201F0070312F80CCC06FA03F31CEA07
:10809000030F1BD007EB000C89099CF930C057F87F
:1080A0002C90B9F1000F69D0032969D04FEA800EF6
:1080B0000EF1A04E12F814CCDEF800271CEA030FD4
:1080C000C2F3014211D1032A00F0F080002D3FF4E9
:1080D00025AF4FF0A043019AD3F8103593423FF4F7
:1080E0001DAF029A0193039225E7022AEED10329DC
:1080F00000F02D81B9F1000FE8D0C847E6E7022A69
:108100007FF44BAF032900F02B810025B9F1000F5C
:108110003FF444AFC84741E7022A7FF473AF032915
:1081200000F01881B9F1000F3FF46CAFC84769E760
:10813000022A9AD1032900F01081B9F1000F94D0DE
:10814000C84792E703297FF428AF18F80E501D4363
:1081500008F80E5011E7032987D118F80EC04CEA31
:10816000030C08F80EC070E703297FF44BAF18F832
:108170000EC04CEA030C08F80EC032E70329A5D163
:1081800018F80EC04CEA030C08F80EC08EE7002267
:108190001A601B6805934FF0A043059AD3F8103579
:1081A000019346F0004699E60061004004610040FA
:1081B000086100400C610040106100401461004003
:1081C000186100401C6100407C6100405C30002070
:1081D000654AD2F8042317067FF57BAE00221A60A9
:1081E0001B680493049B46F0800672E65E4AD2F850
:1081F000042352067FF568AE00221A601B680493C0
:10820000049B46F040065FE6574AD2F804239106E5
:108210007FF555AE00221A601B680493049B46F05C
:1082200020064CE6504AD2F80423D0067FF542AE31
:1082300000221A601B680493049B46F0100639E67E
:10824000494AD2F8042314077FF52FAE00221A60A2
:108250001B680493049B46F0080626E6424AD2F8BF
:10826000042355077FF51CAE00221A601B68049397
:10827000049B46F0040613E63B4AD2F80423970712
:108280007FF509AE00221A601B680493049B46F038
:10829000020600E63449D1F8041311F001011CD0A4
:1082A0001E601B680493049B1646EFE503297FF4C8
:1082B00021AF4FF40033DEF8002722F44032CEF82D
:1082C0000027DEF8002701351343EDB2CEF8003762
:1082D000B9F1000F7FF411AFFBE60E46D6E5032996
:1082E0007FF414AF4FF40033DEF8002722F440325D
:1082F000CEF80027DEF800271343CEF8003701251B
:1083000004E703297FF419AF4FF40033DEF80027A8
:1083100022F44032CEF80027DEF80027013513435F
:10832000EDB2CEF8003708E703297FF4FBAE4FF437
:108330000033DEF8002722F44032CEF80027DEF8C2
:10834000002701351343EDB2CEF80037EAE64FF4CB
:108350004033B0E74FF44033EBE74FF44033D5E719
:108360004FF44033C0E700BF00600040014B1B6882
:10837000184700BFB8300020104B984201D00020B1
:10838000704730B583B002A8002300F8013D0D46C8
:10839000FEF760FC0A4B1C7934B19DF80700FEF72C
:1083A00081FC112003B030BD01229DF807001D6043
:1083B0001A71FEF777FC204603B030BD0020004064
:1083C000B8300020034B984203D1034B00221A60BF
:1083D0001A71704700200040B830002030B56F4A55
:1083E000D2F8043399058BB05CD5D2F82431002B38
:1083F00058D00023C2F82431D2F8243103934FF42B
:108400000171674B0398C2F8081393F8291009B952
:1084100001215160614902228DF81820D1F8802491
:10842000C1F880249869D9680992002208900791C0
:108430009A6193E81200DA6106A8A047574AD2F879
:108440001C31C3B1564B186A5969884267D293F8F8
:10845000280000F0FF04002861D1C2F81C41D2F8C6
:108460001C11029102999C68186A196A205C0131FA
:108470001962C2F81C05494AD2F8443183B100217F
:10848000474BC2F84411D2F8440193F829100090E8
:10849000009809B1012111609A69414B002A53D11A
:1084A0000BB030BD3D4AD2F804335B07C6D5D2F8D5
:1084B0000831002BC2D03A4B9969002953D00021D2
:1084C000C2F80811D2F8081104910499D868596AC1
:1084D000D2F8182542545A6A996901325A62586A88
:1084E0002F4A8842AAD1D169002945D192F8292082
:1084F00012B92A4A01215160284A4FF40171C2F889
:108500000813596ADA6808910024012007928DF84F
:10851000180093E806009C6106A890478EE71F4A62
:108520000020C2F81C01D2F81C210192019A0029F6
:10853000A1D09A688DF8180008915861079206A892
:1085400093E80600904796E70022586AD9689A6136
:108550000122089007918DF8182006A893E80600DC
:1085600090470BB030BDC2F80811D2F80801059051
:108570000598D2F81825B2E7D568546A1069916158
:1085800000230121D060D36153628DF81810079544
:10859000089492E80A0006A898474FE70020004098
:1085A000C03000202DE9F041604E05792C2303FBFB
:1085B000056382B093F82A301BB1082002B0BDE8F1
:1085C000F0810F4604465A4900689046FFF7D4FEF2
:1085D00018B1112002B0BDE8F0813A68511C0BD0EF
:1085E0004FF0A04101239340C1F808353B6803F5E3
:1085F000E073032241F823207B685A1C06D003F560
:10860000E0734FF0A042002142F823102368BA69BA
:10861000C3F82425797D3B7D22680B43C2F86C3575
:1086200097E806002368C3F81425C3F80C153B7DB2
:10863000012B51D02C2303FB05F3F218C2F8048060
:108640003A69F250B8F1000F35D023683A7F394FBC
:108650000021C3F81C11D3F81C3100932368DDF806
:1086600000E0C3F84411D3F8441123680191019943
:10867000C3F804732168090B4BB2002B4EDB03F1E6
:10868000604303F561435201D2B283F800232268AC
:10869000120B42F3C40323F0604323F0030303F1FE
:1086A000604303F5614302F01F02012101FA02F267
:1086B000C3F880211A602C23246803FB0563002281
:1086C00004250121C4F8005583F82A109A61DA6163
:1086D00083F829205A6171E7BB68591C06D003F55D
:1086E000E0734FF0A042002142F82310FB685A1CAF
:1086F0000DD001224FF0A04102FA03F3C1F8083572
:10870000FB6803F5E073032241F82320FB6822682D
:10871000B968C2F80835C2F810158BE7064B01F0AE
:108720000F0152010B44D2B21A76B0E7C0300020DC
:10873000DD83020080000200FCEC00E0F8B52F4D64
:10874000047902682C2303FB045300215B68C2F800
:10875000001583B103682A4AC3F808230368294E29
:108760001B0B5AB25209203203F01F03012101FAF8
:1087700003F346F8223003684FF0FF32D3F80CE5DC
:10878000D3F81475D3F80815D3F81065C3F8142579
:10879000C3F80C2503689645C3F80825C3F81025CF
:1087A00006D00EF5E07E4FF0A043022243F82E20C3
:1087B0007B1C06D007F5E0774FF0A043022243F878
:1087C0002720721C06D006F5E0764FF0A043022267
:1087D00043F826204B1C06D001F5E0714FF0A04372
:1087E000022243F821200068FFF7ECFD2C2303FB55
:1087F0000454002384F82A306360F8BDC0300020A0
:108800008402020000E100E0F0B5304E05792C232F
:1088100003FB056385B05C6914B1112005B0F0BDA0
:108820001C62996083F828405A610268C2F81C41B2
:10883000D2F81C11026802910121029F9160026826
:10884000D3F808E0C2F81C41D2F81C11019101993B
:10885000D3F820C0196A5F681EF80CC00131196294
:10886000C2F81CC517B1204605B0F0BD1A6A5C6994
:108870000168944203D819E093F82820F2B9D1F89E
:108880001C21002AF8D0C1F81C71D1F81C210392D8
:10889000039AD3F820C01A6A1EF80CC001321A627B
:1088A000C1F81CC51A6AA242E9D30168D1F81C318B
:1088B000002BFBD00123CB60002000E00F202C23F5
:1088C00003FB056300225A61A8E700BFC030002007
:1088D00070B54A4BD3F8242188B0002A55D1D3F87B
:1088E0001011F1B9454BD3F8442152B10020444A4C
:1088F000C3F84401D3F8444191690194019C0029D3
:1089000060D13E4BD3F820214AB100213C4AC3F844
:108910002011D3F8204150690094009C30BB08B06E
:1089200070BDC3F81021D3F8101135480391039995
:108930008169D3F83C458C42D4D1C569002D50D013
:10894000D3F80012C668856121F02001C3F8001237
:108950000369C26101220168C3608DF81840436851
:1089600005968DF8102004A89847BBE7D3F84C056E
:1089700093688DF818008DF810105161059304A8C4
:1089800092E80A00984708B070BD0021C3F824118E
:10899000D3F82421029202228DF81020029AD3F8F3
:1089A0008004174AC3F880040790D3F83C05D368C5
:1089B0008DF818009161D16105931168536804A87E
:1089C00098478FE7D3F83C458DF81840D3689061FD
:1089D00001240593116853688DF8104004A8984746
:1089E0008FE7C36801688561012205938DF81840FF
:1089F00043688DF8102004A8984773E700200040D2
:108A0000EC3000202DE9F0430479704EE7003B196B
:108A100006EB830385B093F820301BB1082005B026
:108A2000BDE8F08389460546694900689046FFF72E
:108A3000A3FC18B1112005B0BDE8F083D9F80020DF
:108A4000511C0CD04FF0A04101239340C1F80835D0
:108A5000D9F8003003F5E073032241F82320D9F858
:108A600004305A1C06D003F5E0734FF0A0420021F9
:108A700042F823102B68D9F81820C3F8242599F858
:108A8000151099F814202B680A43C3F86C252A683E
:108A9000D9F80030D9F80410C2F80C35C2F8141512
:108AA00099F81430012B61D03A199200B318C3F829
:108AB0000480D9F81030B350B8F1000F47D02968BE
:108AC00099F81C20DFF810E10023C1F81031D1F82B
:108AD000101100912968DDF800C0C1F82031D1F8EB
:108AE000201101912968DDF804C0C1F82431D1F8C2
:108AF000241102912968DDF808C0C1F84431D1F889
:108B000044112B6803910399C3F804E32968090B06
:108B10004BB2002B51DB03F1604303F5614352017B
:108B2000D2B283F800232A68120B42F3C40323F065
:108B3000604323F0030303F1604303F5614302F054
:108B40001F02012101FA02F2C3F880211A603C449D
:108B50002A6806EB840400230125082184F82050AC
:108B6000C2F80015A361E361636158E7D9F80830E2
:108B7000591C06D003F5E0734FF0A042002142F8E3
:108B80002310D9F80C305A1C0FD001224FF0A0410D
:108B900002FA03F3C1F80835D9F80C3003F5E07395
:108BA000032241F82320D9F80C302A68D9F808109C
:108BB000C2F80835C2F8101576E7064B01F00F0130
:108BC00052010B44D2B21A76ADE700BFEC30002060
:108BD000D1880200FCEC00E010030200F8B5057932
:108BE0002F4C0268EE00731904EB830300215B68CD
:108BF000C2F8001583B103682A4AC3F80823036842
:108C0000294F1B0B5AB25209203203F01F030121D6
:108C100001FA03F347F8223003684FF0FF32D3F82C
:108C20000CC5D3F814E5D3F80815D3F81075C3F8BC
:108C30000C25C3F8142503689445C3F80825C3F828
:108C4000102506D00CF5E07C4FF0A043022243F83B
:108C50002C20BEF1FF3F06D00EF5E07E4FF0A04382
:108C6000022243F82E207A1C06D007F5E0774FF059
:108C7000A043022243F827204B1C06D001F5E071E7
:108C80004FF0A043022243F82120354404EB850431
:108C90000068FFF797FB002384F820306360F8BD7D
:108CA000EC3000201003020000E100E001F060431E
:108CB000B3F1005F01D010207047F0B50579214E67
:108CC000EF007C1906EB840483B0636913B11120B3
:108CD00003B0F0BDA1606261D0F800E0CEF82031B1
:108CE000DEF820C1D0F800E0CDF804C0DDF804C003
:108CF000CEF85831DEF858C1D0F800E0CDF800C009
:108D0000DDF800C0CEF84415CEF8482502680121F0
:108D1000916062680AB11846DAE7036800E079B941
:108D2000D3F82021D3F85811002AF8D0002914BF15
:108D30000F2000207B1906EB830300225A61C7E74E
:108D40000F20F7E7EC30002075DF704776DF7047C3
:108D50007FDF70478FDF70470146014800F0B0BEEB
:108D60007431002070B5464B464C828C46491C1B22
:108D70000546E40884B02404036A95F91A6090F962
:108D80001B00019044F003042046009602F0ECFF23
:108D90002B88103B462B31D8DFE803F03A4B305399
:108DA000303030303030305C30303064302430306F
:108DB00030303030303030303030303030303030B3
:108DC00030303030303030323030303030303030A1
:108DD0003030303030303030303030303030303093
:108DE000303032000023A8888DF80C3003A98DF8AC
:108DF0000D30FFF7AFFF08B1FDF7CCFB04B070BD3D
:108E0000A8881321FFF7A2FF0028F5D104B070BD98
:108E10000022A9881D4800F0E5FE70BB072000F085
:108E200073FB38BBA9881A4800F0E4FF0028E5D09E
:108E3000E2E720462B7AAA88164902F015FF04B013
:108E400070BD0023A8881A468521FFF781FF0028FE
:108E5000D4D0D1E72B7A022BD0D120460E4902F094
:108E60000FFECBE705F10801A888FFF76DFF00288A
:108E7000C4D0C1E7FDF78EFBD4E7FDF78BFBCDE750
:108E8000E4E60200BCE6020014D7020074310020C0
:108E9000E02900206CD702009CD7020010B50446E0
:108EA000002000F031FB10B92CB1012010BDFDF7FE
:108EB00071FB002CF9D100F0B9FD0028F5D0FDF7C9
:108EC00069FB012010BD00BF0A8840F677239A4253
:108ED00000D0704770B50C4B0C4D0D4E5D1BED086E
:108EE0002D0445F003050C4628460A4902F0C8FD4A
:108EF000A4880949033CA4B228462346224634806C
:108F0000BDE8704002F0B0BEE4E60200BCE602003C
:108F1000AC2C0020BCD70200D8D70200042805D012
:108F20000A2802D10020FEF701BC704708B5064BA5
:108F300013215888FFF70AFF30F0080300D108BD5D
:108F4000BDE80840FDF726BB7431002030B503783A
:108F5000062B85B034D0072B1BD0042B01D005B0D5
:108F600030BD1B4B1B481C49181AC008000440F0B8
:108F7000030002F085FD194801F0DAFE28BB01204C
:108F800000F0C2FA0028EAD005B0BDE83040FDF795
:108F900001BB44680E49A079A37862780390657993
:108FA0000C48029525790195081AC008E1780091CE
:108FB000000440F003000A4902F066FF05B030BD2E
:108FC00040680028E0D105B030BDFDF7E3FAD6E7F0
:108FD000E4E60200BCE6020030D8020024310020A2
:108FE00000D8020008B50949094803F04DFB48B90B
:108FF000F721074803F05EFB00B908BDBDE8084053
:10900000FDF7C8BAFDF7C6FAF2E700BFC98E020045
:109010001031002000B54FF4004185B0002002F06F
:1090200089FB08B1FDF7B6FA02F010FBFDF71AFD57
:1090300008B1FDF7AFFA3749012000F0FFFB08B196
:10904000FDF7A8FA6946002000F002FD08B1FDF71F
:10905000A1FA314800F0B4FE08B1FDF79BFAFEF723
:1090600027FB08B1FDF796FA01F0B4FF08B1FDF750
:1090700091FA002369460120009302F089F808B1B3
:10908000FDF788FA684602F061F908B1FDF782FA47
:10909000FFF7A8FF10220021684603F0AFFE01236E
:1090A00069461E4A1E488DF804308DF80C3001F0D8
:1090B000E3FD08B1FDF76EFA1A4A1948032101F0E1
:1090C000ADFD08B1FDF766FA00220421144801F055
:1090D000C1FD08B1FDF75EFA134B14481449181A84
:1090E000C008000440F0030002F0CAFC0C4801F084
:1090F0001FFE08B1FDF74EFA012000F005FA08B195
:10910000FDF748FA02F074FB0028FBD1FEF7E6FAFF
:10911000F8E700BF1D8F0200598D02004D8F02003D
:1091200024310020C4D80200E4E60200BCE60200BC
:10913000A0D80200022003F02DB900BF2DE9F047AE
:109140000D46064603F04AF903281ED8012D0446B1
:109150001FD00ED3022D1AD11C4B00EB40041C442F
:10916000657895B11A4B1B687BB12846BDE8F0477E
:1091700018471848FDF732FD1449174A04EB440319
:109180000B44155D9B789D42EBD0BDE8F087BDE8B0
:10919000F087DFF8388047003B1808EB030218F827
:1091A000035053782BB9274447440B4BBA781A55D0
:1091B000D7E7DFF8289007484A464FF40041FDF70B
:1091C000B7FC0028EFD189F80060ECE7FC31002003
:1091D000B4310020B831002084310020D831002083
:1091E00010B5007803F0FAF803280BD8064B00EB13
:1091F00040001844407828B1044B1B6813B1BDE807
:109200001040184710BD00BFFC310020B4310020D1
:10921000B44B1B68DB0700D4704770B5B24EB34D3A
:1092200033782C78FBB9172C1CD8DFE814F0F10048
:109230001701170163007600830096005D00390076
:109240002C0039002C00A300A800A800A800A8004A
:10925000A800CE00DE00040146001800180003F04C
:1092600083F82C7070BDA24B1B7800203070002B4F
:1092700000F0088103F056F8012003F053F80320B2
:1092800003F050F8CFE701231846337003F082F85B
:1092900000224FF480419748BDE87040FDF748BC7C
:1092A00001231846337003F075F8002240F6CD41D3
:1092B0009048BDE87040FDF73BBC8D4B1B78002B00
:1092C00000F00181002003F02DF8012003F02AF8BE
:1092D000032003F027F8002003F018F8012003F022
:1092E00015F815232B7070BD002003F00FF807232D
:1092F0002B7070BD002002F0F9FF002800F0D6802E
:10930000002003F00FF846F2666103232B70002261
:109310007848BDE87040FDF70BBC002002F0E6FF86
:10932000002800F0C880002002F0FCFF4FF400315C
:109330000423EBE7002002F0D9FF002800F0C080F2
:10934000002002F0EFFF05232B70002241F69A1156
:109350006848BDE87040FDF7EBBB002003F01AF849
:1093600006232B70002240F6CD416248BDE87040D4
:10937000FDF7DEBB02F0F8FF0C232B7070BD5E48DA
:10938000FDF72CFCD4F1110405467ED000287CD1D9
:10939000012C13D0C82303FB04F44FF4FA704FF4EC
:1093A00000430021C3FB04014FF47A72002303F051
:1093B00045FD2A4601465048FDF7BAFB022002F05F
:1093C000A5FF4B4B01221A7070BD494B1B78002B37
:1093D0007CD0002002F0A6FF012002F0A3FF0320B2
:1093E00002F0A0FF12232B7070BD414B1B78002BA5
:1093F00072D0002002F096FF012002F093FF0320BC
:1094000002F090FF002002F081FF13232B7070BD4B
:10941000374B1B78002B5CD0002002F083FF01202B
:1094200002F080FF032002F07DFF3248FDF7D6FBFB
:1094300000232B7070BD2E4B1B78002B4FD00020CB
:1094400002F070FF012002F06DFF032002F06AFFBE
:10945000012002F05BFF14232B7070BD002002F08E
:1094600045FFC8B1002002F05DFF022C4EF266619C
:1094700018BF4FF400312C7000221E48BDE8704028
:10948000FDF756BB02F05AFFCDE6022002F04AFF7C
:10949000174B00221A7070BD02F038FF43F23333CD
:1094A00041F69A11022C18BF1946E4E702F02EFF8C
:1094B00041F69A1129E702F029FF43F2333137E7E9
:1094C00002F024FF3FE702F039FF04E702F036FF25
:1094D00088E702F033FFA8E702F030FF92E702F0DE
:1094E0002DFFB5E7883100208C310020B0310020FD
:1094F000D9310020DC31002090310020032801D92F
:109500000020704702F05ABF38B5C54B1B6813F0F6
:10951000010401D1204638BDC24C23780546E3B989
:10952000172D00F28981DFE815F00B0135013501B7
:1095300069007D009100A5005B0035002800350022
:109540002800B300BA00BA00BA00BA00BA00E300BB
:10955000F6002001420063006300B34B1B7800203B
:109560002070002B00F02B8102F0DCFE012002F0C5
:10957000D9FE032002F0D6FED2E70123184623705D
:1095800002F008FF00224FF48041A848BDE83840AF
:10959000FDF7CEBA01231846237002F0FBFE00222D
:1095A00040F6CD41A148BDE83840FDF7C1BA9E4B19
:1095B0001B78002B00F02481002002F0B3FE012074
:1095C00002F0B0FE032002F0ADFE002002F09EFE8D
:1095D000012002F09BFE964B15221A70002499E799
:1095E000002002F093FE924B07221A70002491E7AC
:1095F00002F0BAFE8E4B00241D708BE7002002F0B3
:1096000075FE002800F0E580002002F08BFE46F297
:109610006661874B854803241C700022BDE83840F2
:10962000FDF786BA002002F061FE002800F0E0801D
:10963000002002F077FE4FF400317D4B7B4804247C
:109640001C700022BDE83840FDF772BA002002F01D
:109650004DFE002800F0D180002002F063FE744B24
:10966000724805241C70002241F69A11BDE838406A
:10967000FDF75EBA002002F08DFE6D4B6B480624AC
:109680001C70002240F6CD41BDE83840FDF750BACD
:1096900002F06AFE664B0C221A7000243AE7654815
:1096A000FDF79CFA0446D5F1110000F08B80002CE8
:1096B00040F08880012814D0C82505FB00F54FF440
:1096C00000434FF4FA700021C3FB05014FF47A7296
:1096D000002303F0B3FB224601465648FDF728FA63
:1096E0000446022002F012FE4F4B01221A7011E7CD
:1096F0004D4B1B78002B00F08680002002F012FEFC
:10970000012002F00FFE032002F00CFE484B122253
:109710001A700024FEE6444B1B78002B79D0002001
:1097200002F000FE012002F0FDFD032002F0FAFD30
:10973000002002F0EBFD3E4B13221A700024E9E6F4
:10974000394B1B78002B61D0002002F0EBFD01208B
:1097500002F0E8FD032002F0E5FD3448FDF73EFA93
:10976000334B002204461A70D4E62F4B1B78002B93
:1097700052D0002002F0D6FD012002F0D3FD0320DC
:1097800002F0D0FD012002F0C1FD294B14221A7015
:109790000024BFE6002002F0A9FDF8B1002002F08D
:1097A000C1FD022D4EF2666118BF4FF40031204B0F
:1097B0001E481D700022BDE83840FDF7B9B902F01F
:1097C000BDFDADE6022002F0ADFD174B00221A7080
:1097D000A0E602F09BFD41F69A111AE702F096FD11
:1097E00043F2333341F69A11022D18BF1946DEE7D2
:1097F00002F08CFD43F233311FE702F087FD2EE7C4
:1098000002F09CFDE1E602F099FD7FE702F096FD93
:10981000A3E702F093FD8BE702F090FDB2E700BFF3
:10982000883100208C310020D9310020DC3100202B
:10983000B03100209031002000246BE6F8B5254BB4
:10984000254A196081070446106014D5234B24482B
:109850000E2111250F27102619705D7240F26662E5
:109860000421DF709E71FCF72BFE0546C0B1E307B3
:109870002AD42846F8BD10F00105FAD0012002F0E4
:10988000C5FD184A18480021FDF740F90546002893
:10989000EFD1164A16480121BDE8F840FDF736B968
:1098A000FCF762FE05460028E1D10146114A124844
:1098B000FDF72CF9E2070546DBD5012002F0A6FDF5
:1098C000002DDED02846F8BD012002F09FFD28467D
:1098D000F8BD00BFB431002088310020FC310020E9
:1098E000D4D8020011920200CCD8020035910200B7
:1098F000C8D80200E1910200D0D80200032801D9A3
:1099000007207047012A12D0012917D008D3022955
:10991000F6D10D4B00EB4000034400205A70704715
:10992000094B00EB4000034400209A707047012966
:1099300001D00022E8E700F10E02D2B200EB4003B2
:1099400001490020CA547047FC310020032801D986
:109950000620704708B502F053FD800000F1A043D7
:109960000020D3F8002722F44032C3F80027D3F8B0
:10997000002742F44032C3F8002708BD10B5038821
:10998000102B08D0112B05D1264B18680138186010
:1099900038B110BD10BD234C216881B10131216067
:1099A00010BD01220221FFF7A9FF48B3072827D0E5
:1099B0001D4B1B68002BECD0BDE81040184701225E
:1099C0000846FFF79BFF48B1072807D0164B1B68D6
:1099D00003B1984721680131216010BD072202219F
:1099E0000120FFF78BFF08B10728EFD104220221E5
:1099F0000020FFF783FF0028ECD00728E6D1E9E735
:109A0000072202210120FFF779FF08B10728CFD1F3
:109A1000002108460A22FFF771FF0028B9D0072865
:109A2000C6D110BD0C3200200832002008B500203D
:109A3000FFF78CFF10B1062800D008BD0120FFF70A
:109A400085FF0028F9D0062808BF002008BD00BF08
:109A5000194B10B5186031B101200C46FFF74EFDCF
:109A600030B102232370154B186848B1002010BD97
:109A7000FFF744FDE8B9114B207018680028F5D1B4
:109A800001220221FFF73AFF08B10728EFD1072290
:109A900002210120FFF732FF08B10728E7D100219A
:109AA00008460A22FFF72AFF0028DFD00728DED168
:109AB000DCE70B232370D6E7083200200C320020AD
:109AC0002DE9F0410C4686B00546142201A800217C
:109AD00003F094F9237813B9A288012A02D006B0C2
:109AE000BDE8F081A1792A789142F8D1207A40B37B
:109AF00000EBC0001A469C461E46BDF81680BDF815
:109B000012E0BDF8147004EB4000234609E003297D
:109B100004D10122B3F816E01F8B9446123383421E
:109B200006D0D9890229F2D1B3F816800126F5E7CB
:109B3000A6B9BCF1000F01D0ADF812E00AB1ADF842
:109B40001470EB68002BCAD06288ADF806200022A2
:109B500001A928468DF804209847C0E7ADF8168083
:109B6000E7E700BF30B587B049B140B14A880B463E
:109B70004FF6FF718A421FD08188914201D007B011
:109B800030BD0288112A20D0392AF8D19A88002ABB
:109B9000F5D041899142F2D1DA68002AEFD000F184
:109BA0001004C1898DF8101001258DF80450184655
:109BB000039401A99047E2E70188112902D03929CD
:109BC000DDD1E3E781889142D9D1DA68002AD6D085
:109BD00006A9022001F8140D4FF6FF7058801846B0
:109BE0009047CCE748B141802AB15388C38013889D
:109BF000838093880381002070470E20704700BF48
:109C00009BDF70479DDF70479EDF7047F0B5364B96
:109C10001E6890F8C632A1B066B3C3EB0315C3EB60
:109C200085035D004419314BA4789F78A74223D067
:109C3000012E1FD99F79DFF8B4E0A7424ED0022E43
:109C400018D09F7ADFF8A4E0A74241D0032E11D0AC
:109C50009F7BDFF898E0A74234D0042E0AD09F7C87
:109C6000DFF888E0A74227D0052E03D09B7D1F4E4A
:109C7000A3421BD021B0F0BDB3F800E0475BBE4566
:109C8000D6D11B4B1E68002EF4D015460C467C2204
:109C9000002101A803F0B2F8012301A8ADF8065095
:109CA00002948DF80430B04721B0F0BDB48A435B14
:109CB0009C42E6D021B0F0BDBEF810E0475BBE4547
:109CC000D2D1DEE7BEF80CE0475BBE45C5D1D8E790
:109CD000BEF808E0475BBE45B8D1D2E7BEF804E065
:109CE000475BBE45ABD1CCE73435002018350020AA
:109CF000103200202DE9F04390F8C64290F8C532AA
:109D0000C4EB041EC4EB8E0E00EB4E0E4FF0760C2F
:109D10000CFB04FC9EF8047003EBC3040CEB44043E
:109D20005E1C0444BE4283B004F10A053CD0BB4231
:109D300038BF07F1FF382DD25E1C06EBC6040CEBD2
:109D40004404984500EB04092B8912D0B9F810504F
:109D50000133AB4217D0013DADF80650ADF80430E9
:109D600000230B70104601A9FFF74EFF03B0BDE8BA
:109D7000F083BEF80840A34212D00133ADF804309E
:109D8000ADF80640ECE709F10A05F3B29F4280F80E
:109D9000C532D1D8012300200B7003B0BDE8F08399
:109DA000002508F10106F0E72B89BEF80800834280
:109DB000F0D00133ADF80430ADF80600D0E700BFB5
:109DC00068B170B40749084A084E094D1060012473
:109DD00000230C7033602B60184670BC70470E2354
:109DE00018467047303500201032002034350020EE
:109DF0001435002070B11D4B1B780BB9082070473B
:109E00001B4B1B68002BF9D070B590F8C7621EB1D0
:109E1000112070BD0E2070470D464FF4337231464D
:109E2000044602F0EBFF134A134B10682060A4F8BD
:109E3000CA5284F8C96284F8C66284F8C5622246B0
:109E4000284601211E60FFF7DBFE112807D00028FD
:109E5000DFD1012384F8C80284F8C73270BD012322
:109E600084F8C73284F8C832304670BD30350020DF
:109E700034350020183500201435002090B389B304
:109E8000B74B1B7873B32DE9F04F0388113BA5B096
:109E900004460D46222B00F21781DFE813F065011E
:109EA0001501150115011501150115011501150102
:109EB00015011501150115011501150115011501F2
:109EC00015011501150115011501150115011501E2
:109ED0001501150115011501150115015701150190
:109EE0004B0126017047C388002B40F0AF8291F8E8
:109EF000C662817AC6EB0613C6EB83035B00EF18DC
:109F000097F804804144062900F35484C9B239719A
:109F1000B6468845424680F0A6802346762008EB68
:109F2000C80100FB06F053F80C9F00EB41012944E7
:109F3000D3F80480C1F80E80C1F80A901B894B82C7
:109F400000238B82CB820B834B83397902F1010C86
:109F50008C4580F0EA830CEBCC01A44600EB410178
:109F60005CF816AF2944DCF80490C1F80E90C1F8F3
:109F70000AA0BCF808C0A1F812C08B82CB820B8368
:109F80004B83397902F1020C8C4580F0CE830CEBC7
:109F9000CC01A44600EB41015CF820AF2944DCF879
:109FA0000490C1F80E90C1F80AA0BCF808C0A1F84E
:109FB00012C08B82CB820B834B83397902F1030C65
:109FC0008C4580F0B2830CEBCC01A44600EB410140
:109FD0005CF82AAF2944DCF80490C1F80E90C1F86F
:109FE0000AA0BCF808C0A1F812C08B82CB820B83F8
:109FF0004B83397902F1040C8C4580F096830CEB8D
:10A00000CC01A44600EB41015CF834AF2944DCF8F4
:10A010000490C1F80E90C1F80AA0BCF808C0A1F8DD
:10A0200012C08B82CB820B834B83397902F1050CF2
:10A030008C4580F07A830CEBCC01A44600EB410107
:10A040005CF83E9F2944DCF80480C1F80E80C1F81A
:10A050000A90BCF808C0A1F812C08B82CB820B8397
:10A060004B83397906327623013A03FB06F602EB7D
:10A07000C20206EB420203FB0EFE2A4405EB0E036E
:10A08000508A1A89904280F0E181062900F0DE8131
:10A0900085F8C512A088002940F0A084DB88ADF8BF
:10A0A000143005A9ADF81620FFF7ACFD60B1002310
:10A0B00085F8C7320146A2882846FFF7A7FD294B3D
:10A0C000A2885A8003221A7095F8C83253B12388A7
:10A0D000303B9BB21F2B05D8A488B5F8CA22944206
:10A0E00000F0C98025B0BDE8F08F8288B1F8CA328F
:10A0F0009A42E9D1C08891F8C61295F8C5E20028C5
:10A1000051D16389002B4ED0762303FB01F30EEB74
:10A11000CE0603EB46062E442246D389A3F52453EC
:10A12000082B00F2A280DFE803F09EA29BA0A0A073
:10A13000A0A02E008388B1F8CA2293423FF4D3AE88
:10A140001C4695F8C832002BC9D1CBE7B0F804E023
:10A15000B1F8CA22964500F0E5807446F1E700BFE9
:10A1600030350020143200208288B1F8CA329A4279
:10A17000B8D100234FF6FF7281F8C73281F8C83298
:10A18000A1F8CA22AEE79789B38A77832BB1F38A05
:10A190001BB1338B0BB1738B2BB9638901309842A0
:10A1A00002F10602B9D3762202FB01520EF101033D
:10A1B0001279002693428DF8136040F0A2820123A9
:10A1C0008DF81330DFF88082B4F804E0D8F800701E
:10A1D000002F00F04584762202FB01F2AB18964E68
:10A1E0009B78B078984200F0D683012F40F24084EB
:10A1F000B079DFF844C2984200F0E983022F1CD006
:10A20000B07ADFF834C2984200F0DA83032F14D01A
:10A21000B07BDFF824C2984200F0CB83042F0CD02F
:10A22000B07CDFF814C2984200F0BC83052F04D044
:10A23000B07DDFF804C2984242D0F04695F8C932AA
:10A240000133DBB2BB4285F8C932C0F070827B4B70
:10A2500003210022A3F80280197085F8C72233E792
:10A260009389B38292E79389F382B38A8EE79389C5
:10A270003383B38A8AE74FF433720021284602F011
:10A28000BDFD6D4B6E4E186828600023A5F8CA42CC
:10A2900085F8C932204685F8C63285F8C5322A4687
:10A2A00001213360FFF7ACFC112800F07382002815
:10A2B0007FF418AF012385F8C80285F8C73211E78B
:10A2C000BCF81400AB5A9842B7D15E4B1B6803939D
:10A2D000002BB2D0DFF868A1DAF80090B9F1050FD1
:10A2E000ABD8564B02934FEAC91203EB020B019213
:10A2F000762202FB01510BF10400ABF802E002F000
:10A3000072FD039BCBF87C3009F101010198029B9F
:10A31000CAF800100022B9421A5400F06B83B4F856
:10A3200004808BE7C38891F8C612002B00F072817D
:10A33000DFF81481D8F80070002F00F09183C1EB92
:10A340000113C1EB83035B00EA183B4E9278B078AF
:10A35000904200F06982012F40F28A83B079DFF8E1
:10A36000D8C0904200F05882022F3FF466AFB07A16
:10A37000DFF8C4C0904200F04782032F3FF45DAF86
:10A38000B07BDFF8B4C0904200F03682042F3FF477
:10A3900054AFB07CDFF8A0C0904200F02582052FBA
:10A3A0003FF44BAFB07DDFF890C090427FF445AFF3
:10A3B000BCF81420EB5A9A427FF43FAF214B1B6844
:10A3C0000393002B3FF439AFDFF874A0DAF8009064
:10A3D000B9F1050F3FF631AF184B02934FEAC9129E
:10A3E00003EB020B0192762202FB01510BF10400F8
:10A3F000ABF802E002F0F7FC039BCBF87C3009F1EC
:10A4000001020198029BCAF800200221BA421954A5
:10A4100085D199464FF0000BD9F87C3048469847D3
:10A42000D8F800700BF1010BBB4509F18009F3D39B
:10A430000023CAF8003072E71835002014320020DB
:10A44000143500201032002034350020002685F815
:10A45000C562A2880DF113012846FFF74BFC0746A1
:10A46000002840F044829DF81330002B3FF42CAEBE
:10A47000DFF83883B4F804E0D8F8007095F8C61215
:10A48000002F00F0ED82C1EB0113C1EB83035B00F1
:10A49000EA18C34E9278B078904200F03483012FCE
:10A4A00040F27883B079DFF8F8C2904200F032834E
:10A4B000022F1CD0B07ADFF8E8C2904200F01C8373
:10A4C000032F14D0B07BDFF8D8C2904200F0FE8298
:10A4D000042F0CD0B07CDFF8C8C2904200F0EF82AD
:10A4E000052F04D0B07DDFF8B8C290425FD0F046AF
:10A4F00095F8C9320133DBB2BB4285F8C932BFF4EB
:10A50000A6AE95F8C622DFF898A20132D2B2762321
:10A5100012FB03F105EB010E56F8220085F8C62266
:10A520004FF0000B85F8C5B203FB025268500121C1
:10A530008EF804B04046FFF763FB814600283FF4E5
:10A54000C3AD95F8C62285F8C7B212FB03F3EA182B
:10A550009AF802109278914200F01F83012F20D0C8
:10A56000B0798F49904200F04A83022F19D0B07A17
:10A570008B49904200F03D83032F12D0B07B884975
:10A58000904200F03083042F0BD0B07C844990427D
:10A5900000F02383052F04D0B07D8149904200F064
:10A5A0001683804B0322A3F802801A708CE5BCF856
:10A5B0001420EB5A9A429AD17B4B1B680193002BD3
:10A5C00095D0DFF8ECA1DAF80090B9F1050F8ED83C
:10A5D000744B03934FEAC91203EB020B02927622EB
:10A5E00002FB01510BF10400ABF802E002F0FBFBAF
:10A5F000019BCBF87C30029B09F101011846039BBB
:10A60000CAF800100022B9421A5400F0B182B4F81E
:10A6100004806DE7C1EB0113C1EB83035B00C268EB
:10A62000EA502B440269C3F8062095F8C5228088B9
:10A63000002A40F0A180DA881B89ADF8163005A900
:10A64000ADF81420FFF7DEFA804600283FF43CAD59
:10A65000564B95F8C6221B68002185F8C712A788BB
:10A660008BB3C2EB0211C2EB810251006A184C4E4F
:10A670009278B078904200F0EC81012B23D9B07928
:10A68000DFF81CE1904200F0DC81022B1BD0B07A95
:10A69000DFF80CE1904200F0CC81032B13D0B07BAB
:10A6A000DFF8FCE0904200F0BC81042B0BD0B07CC2
:10A6B000DFF8ECE0904200F0AC81052B03D0B37DD5
:10A6C0003748934205D03B46364A032153801170E8
:10A6D000FAE4828A6B5A9A42F5D1334B1E68002EF7
:10A6E000F1D07C22002105A802F088FB01238DF81F
:10A6F0001430ADF81670CDF8188005A8B047A388BF
:10A70000E2E785F8C532A2880DF113012846FFF76C
:10A71000F1FA8046002840F08E809DF81330002B1F
:10A720003FF4D2AC95F8C6124CE562469BE495F82E
:10A73000C6320133DBB2C3EB0312C3EB8202520019
:10A7400056F8230085F8C632A918002685F8C56298
:10A75000A85076220E7102FB035201214046FFF7FA
:10A760004FFA00283FF4B0AC014685F8C762424674
:10A770002846FFF74BFA14E7013AD2B2762602EBED
:10A78000C20206FB01F101EB42022A44528A013265
:10A7900092B251E7012385F8C73285F8C832A1E4A7
:10A7A00018350020143200201032002034350020EB
:10A7B00014350020C94ACA48CA49C0EB02094FEA09
:10A7C000D90906224FEA094949F002093A71484677
:10A7D000EA5A01F0CBF9C449484601F051F995F81D
:10A7E000C6E23979FFF795BBBCF8100035F803C015
:10A7F00084457FF4D4ADE1E5BCF80C0035F803C026
:10A8000084457FF4C3ADD9E5BCF8080035F803C032
:10A8100084457FF4B2ADD1E5BCF8040035F803C03F
:10A8200084457FF4A1ADC9E535F803C0308884457F
:10A830007FF491ADC2E5AD4B85F8C7621A68A78871
:10A8400095F8C632002A3FF43EAFC3EB0311C3EBC9
:10A8500081035B00E918A64E8978B078884200F041
:10A860002781012A7FF62FAFB079DFF884E2884292
:10A8700000F01781022A3FF426AFB07ADFF870E2C9
:10A88000884200F00781032A3FF41DAFB07BDFF858
:10A8900060E2884200F0F780042A3FF414AFB07CF5
:10A8A000DFF84CE2884200F0E780052A3FF40BAF66
:10A8B000B27D8F488A427FF406AF828AEB5A9A4271
:10A8C0007FF401AF8B4B1E68002E3FF4FCAE7C2260
:10A8D000002105A802F092FA01238DF8143005A892
:10A8E000ADF81670CDF81880B047A388ECE67F4B22
:10A8F00085F8C7621968B4F8048095F8C63289B340
:10A90000C3EB0312C3EB82035A00AB18784E9B785B
:10A91000B078984200F02581012923D9B079DFF879
:10A92000D0E1984200F0158102291BD0B07ADFF8FF
:10A93000C0E1984200F00581032913D0B07BDFF815
:10A94000B0E1984200F0F58004290BD0B07CDFF82C
:10A95000A0E1984200F0E580052903D0B17D64486C
:10A96000994201D04346AFE6818AAB5A9942F9D168
:10A97000604B1E68002EF5D07C22002105A802F055
:10A980003DFA01238DF8143005A8ADF8168006971E
:10A99000B047A38898E6B6F800C0A85A84457FF46B
:10A9A00024AC92E4BCF810C0A85A84457FF43EACB5
:10A9B0008BE4BCF80CC0A85A84457FF42FAC84E427
:10A9C000BCF808C0A85A84457FF420AC7DE4BCF8EC
:10A9D00004C0A85A84457FF411AC76E44B1EDBB268
:10A9E00003EBC3030EEB43032B445B8A01339BB29F
:10A9F000FFF755BB99469346D9F87C3048469847AF
:10AA0000D8F800700BF1010BBB4509F18009F3D3B5
:10AA10000EE5BEF8100035F801E086457FF44DAE36
:10AA20005BE6BEF80C0035F801E086457FF43DAEEC
:10AA300053E6BEF8080035F801E086457FF42DAEF8
:10AA40004BE6BEF8040035F801E086457FF41DAE04
:10AA500043E635F801E0308886457FF40EAE3CE6EB
:10AA600095F8C9320133F04685F8C932FFF7EFBBDC
:10AA7000F0460127FFF7E2BBBEF810E0E85A864532
:10AA80007FF413AF1EE7BEF80CE0E85A86457FF46A
:10AA900003AF17E7BEF808E0E85A86457FF4F3AE47
:10AAA00010E7BEF804E0E85A86457FF4E3AE09E714
:10AAB000B6F800E0E85A86457FF4D3AE02E7BCF86A
:10AAC00010C0E85A84457FF40BAD75E5BCF80CC0A6
:10AAD000E85A84457FF4FCAC6EE500BFECE602006A
:10AAE000BCE6020030D9020078D9020034350020DB
:10AAF0001835002010320020BCF808C0E85A844500
:10AB00007FF4DEAC58E5B6F800C0E85A84457FF41F
:10AB1000C6AC51E5BCF804C0E85A84457FF4C8AC23
:10AB20004AE5BEF8100035F802E086457FF414AF20
:10AB30001EE7BEF80C0035F802E086457FF404AF4E
:10AB400016E7BEF8080035F802E086457FF4F4AE5B
:10AB50000EE7BEF8040035F802E086457FF4E4AE67
:10AB600006E735F802E0308886457FF4D5AEFFE68B
:10AB700099469346D9F87C3048469847D8F80070F3
:10AB80000BF1010BBB4509F18009F3D30023CAF88F
:10AB900000303CE5F0460127AAE4BAF80000E95A83
:10ABA00088427FF4DBAC194B1E68002E3FF4F9ACF1
:10ABB00005A87C22002102F021F9012305A8ADF8A7
:10ABC0001680CDF818908DF81430B047E9E48A8AE1
:10ABD000EB5A9A427FF4E5ACE5E7098AE85A8842E5
:10ABE0007FF4D8ACDFE78889E95A88427FF4CBACA0
:10ABF000D9E70889E95A88427FF4BEACD3E789884F
:10AC0000E85A88427FF4B1ACCDE700BF1032002093
:10AC10008ADF70478BDF70478CDF704720B11AB135
:10AC2000032903D0072070470E20704703790BB12A
:10AC30000420704710B4048811888C4207D0012189
:10AC400001711268026018465DF8044B704718469F
:10AC5000FAE700BF68B1CB0601D10720704701F0C9
:10AC6000040101F0FF0301B101234371827100204F
:10AC700070470E20704700BF38B3F8B50D464262EA
:10AC800000210822044602F0B9F805B32B7923729B
:10AC90002B7BA3742E68002E3BD0B268306871689D
:10ACA00004F1140307C3B2891A80AB6843B31A686E
:10ACB0005B68C4F80E30C4F80A2004F128021F2390
:10ACC000A264A4F84C300020F8BD0E207047237D0C
:10ACD000658343F0040365F3C4034FF0A00E5027CF
:10ACE00001264FF4C87006211822E58125722375CC
:10ACF000A4F816E02783667520826181A281DCE7D3
:10AD00004FF4C87006211822E38120826181A2815C
:10AD1000D3E7237D668343F0040366F3C403A020D6
:10AD2000502101222375E08221836275BDE700BFB7
:10AD300008B310B5044686B01422002101A802F021
:10AD40005DF8FFF767FF237D1B070BD404F1480173
:10AD500004F11400FFF75CFF044630F008000CD14A
:10AD600006B010BD636A002BF0D0012201A88DF857
:10AD700004209847EAE70E207047074B0748084928
:10AD8000181AC008000440F00100224600F0EEFE50
:10AD9000204606B010BD00BFFCE60200BCE6020083
:10ADA000E0D902002DE9F04F0388103B8BB0054637
:10ADB0000C4600F10808102B48D8DFE803F07A476A
:10ADC00047474747474747474765470947474A0077
:10ADD00068461422002102F011F8237D04F1140BBF
:10ADE0001B07CDF810B07BD46379A279002B40F01B
:10ADF000C480CDF80480002A00F0D680237A002198
:10AE00008DF80010002B00F0B680A67CFFF702FF43
:10AE1000142205A801F0F2FF3346594605F10A0055
:10AE200004F10A02FFF7F8FE062306908DF81430AD
:10AE3000636A18B12BB105A89847636A0BB16846DD
:10AE4000984704F148010020FFF7E2FE0BB0BDE88F
:10AE5000F08F142205A8002101F0D0FF626A002AB9
:10AE6000F4D0D8F80000D8F8041098F8085006ABD1
:10AE700003C3143405211D70099405A88DF814101E
:10AE800090470BB0BDE8F08F05A81422002101F017
:10AE9000B5FF2B7A012BD9D1626A002AD6D014349F
:10AEA000042109948DF8183005A88DF814109047E6
:10AEB000CCE7142205A8002101F0A0FF636AAA884C
:10AEC000ADF81C2014340722CDF818808DF814201A
:10AED0000994002BBAD005A898470BB0BDE8F08FB5
:10AEE000022368468DF80030CDF80480636A9847E5
:10AEF00004F148010020FFF78BFE237A002BA5D038
:10AF0000A67CFFF787FE1422002105A801F076FF3A
:10AF10003346594605F10A0004F10A02FFF77CFEA8
:10AF2000062306908DF8143000288FD0636A002B1A
:10AF3000D1D18BE709F1FF37FFB2013704EB870767
:10AF4000264601E0BE422DD032465146286A01F025
:10AF50008DFA04360028F5D09DF80830227ACDF815
:10AF6000048043F0040300218DF808308DF80010B0
:10AF7000002A7FF44AAF636A60E794F80490B5F85A
:10AF800024A0B9F1000F20D0002AD3D026460027F4
:10AF900032465146286A01F069FA04367B1C40B9F2
:10AFA0004F4509D0CDF804800322636A8DF8002054
:10AFB00044E7DFB2B945EBD19DF80830CDF8048005
:10AFC00043F004038DF8083018E7002AF4D1E9E7CC
:10AFD00010DF704770B53C4D2B7884B013B108205A
:10AFE00004B070BD394E3A49012302A83370FCF712
:10AFF00007FC039B5BB11A68596800209047002842
:10B00000EED002A8FCF706FC039B002BF3D13149DC
:10B0100002A8FCF7F5FB039B4BB11A6859680020A6
:10B02000904702A8FCF7F6FB039B002BF5D12A4BB7
:10B0300018680190002302A88DF80830FBF70AFE7B
:10B0400001A82649FFF7C4FFB0FA80F304465B0964
:10B050009DF808002B70FBF725FE0CB12046BFE7DA
:10B060001F4B20493470E0220C7083F8162383F8BC
:10B07000152393F81623EC21520941FA02F2D20764
:10B0800017D5194A9168C9B94FF480021A6011495D
:10B0900002A8FCF7B5FB039B4BB11A685968012065
:10B0A000904702A8FCF7B6FB039B002BF5D10020CC
:10B0B00096E742F20200FBF76DFAE8E7136843F403
:10B0C00080031360E3E700BF3835002039350020E6
:10B0D00014DA020020DA020010DA0200B56502007C
:10B0E00000E100E03A350020843B0020014B187855
:10B0F000704700BF3835002000B583B06846084966
:10B10000FCF77EFB019B43B158681A68904768467C
:10B11000FCF780FB019B002BF6D103B05DF804FB2C
:10B1200034DA020060DF704769DF704761DF704723
:10B1300010B54FF4FA74ADF5007D0DF1020103A8CE
:10B14000ADF80240FFF7F2FF88B90C4901A8FCF7FF
:10B1500057FB029B002BF0D01A68596803A8904750
:10B1600001A8FCF757FB029B002BF5D1E5E705286A
:10B1700001D0FBF70FFA0DF5007D10BD40DA02009B
:10B18000024B1B780BB1FFF7D3BF70473B35002054
:10B19000002900F08F8070B5634B0B6084B00C46C3
:10B1A00005460C22002101A801F028FE01260623F5
:10B1B00001A922688DF8045020208DF80660ADF8B2
:10B1C0000830FFF7B1FF002840F084800C220021F6
:10B1D00001A801F013FE002101238DF8051022685B
:10B1E0008DF8063001A940208DF80730FFF79CFF4D
:10B1F000002841D10C22002101A801F0FFFDF72316
:10B2000022688DF8045001A92320ADF80630FFF71D
:10B210008BFF00287AD10C22002101A801F0EEFD5D
:10B220000123184622688DF8043001A9FFF77CFF3E
:10B2300000285DD10C22002101A801F0DFFD4FF4B0
:10B24000B0632268019301A9A120FFF76DFF0028D8
:10B2500032D10C22002101A801F0D0FD9DF804306C
:10B2600022686FF3000301A9A0208DF80430FFF7D6
:10B270005BFF78B904B070BDFCF7D8FA2B4A2C4BB1
:10B280002C499B1ADB081B04024643F0010000F026
:10B290006DFCAFE7FCF7CAFA244A254B26499B1AF6
:10B2A000DB081B04024643F0010000F05FFC0020B5
:10B2B00004B070BD0E207047FCF7B8FA1B4A1C4B57
:10B2C0001E499B1ADB081B04024643F0010000F0F4
:10B2D0004DFCBEE7FCF7AAFA144A154B18499B1A15
:10B2E000DB081B04024643EA060000F03FFC6DE762
:10B2F000FCF79CFA0D4A0E4B12499B1ADB081B0403
:10B30000024643F0010000F031FC93E7FCF78EFAAF
:10B31000064A074B0C499B1ADB081B04024643F004
:10B32000010000F023FC76E7E0290020BCE60200E3
:10B330001CE7020094DA0200C8DB020074DB0200A2
:10B340004CDA020028DB0200E0DA0200F8B504461D
:10B350000768FFF7E7FE23689F42064605D326BB32
:10B360001A4B01221A703046F8BD194B194D1A4973
:10B370005D1BED082D0445F00205284600F080FB1A
:10B380003A4628462368154900F06EFC4FF080537A
:10B390002268D3F80C3112499B0203F1005328466E
:10B3A0009A1A00F0E3FB002EDAD03046FCF73EFAA2
:10B3B000084A074B0B499B1ADB081B04024643F063
:10B3C000010000F0D3FB3046F8BD00BF3B35002044
:10B3D0001CE70200BCE602001CDC02004CDC0200A0
:10B3E00080DC0200ACDC02004BDF704700B585B0AA
:10B3F00001A8FFF7F9FFA8B90E4902A8FCF700FA67
:10B40000039B002BF4D01A6859680198904702A852
:10B41000FCF700FA039B002BF5D101A8FFF7E4FF2E
:10B420000028E9D0052801D0FBF7B4F805B05DF895
:10B4300004FB00BFD8DC0200F0B595B0002415462F
:10B440000F4608461E46FCF79FF83846234608225A
:10B45000089505A91A9D0D9509960A948DF82C401A
:10B460000C94FCF7E9F89DF81430079DBDF818001E
:10B47000BDF81A108DF8114003F00302012A02955D
:10B48000ADF80C00ADF80E1028D0022A04D03846D2
:10B49000FCF77EF815B0F0BDBDF81650C3F3C2033B
:10B4A0008DF81030C5F389150826082D2C4628BFC5
:10B4B0000824334622460EA93846FCF7BDF82D1B5A
:10B4C000214608AB02AA0EA8264400F06BFE002D10
:10B4D000EBD13846FCF75CF815B0F0BDBDF8146050
:10B4E000059DC6F38316C3F3C204B2000EA9384605
:10B4F00008238DF81040C5F39525FCF79DF808AB9F
:10B500000093324628460EA902AB00F0A5FDBEE727
:10B51000014B01221A7070473C350020704700BF74
:10B5200000B583B0044B0093044A4023FFF784FF27
:10B5300003B05DF804FB00BF41B5020040350020B8
:10B5400038B50E480E4D03780E4CEB5C0025257087
:10B55000D2B263B90C30FDF757F908B1FBF71AF80E
:10B56000094B1B7813B12378002BFCD038BD043075
:10B57000FDF79CFB0028F1D1F2E700BFB02C0020C2
:10B58000903B00203C3500203D35002030B516486A
:10B59000164A0378D35C89B00BBB0C30FDF7CEF8AC
:10B5A000134D0FCD6C460FC495E80F00062584E8B7
:10B5B0000F004FF0FF334FF0EB74002269460A484A
:10B5C00000950193029303930694FCF719FA08B1CE
:10B5D000FAF7E0FF074B00221A7009B030BD0430C3
:10B5E000FDF7FCFADCE700BFB02C0020903B002008
:10B5F000F0DC02003D35002030B5104D0FCD89B094
:10B600006C460FC495E80F00062584E80F004FF044
:10B61000FF334FF0EB740A4A0A48009569460193DC
:10B62000029303930694FCF7EBF908B1FAF7B2FF23
:10B63000054B01221A7009B030BD00BFF0DC0200DA
:10B6400011B50200B02C00203D35002008B5FFF7F1
:10B65000D3FF0421034800F0B7FC034B01225A71C9
:10B6600008BD00BFA0E70200C42C002070B5304C1C
:10B6700084B004F58360FBF793FB04F21440FBF7FE
:10B680008FFB6268A66802EA0605AB1C04EB830127
:10B69000081D097911F0040117D0037803F00303A2
:10B6A000012B37D0022B0DD14388C3F3891302330A
:10B6B0001A4406EA0205AB1C04EB8303181D197932
:10B6C00001F004010029E8D1AB1C04EB8303511CF9
:10B6D00058680190314004EB810300F00300DB68FF
:10B6E0000293012802F102041AD0022816D1BDF8F3
:10B6F0000630BDF80A50C3F38913033304EB9304F7
:10B700000B4E06F21440FBF759FB00B1746028465B
:10B7100004B070BD0388C3F38313C8E70025EFE7C7
:10B72000BDF80430BDF80A50C3F383131C44E7E7A7
:10B73000803500200B4B0C4810B50022FF21C3F8C8
:10B74000182499601A605A60C3F8142483F82024DE
:10B75000FBF7D2FE044610B90448FCF743F8204634
:10B7600010BD00BF803500203CE7020048DD02002C
:10B7700021B9114B03EBC0000068704730B40F4A89
:10B780000D4C121BD2080CD00D4D2B88834210D0CB
:10B79000002303E035F82310814205D001339A429B
:10B7A000F8D1002030BC704704EBC300006830BC07
:10B7B00070472046FAE700BFBCE602003CE7020003
:10B7C000AC2E0020094B013903EBC00003290BD834
:10B7D000DFE801F002080604022070474079704754
:10B7E000007970470420704700207047BCE60200D3
:10B7F0002DE9F04F9D4C626823689A4285B000F0B5
:10B80000CC800023C4F81834BFF34F8F6268A5685A
:10B8100002EA0503023304EB83010E1D0979480790
:10B820001FD5D4F800E02746337803F00303012B3B
:10B8300048D0022B04D17388C3F3891302331A440E
:10B8400005EA02030233D4F81804DFF820C207EB3C
:10B8500083010E1D00283BD196453DD90979490742
:10B86000E2D404EB8303511C58680190294004EB97
:10B87000810300F00300DB680293022802F1020852
:10B880007A4F2ED0012800F08C80D4F810543DB1AE
:10B890002B6828469B689847EB681D68002DF7D1F8
:10B8A000734B74487449181AC008000440F0020031
:10B8B00000F0E6F894E80900181A18BF012005B056
:10B8C000BDE8F08F3388C3F3831302331A44B7E71C
:10B8D00005EA02030233C4E7CCF804E005B0BDE892
:10B8E000F08FBDF806306548C3F38919B9F1500FE0
:10B8F000CA46A8BF4FF0500A6AF38F130AF1080135
:10B90000ADF80630FBF7FAFD06460028BDD025EA63
:10B91000080B0BF1010BFBF737FE4FEA8B0B0023F3
:10B92000082201A93046FBF753FEDA4576D9BBF170
:10B93000000F40F08280524607F10C010823304688
:10B94000FBF746FE09F1030708EB9707D4F8183414
:10B95000464A002B6DD1D2F810545DB1EB685A798C
:10B96000314628461AB12B681B689847EB681D685A
:10B97000002DF3D13046FBF70BFE04A8002300F89E
:10B980000D3DFBF767F9D4F81834384A03B957600E
:10B990009DF80300FBF786F98CE7002005B0BDE8B1
:10B9A000F08FBDF804303548C3F38312062A28BF50
:10B9B0000622911C62F389138900ADF80430FBF76D
:10B9C0009DFD064600283FF460AFFBF7DDFD002338
:10B9D000082201A93046FBF7FBFDBDF8043013F443
:10B9E000707F40D04FF0000A4FF0080908EA0501C7
:10B9F00004EB81014B460C3104223046FBF7E8FD95
:10BA0000BDF804300AF1010AC3F3831308F10107FA
:10BA1000534509F10409B846E8D897E705EA080153
:10BA200007EB81010C31524608233046FBF7D0FD6D
:10BA300088E73046FBF7ACFD3CE705EA080107EB79
:10BA40008101CBEB0A055A4630460C31EDB2082392
:10BA5000FBF7BEFD2A460BF1080307F10C01304647
:10BA6000FBF7B6FD6EE7474670E700BF8035002064
:10BA7000E4E60200BCE6020030DD02003CE7020022
:10BA80002DE9F04383B002AB002203F8012DDFF86B
:10BA9000D880054618460F46D8F80860FBF7DAF854
:10BAA000D8F80820D8F80430D8F8004013440133FF
:10BAB0001B1B012B54D801212A48FBF755F9FFF72E
:10BAC000D5FD01462748FBF74FF998E80A00D8F85A
:10BAD0000820134401335B1A012BECD90A404FF0C4
